{
  "contractName": "Contract",
  "abi": [
    {
      "inputs": [],
      "payable": false,
      "stateMutability": "nonpayable",
      "type": "constructor"
    },
    {
      "constant": true,
      "inputs": [],
      "name": "contract_count",
      "outputs": [
        {
          "internalType": "uint256",
          "name": "",
          "type": "uint256"
        }
      ],
      "payable": false,
      "stateMutability": "view",
      "type": "function"
    },
    {
      "constant": true,
      "inputs": [
        {
          "internalType": "uint256",
          "name": "",
          "type": "uint256"
        },
        {
          "internalType": "uint256",
          "name": "",
          "type": "uint256"
        }
      ],
      "name": "contract_users",
      "outputs": [
        {
          "internalType": "uint256",
          "name": "id",
          "type": "uint256"
        },
        {
          "internalType": "string",
          "name": "preteur",
          "type": "string"
        },
        {
          "internalType": "string",
          "name": "emprunteur",
          "type": "string"
        },
        {
          "internalType": "uint256",
          "name": "taux",
          "type": "uint256"
        },
        {
          "internalType": "uint256",
          "name": "montant_total",
          "type": "uint256"
        },
        {
          "internalType": "uint256",
          "name": "echeance_totale",
          "type": "uint256"
        },
        {
          "internalType": "int256",
          "name": "date_reelle",
          "type": "int256"
        },
        {
          "internalType": "int256",
          "name": "date_theorique",
          "type": "int256"
        },
        {
          "internalType": "uint256",
          "name": "echeance_restante",
          "type": "uint256"
        },
        {
          "internalType": "uint256",
          "name": "montant_restant",
          "type": "uint256"
        },
        {
          "internalType": "bool",
          "name": "status",
          "type": "bool"
        }
      ],
      "payable": false,
      "stateMutability": "view",
      "type": "function"
    },
    {
      "constant": true,
      "inputs": [],
      "name": "name",
      "outputs": [
        {
          "internalType": "string",
          "name": "",
          "type": "string"
        }
      ],
      "payable": false,
      "stateMutability": "view",
      "type": "function"
    },
    {
      "constant": true,
      "inputs": [
        {
          "internalType": "uint256",
          "name": "",
          "type": "uint256"
        }
      ],
      "name": "nombre_transaction",
      "outputs": [
        {
          "internalType": "uint256",
          "name": "",
          "type": "uint256"
        }
      ],
      "payable": false,
      "stateMutability": "view",
      "type": "function"
    },
    {
      "constant": false,
      "inputs": [],
      "name": "increaseContract",
      "outputs": [],
      "payable": false,
      "stateMutability": "nonpayable",
      "type": "function"
    },
    {
      "constant": false,
      "inputs": [
        {
          "internalType": "uint256",
          "name": "_taux",
          "type": "uint256"
        },
        {
          "internalType": "uint256",
          "name": "_echeance_totale",
          "type": "uint256"
        },
        {
          "internalType": "uint256",
          "name": "_montant_total",
          "type": "uint256"
        }
      ],
      "name": "createContract1",
      "outputs": [],
      "payable": false,
      "stateMutability": "nonpayable",
      "type": "function"
    },
    {
      "constant": false,
      "inputs": [
        {
          "internalType": "string",
          "name": "_emprunteur",
          "type": "string"
        },
        {
          "internalType": "string",
          "name": "_preteur",
          "type": "string"
        }
      ],
      "name": "createContract2",
      "outputs": [],
      "payable": false,
      "stateMutability": "nonpayable",
      "type": "function"
    },
    {
      "constant": false,
      "inputs": [
        {
          "internalType": "int256",
          "name": "_date_reelle",
          "type": "int256"
        },
        {
          "internalType": "uint256",
          "name": "_id",
          "type": "uint256"
        }
      ],
      "name": "createContract3",
      "outputs": [],
      "payable": false,
      "stateMutability": "nonpayable",
      "type": "function"
    },
    {
      "constant": false,
      "inputs": [
        {
          "internalType": "uint256",
          "name": "_id",
          "type": "uint256"
        }
      ],
      "name": "increaseTrans",
      "outputs": [],
      "payable": false,
      "stateMutability": "nonpayable",
      "type": "function"
    },
    {
      "constant": false,
      "inputs": [
        {
          "internalType": "uint256",
          "name": "_id",
          "type": "uint256"
        },
        {
          "internalType": "uint256",
          "name": "_somme",
          "type": "uint256"
        }
      ],
      "name": "transaction1",
      "outputs": [],
      "payable": false,
      "stateMutability": "nonpayable",
      "type": "function"
    },
    {
      "constant": false,
      "inputs": [
        {
          "internalType": "uint256",
          "name": "_id",
          "type": "uint256"
        },
        {
          "internalType": "int256",
          "name": "_date_reelle",
          "type": "int256"
        }
      ],
      "name": "transaction2",
      "outputs": [],
      "payable": false,
      "stateMutability": "nonpayable",
      "type": "function"
    },
    {
      "constant": true,
      "inputs": [],
      "name": "getCount",
      "outputs": [
        {
          "internalType": "uint256",
          "name": "_count",
          "type": "uint256"
        }
      ],
      "payable": false,
      "stateMutability": "view",
      "type": "function"
    },
    {
      "constant": true,
      "inputs": [
        {
          "internalType": "uint256",
          "name": "numero_contrat",
          "type": "uint256"
        }
      ],
      "name": "getNb_transaction",
      "outputs": [
        {
          "internalType": "uint256",
          "name": "_nombre_transaction",
          "type": "uint256"
        }
      ],
      "payable": false,
      "stateMutability": "view",
      "type": "function"
    },
    {
      "constant": true,
      "inputs": [
        {
          "internalType": "uint256",
          "name": "numero_contrat",
          "type": "uint256"
        }
      ],
      "name": "getTaux",
      "outputs": [
        {
          "internalType": "uint256",
          "name": "_taux",
          "type": "uint256"
        }
      ],
      "payable": false,
      "stateMutability": "view",
      "type": "function"
    },
    {
      "constant": true,
      "inputs": [
        {
          "internalType": "uint256",
          "name": "numero_contrat",
          "type": "uint256"
        }
      ],
      "name": "getId",
      "outputs": [
        {
          "internalType": "uint256",
          "name": "_id",
          "type": "uint256"
        }
      ],
      "payable": false,
      "stateMutability": "view",
      "type": "function"
    },
    {
      "constant": true,
      "inputs": [
        {
          "internalType": "uint256",
          "name": "numero_contrat",
          "type": "uint256"
        }
      ],
      "name": "getEcheance_totale",
      "outputs": [
        {
          "internalType": "uint256",
          "name": "_echeance_totale",
          "type": "uint256"
        }
      ],
      "payable": false,
      "stateMutability": "view",
      "type": "function"
    },
    {
      "constant": true,
      "inputs": [
        {
          "internalType": "uint256",
          "name": "numero_contrat",
          "type": "uint256"
        }
      ],
      "name": "getMontant_total",
      "outputs": [
        {
          "internalType": "uint256",
          "name": "_montant_total",
          "type": "uint256"
        }
      ],
      "payable": false,
      "stateMutability": "view",
      "type": "function"
    },
    {
      "constant": true,
      "inputs": [
        {
          "internalType": "uint256",
          "name": "numero_contrat",
          "type": "uint256"
        }
      ],
      "name": "getEmprunteur",
      "outputs": [
        {
          "internalType": "string",
          "name": "_emprunteur",
          "type": "string"
        }
      ],
      "payable": false,
      "stateMutability": "view",
      "type": "function"
    },
    {
      "constant": true,
      "inputs": [
        {
          "internalType": "uint256",
          "name": "numero_contrat",
          "type": "uint256"
        }
      ],
      "name": "getPreteur",
      "outputs": [
        {
          "internalType": "string",
          "name": "_preteur",
          "type": "string"
        }
      ],
      "payable": false,
      "stateMutability": "view",
      "type": "function"
    },
    {
      "constant": true,
      "inputs": [
        {
          "internalType": "uint256",
          "name": "numero_contrat",
          "type": "uint256"
        },
        {
          "internalType": "uint256",
          "name": "numero_transaction",
          "type": "uint256"
        }
      ],
      "name": "getDate_reelle",
      "outputs": [
        {
          "internalType": "int256",
          "name": "_date_reelle",
          "type": "int256"
        }
      ],
      "payable": false,
      "stateMutability": "view",
      "type": "function"
    },
    {
      "constant": true,
      "inputs": [
        {
          "internalType": "uint256",
          "name": "numero_contrat",
          "type": "uint256"
        },
        {
          "internalType": "uint256",
          "name": "numero_transaction",
          "type": "uint256"
        }
      ],
      "name": "getDate_theorique",
      "outputs": [
        {
          "internalType": "int256",
          "name": "_date_theorique",
          "type": "int256"
        }
      ],
      "payable": false,
      "stateMutability": "view",
      "type": "function"
    },
    {
      "constant": true,
      "inputs": [
        {
          "internalType": "uint256",
          "name": "numero_contrat",
          "type": "uint256"
        },
        {
          "internalType": "uint256",
          "name": "numero_transaction",
          "type": "uint256"
        }
      ],
      "name": "getEcheance_restante",
      "outputs": [
        {
          "internalType": "uint256",
          "name": "_echeance_restante",
          "type": "uint256"
        }
      ],
      "payable": false,
      "stateMutability": "view",
      "type": "function"
    },
    {
      "constant": true,
      "inputs": [
        {
          "internalType": "uint256",
          "name": "numero_contrat",
          "type": "uint256"
        },
        {
          "internalType": "uint256",
          "name": "numero_transaction",
          "type": "uint256"
        }
      ],
      "name": "getMontant_restant",
      "outputs": [
        {
          "internalType": "uint256",
          "name": "_montant_restant",
          "type": "uint256"
        }
      ],
      "payable": false,
      "stateMutability": "view",
      "type": "function"
    },
    {
      "constant": true,
      "inputs": [
        {
          "internalType": "string",
          "name": "_preteur",
          "type": "string"
        },
        {
          "internalType": "string",
          "name": "_emprunteur",
          "type": "string"
        }
      ],
      "name": "existContract",
      "outputs": [
        {
          "internalType": "bool",
          "name": "",
          "type": "bool"
        }
      ],
      "payable": false,
      "stateMutability": "view",
      "type": "function"
    },
    {
      "constant": true,
      "inputs": [
        {
          "internalType": "string",
          "name": "user",
          "type": "string"
        }
      ],
      "name": "nbprets",
      "outputs": [
        {
          "internalType": "uint256",
          "name": "",
          "type": "uint256"
        }
      ],
      "payable": false,
      "stateMutability": "view",
      "type": "function"
    },
    {
      "constant": true,
      "inputs": [
        {
          "internalType": "int256",
          "name": "date1",
          "type": "int256"
        },
        {
          "internalType": "int256",
          "name": "date2",
          "type": "int256"
        }
      ],
      "name": "diff_date",
      "outputs": [
        {
          "internalType": "int256",
          "name": "",
          "type": "int256"
        }
      ],
      "payable": false,
      "stateMutability": "view",
      "type": "function"
    },
    {
      "constant": true,
      "inputs": [
        {
          "internalType": "string",
          "name": "user",
          "type": "string"
        }
      ],
      "name": "reputation",
      "outputs": [
        {
          "internalType": "int256",
          "name": "",
          "type": "int256"
        }
      ],
      "payable": false,
      "stateMutability": "view",
      "type": "function"
    }
  ],
  "bytecode": "0x608060405260006001553480156200001657600080fd5b506040518060400160405280601a81526020017f436f6e7472617420456e74726520506172746963756c6965727300000000000081525060009080519060200190620000649291906200006b565b506200011a565b828054600181600116156101000203166002900490600052602060002090601f016020900481019282601f10620000ae57805160ff1916838001178555620000df565b82800160010185558215620000df579182015b82811115620000de578251825591602001919060010190620000c1565b5b509050620000ee9190620000f2565b5090565b6200011791905b8082111562000113576000816000905550600101620000f9565b5090565b90565b6120d0806200012a6000396000f3fe608060405234801561001057600080fd5b50600436106101a95760003560e01c806388be11d9116100f9578063d001773b11610097578063e3ddf83411610071578063e3ddf83414610c32578063ec26f7f814610c60578063f0fc041c14610cac578063f86ce46314610d53576101a9565b8063d001773b14610a84578063d929aac214610b2b578063dfa0ef1414610bfa576101a9565b80639d7625e5116100d35780639d7625e5146109e2578063a096d25a146109ec578063a87d942c14610a2e578063b2bb728e14610a4c576101a9565b806388be11d9146107ea5780639748e0a8146108365780639a6b268914610878576101a9565b80633878f3e81161016657806351f996931161014057806351f99693146105c8578063545a153a1461071a578063619ea1fe1461075c5780636bd5f9201461079e576101a9565b80633878f3e81461050c5780633e1088e81461054e5780634635b9b214610586576101a9565b806306fdde03146101ae57806313a422c31461023157806317bb4d55146103005780632f96119d146103425780633227e8601461038e57806335680aa3146103ac575b600080fd5b6101b6610d9f565b6040518080602001828103825283818151815260200191508051906020019080838360005b838110156101f65780820151818401526020810190506101db565b50505050905090810190601f1680156102235780820380516001836020036101000a031916815260200191505b509250505060405180910390f35b6102ea6004803603602081101561024757600080fd5b810190808035906020019064010000000081111561026457600080fd5b82018360208201111561027657600080fd5b8035906020019184600183028401116401000000008311171561029857600080fd5b91908080601f016020809104026020016040519081016040528093929190818152602001838380828437600081840152601f19601f820116905080830192505050505050509192919290505050610e3d565b6040518082815260200191505060405180910390f35b61032c6004803603602081101561031657600080fd5b81019080803590602001909291905050506111dd565b6040518082815260200191505060405180910390f35b6103786004803603604081101561035857600080fd5b810190808035906020019092919080359060200190929190505050611211565b6040518082815260200191505060405180910390f35b610396611246565b6040518082815260200191505060405180910390f35b6103e2600480360360408110156103c257600080fd5b81019080803590602001909291908035906020019092919050505061124c565b604051808c815260200180602001806020018b81526020018a81526020018981526020018881526020018781526020018681526020018581526020018415151515815260200183810383528d818151815260200191508051906020019080838360005b83811015610460578082015181840152602081019050610445565b50505050905090810190601f16801561048d5780820380516001836020036101000a031916815260200191505b5083810382528c818151815260200191508051906020019080838360005b838110156104c65780820151818401526020810190506104ab565b50505050905090810190601f1680156104f35780820380516001836020036101000a031916815260200191505b509d505050505050505050505050505060405180910390f35b6105386004803603602081101561052257600080fd5b81019080803590602001909291905050506113f0565b6040518082815260200191505060405180910390f35b6105846004803603604081101561056457600080fd5b810190808035906020019092919080359060200190929190505050611408565b005b6105c66004803603606081101561059c57600080fd5b81019080803590602001909291908035906020019092919080359060200190929190505050611468565b005b610718600480360360408110156105de57600080fd5b81019080803590602001906401000000008111156105fb57600080fd5b82018360208201111561060d57600080fd5b8035906020019184600183028401116401000000008311171561062f57600080fd5b91908080601f016020809104026020016040519081016040528093929190818152602001838380828437600081840152601f19601f8201169050808301925050505050505091929192908035906020019064010000000081111561069257600080fd5b8201836020820111156106a457600080fd5b803590602001918460018302840111640100000000831117156106c657600080fd5b91908080601f016020809104026020016040519081016040528093929190818152602001838380828437600081840152601f19601f8201169050808301925050505050505091929192905050506114f7565b005b6107466004803603602081101561073057600080fd5b8101908080359060200190929190505050611592565b6040518082815260200191505060405180910390f35b6107886004803603602081101561077257600080fd5b81019080803590602001909291905050506115c6565b6040518082815260200191505060405180910390f35b6107d4600480360360408110156107b457600080fd5b8101908080359060200190929190803590602001909291905050506115e6565b6040518082815260200191505060405180910390f35b6108206004803603604081101561080057600080fd5b8101908080359060200190929190803590602001909291905050506116bb565b6040518082815260200191505060405180910390f35b6108626004803603602081101561084c57600080fd5b81019080803590602001909291905050506116f0565b6040518082815260200191505060405180910390f35b6109c86004803603604081101561088e57600080fd5b81019080803590602001906401000000008111156108ab57600080fd5b8201836020820111156108bd57600080fd5b803590602001918460018302840111640100000000831117156108df57600080fd5b91908080601f016020809104026020016040519081016040528093929190818152602001838380828437600081840152601f19601f8201169050808301925050505050505091929192908035906020019064010000000081111561094257600080fd5b82018360208201111561095457600080fd5b8035906020019184600183028401116401000000008311171561097657600080fd5b91908080601f016020809104026020016040519081016040528093929190818152602001838380828437600081840152601f19601f820116905080830192505050505050509192919290505050611724565b604051808215151515815260200191505060405180910390f35b6109ea61198f565b005b610a1860048036036020811015610a0257600080fd5b81019080803590602001909291905050506119a3565b6040518082815260200191505060405180910390f35b610a366119d7565b6040518082815260200191505060405180910390f35b610a8260048036036040811015610a6257600080fd5b8101908080359060200190929190803590602001909291905050506119e4565b005b610ab060048036036020811015610a9a57600080fd5b8101908080359060200190929190505050611b72565b6040518080602001828103825283818151815260200191508051906020019080838360005b83811015610af0578082015181840152602081019050610ad5565b50505050905090810190601f168015610b1d5780820380516001836020036101000a031916815260200191505b509250505060405180910390f35b610be460048036036020811015610b4157600080fd5b8101908080359060200190640100000000811115610b5e57600080fd5b820183602082011115610b7057600080fd5b80359060200191846001830284011164010000000083111715610b9257600080fd5b91908080601f016020809104026020016040519081016040528093929190818152602001838380828437600081840152601f19601f820116905080830192505050505050509192919290505050611c3e565b6040518082815260200191505060405180910390f35b610c3060048036036040811015610c1057600080fd5b810190808035906020019092919080359060200190929190505050611d8d565b005b610c5e60048036036020811015610c4857600080fd5b8101908080359060200190929190505050611e9a565b005b610c9660048036036040811015610c7657600080fd5b810190808035906020019092919080359060200190929190505050611ec0565b6040518082815260200191505060405180910390f35b610cd860048036036020811015610cc257600080fd5b8101908080359060200190929190505050611ef5565b6040518080602001828103825283818151815260200191508051906020019080838360005b83811015610d18578082015181840152602081019050610cfd565b50505050905090810190601f168015610d455780820380516001836020036101000a031916815260200191505b509250505060405180910390f35b610d8960048036036040811015610d6957600080fd5b810190808035906020019092919080359060200190929190505050611fc1565b6040518082815260200191505060405180910390f35b60008054600181600116156101000203166002900480601f016020809104026020016040519081016040528092919081815260200182805460018160011615610100020316600290048015610e355780601f10610e0a57610100808354040283529160200191610e35565b820191906000526020600020905b815481529060010190602001808311610e1857829003601f168201915b505050505081565b6000806000905060008090505b6001548110156111d357836040516020018082805190602001908083835b60208310610e8b5780518252602082019150602081019050602083039250610e68565b6001836020036101000a038019825116818451168082178552505050505050905001915050604051602081830303815290604052805190602001206002600083815260200190815260200160002060008081526020019081526020016000206001016040516020018082805460018160011615610100020316600290048015610f4b5780601f10610f29576101008083540402835291820191610f4b565b820191906000526020600020905b815481529060010190602001808311610f37575b5050915050604051602081830303815290604052805190602001201415610fcd576000600260008381526020019081526020016000206000808152602001908152602001600020600401549050614e20811115610fc45761c350811115610fb85760069250829250610fbf565b6003830192505b610fcb565b6001830192505b505b836040516020018082805190602001908083835b602083106110045780518252602082019150602081019050602083039250610fe1565b6001836020036101000a0380198251168184511680821785525050505050509050019150506040516020818303038152906040528051906020012060026000838152602001908152602001600020600080815260200190815260200160002060020160405160200180828054600181600116156101000203166002900480156110c45780601f106110a25761010080835404028352918201916110c4565b820191906000526020600020905b8154815290600101906020018083116110b0575b50509150506040516020818303038152906040528051906020012014156111c65781806001019250506000600360008381526020019081526020016000205490506000600190505b600182018110156111c35760006002600085815260200190815260200160002060008381526020019081526020016000206006015490506000600260008681526020019081526020016000206000848152602001908152602001600020600701549050600061117b82846115e6565b905060008113156111b357606481126111a257600a818161119857fe5b05870396506111b2565b600381816111ac57fe5b05870396505b5b505050808060010191505061110c565b50505b8080600101915050610e4a565b5080915050919050565b6000600260008381526020019081526020016000206000808152602001908152602001600020600401549050809050919050565b600060026000848152602001908152602001600020600083815260200190815260200160002060090154905080905092915050565b60015481565b600260205281600052604060002060205280600052604060002060009150915050806000015490806001018054600181600116156101000203166002900480601f01602080910402602001604051908101604052809291908181526020018280546001816001161561010002031660029004801561130b5780601f106112e05761010080835404028352916020019161130b565b820191906000526020600020905b8154815290600101906020018083116112ee57829003601f168201915b505050505090806002018054600181600116156101000203166002900480601f0160208091040260200160405190810160405280929190818152602001828054600181600116156101000203166002900480156113a95780601f1061137e576101008083540402835291602001916113a9565b820191906000526020600020905b81548152906001019060200180831161138c57829003601f168201915b50505050509080600301549080600401549080600501549080600601549080600701549080600801549080600901549080600a0160009054906101000a900460ff1690508b565b60036020528060005260406000206000915090505481565b81600260006001548152602001908152602001600020600080815260200190815260200160002060060181905550806002600060015481526020019081526020016000206000808152602001908152602001600020600001819055505050565b826002600060015481526020019081526020016000206000808152602001908152602001600020600301819055508160026000600154815260200190815260200160002060008081526020019081526020016000206005018190555080600260006001548152602001908152602001600020600080815260200190815260200160002060040181905550505050565b8160026000600154815260200190815260200160002060008081526020019081526020016000206002019080519060200190611534929190611ff6565b508060026000600154815260200190815260200160002060008081526020019081526020016000206001019080519060200190611572929190611ff6565b506000600360006001548152602001908152602001600020819055505050565b6000600260008381526020019081526020016000206000808152602001908152602001600020600001549050809050919050565b600060036000838152602001908152602001600020549050809050919050565b60008061271084816115f457fe5b05905060006064612710830286038161160957fe5b059050600060648202612710840287030390506000612710868161162957fe5b05905060006064612710830288038161163e57fe5b05905060006064820261271084028903039050600086840390506000868403905060008684039050600081121561167f57818060019003925050601e810190505b600082121561169857828060019003935050600c820191505b60008160648402612710860201019050809a505050505050505050505092915050565b600060026000848152602001908152602001600020600083815260200190815260200160002060070154905080905092915050565b6000600260008381526020019081526020016000206000808152602001908152602001600020600501549050809050919050565b6000806000905060008090505b60015481101561198457846040516020018082805190602001908083835b60208310611772578051825260208201915060208101905060208303925061174f565b6001836020036101000a0380198251168184511680821785525050505050509050019150506040516020818303038152906040528051906020012060026000838152602001908152602001600020600080815260200190815260200160002060010160405160200180828054600181600116156101000203166002900480156118325780601f10611810576101008083540402835291820191611832565b820191906000526020600020905b81548152906001019060200180831161181e575b5050915050604051602081830303815290604052805190602001201480156119695750836040516020018082805190602001908083835b6020831061188c5780518252602082019150602081019050602083039250611869565b6001836020036101000a03801982511681845116808217855250505050505090500191505060405160208183030381529060405280519060200120600260008381526020019081526020016000206000808152602001908152602001600020600201604051602001808280546001816001161561010002031660029004801561194c5780601f1061192a57610100808354040283529182019161194c565b820191906000526020600020905b815481529060010190602001808311611938575b505091505060405160208183030381529060405280519060200120145b156119775760019150611984565b8080600101915050611731565b508091505092915050565b600160008154809291906001019190505550565b6000600260008381526020019081526020016000206000808152602001908152602001600020600301549050809050919050565b6000600154905080905090565b6000600360008481526020019081526020016000205490506000811415611abb57816002600085815260200190815260200160002060008081526020019081526020016000206004015403600260008581526020019081526020016000206000600184018152602001908152602001600020600901819055506001600260008581526020019081526020016000206000808152602001908152602001600020600501540360026000858152602001908152602001600020600060018401815260200190815260200160002060080181905550611b6d565b8160026000858152602001908152602001600020600083815260200190815260200160002060090154036002600085815260200190815260200160002060006001840181526020019081526020016000206009018190555060016002600085815260200190815260200160002060008381526020019081526020016000206008015403600260008581526020019081526020016000206000600184018152602001908152602001600020600801819055505b505050565b60606002600083815260200190815260200160002060008081526020019081526020016000206002018054600181600116156101000203166002900480601f016020809104026020016040519081016040528092919081815260200182805460018160011615610100020316600290048015611c2f5780601f10611c0457610100808354040283529160200191611c2f565b820191906000526020600020905b815481529060010190602001808311611c1257829003601f168201915b50505050509050809050919050565b6000806000905060008090505b600154811015611d8357836040516020018082805190602001908083835b60208310611c8c5780518252602082019150602081019050602083039250611c69565b6001836020036101000a038019825116818451168082178552505050505050905001915050604051602081830303815290604052805190602001206002600083815260200190815260200160002060008081526020019081526020016000206001016040516020018082805460018160011615610100020316600290048015611d4c5780601f10611d2a576101008083540402835291820191611d4c565b820191906000526020600020905b815481529060010190602001808311611d38575b5050915050604051602081830303815290604052805190602001201415611d765781806001019250505b8080600101915050611c4b565b5080915050919050565b60006003600084815260200190815260200160002054905081600260008581526020019081526020016000206000600184018152602001908152602001600020600601819055506000811415611e3b576064600260008581526020019081526020016000206000808152602001908152602001600020600601540160026000858152602001908152602001600020600060018401815260200190815260200160002060070181905550611e95565b60646002600085815260200190815260200160002060008381526020019081526020016000206007015401600260008581526020019081526020016000206000600184018152602001908152602001600020600701819055505b505050565b600360008281526020019081526020016000206000815480929190600101919050555050565b600060026000848152602001908152602001600020600083815260200190815260200160002060080154905080905092915050565b60606002600083815260200190815260200160002060008081526020019081526020016000206001018054600181600116156101000203166002900480601f016020809104026020016040519081016040528092919081815260200182805460018160011615610100020316600290048015611fb25780601f10611f8757610100808354040283529160200191611fb2565b820191906000526020600020905b815481529060010190602001808311611f9557829003601f168201915b50505050509050809050919050565b600060026000848152602001908152602001600020600083815260200190815260200160002060060154905080905092915050565b828054600181600116156101000203166002900490600052602060002090601f016020900481019282601f1061203757805160ff1916838001178555612065565b82800160010185558215612065579182015b82811115612064578251825591602001919060010190612049565b5b5090506120729190612076565b5090565b61209891905b8082111561209457600081600090555060010161207c565b5090565b9056fea265627a7a7231582013eb8ce1cccc7005dfc7b284f7072aae997025aec2f7666ca61164163cce197964736f6c63430005100032",
  "source": "pragma solidity >=0.4.21 <0.7.0;\n\ncontract Contract {\n\n  string public name;\n  uint public contract_count = 0;\n\n  struct Contract_user {\n    uint id;\n    string preteur;\n    string emprunteur;\n    uint taux;\n    uint montant_total;\n    uint echeance_totale;\n    int date_reelle;\n    int date_theorique;\n    uint echeance_restante;\n    uint montant_restant;\n    bool status;\n  }\n\n  mapping(uint => mapping(uint => Contract_user)) public contract_users;\n  mapping(uint => uint) public nombre_transaction;\n\n  constructor() public{\n    name = \"Contrat Entre Particuliers\";\n     }\n\n\n     function increaseContract() public{\n     contract_count++;\n     }\n\n  function createContract1(uint _taux,\n  uint _echeance_totale,uint _montant_total) public{\n    contract_users[contract_count][0].taux = _taux;\n    contract_users[contract_count][0].echeance_totale = _echeance_totale;\n    contract_users[contract_count][0].montant_total = _montant_total;\n  }\n\n  function createContract2(string memory _emprunteur,\n  string memory _preteur) public{\n    contract_users[contract_count][0].emprunteur = _emprunteur;\n    contract_users[contract_count][0].preteur = _preteur;\n    nombre_transaction[contract_count] = 0;\n  }\n\n  function createContract3(int _date_reelle,uint _id) public{\n    contract_users[contract_count][0].date_reelle = _date_reelle;\n    contract_users[contract_count][0].id = _id;\n  }\n\n  function increaseTrans(uint _id) public{\n    nombre_transaction[_id]++;\n  }\n\n  function transaction1(uint _id,uint _somme) public{\n        uint numero_transaction = nombre_transaction[_id];\n        if (numero_transaction==0){\n          contract_users[_id][numero_transaction+1].montant_restant = contract_users[_id][0].montant_total - _somme;\n          contract_users[_id][numero_transaction+1].echeance_restante = contract_users[_id][0].echeance_totale - 1;\n        }\n        else{\n        contract_users[_id][numero_transaction+1].montant_restant = contract_users[_id][numero_transaction].montant_restant - _somme;\n        contract_users[_id][numero_transaction+1].echeance_restante = contract_users[_id][numero_transaction].echeance_restante - 1;\n        }\n  }\n\n  function transaction2(uint _id,int _date_reelle) public{\n        uint numero_transaction = nombre_transaction[_id];\n        contract_users[_id][numero_transaction+1].date_reelle = _date_reelle;\n        if (numero_transaction ==0){\n          contract_users[_id][numero_transaction+1].date_theorique = contract_users[_id][0].date_reelle + 100;\n        }\n        else{\n        contract_users[_id][numero_transaction+1].date_theorique = contract_users[_id][numero_transaction].date_theorique + 100;\n        }\n  }\n\n\n  function getCount() public view returns (uint _count){\n    _count = contract_count;\n    return _count;\n  }\n\n  function getNb_transaction(uint numero_contrat) public view returns (uint _nombre_transaction){\n    _nombre_transaction = nombre_transaction[numero_contrat];\n    return _nombre_transaction;\n  }\n\n  function getTaux(uint numero_contrat) public view returns (uint _taux){\n    _taux = contract_users[numero_contrat][0].taux;\n    return _taux;\n  }\n\n  function getId(uint numero_contrat) public view returns (uint _id){\n    _id = contract_users[numero_contrat][0].id;\n    return _id;\n  }\n\n  function getEcheance_totale(uint numero_contrat) public view returns (uint _echeance_totale){\n    _echeance_totale = contract_users[numero_contrat][0].echeance_totale;\n    return _echeance_totale;\n  }\n\n  function getMontant_total(uint numero_contrat) public view returns (uint _montant_total){\n    _montant_total = contract_users[numero_contrat][0].montant_total;\n    return _montant_total;\n  }\n\n  function getEmprunteur(uint numero_contrat) public view returns (string memory _emprunteur){\n    _emprunteur = contract_users[numero_contrat][0].emprunteur;\n    return _emprunteur;\n  }\n\n  function getPreteur(uint numero_contrat) public view returns (string memory _preteur){\n    _preteur = contract_users[numero_contrat][0].preteur;\n    return _preteur;\n  }\n\n  function getDate_reelle(uint numero_contrat, uint numero_transaction) public view returns (int _date_reelle){\n    _date_reelle = contract_users[numero_contrat][numero_transaction].date_reelle;\n    return _date_reelle;\n  }\n\n  function getDate_theorique(uint numero_contrat, uint numero_transaction) public view returns (int _date_theorique){\n    _date_theorique = contract_users[numero_contrat][numero_transaction].date_theorique;\n    return _date_theorique;\n  }\n\n  function getEcheance_restante(uint numero_contrat, uint numero_transaction) public view returns (uint _echeance_restante){\n    _echeance_restante = contract_users[numero_contrat][numero_transaction].echeance_restante;\n    return _echeance_restante;\n  }\n\n  function getMontant_restant(uint numero_contrat, uint numero_transaction) public view returns (uint _montant_restant){\n    _montant_restant = contract_users[numero_contrat][numero_transaction].montant_restant;\n    return _montant_restant;\n  }\n\n  function existContract (string memory _preteur,\n  string memory _emprunteur) public view returns (bool) {\n    bool exist = false;\n    for (uint p = 0; p<contract_count; p++){\n      if ((keccak256(abi.encodePacked((contract_users[p][0].preteur))) == keccak256(abi.encodePacked((_preteur))))&&(keccak256(abi.encodePacked((contract_users[p][0].emprunteur))) == keccak256(abi.encodePacked((_emprunteur))))){\n        exist = true;\n        break;\n      }\n    }\n    return exist;\n  }\n\n\nfunction nbprets(string memory user) public view returns (uint){\n    uint nb_prets = 0;\n    for (uint p = 0; p<contract_count; p++){\n      if (keccak256(abi.encodePacked((contract_users[p][0].preteur))) == keccak256(abi.encodePacked((user))))\n        nb_prets++;\n    }\n    return nb_prets;\n}\n\nfunction diff_date(int date1, int date2) public view returns (int) {\n  int annee1 = date1/10000;\n  int mois1 = (date1 - (annee1 * 10000)) / 100;\n  int jour1 = date1 - (annee1 * 10000) - (mois1 * 100);\n  int annee2 = date2/10000;\n  int mois2 = (date2 - (annee2 * 10000)) / 100;\n  int jour2 = date2 - (annee2 * 10000) - (mois2 * 100);\n  int diff_annee = annee2 - annee1;\n  int diff_mois = mois2 - mois1;\n  int diff_jour = jour2 - jour1;\n  if (diff_jour <0){\n    diff_mois--;\n    diff_jour = diff_jour + 30;\n    }\n  if (diff_mois <0){\n    diff_annee--;\n    diff_mois = diff_mois + 12;\n  }\n  int res = diff_annee*10000  + diff_mois*100 + diff_jour;\n  return res;\n}\n\nfunction reputation(string memory user) public view returns(int){\n  int reput = 0;\n  for (uint i = 0; i<contract_count; i++){\n    if (keccak256(abi.encodePacked((contract_users[i][0].preteur))) == keccak256(abi.encodePacked((user)))){\n      uint montant = contract_users[i][0].montant_total;\n      if (montant > 20000){\n        if (montant > 50000){\n          reput = reput = 6;\n        }\n        else{\n        reput = reput + 3;\n        }\n      }\n      else{\n        reput = reput + 1;\n      }\n    }\n    if (keccak256(abi.encodePacked((contract_users[i][0].emprunteur))) == keccak256(abi.encodePacked((user)))){\n      reput ++;\n      uint transactions = nombre_transaction[i];\n      for (uint j=1; j<transactions+1; j++){\n        int date_r = contract_users[i][j].date_reelle;\n        int date_t = contract_users[i][j].date_theorique;\n        int diff = diff_date(date_t,date_r);\n        if (diff>0){\n          if (diff>=100){\n            reput = reput - diff/10;\n          }\n          else{\n            reput = reput - diff/3;\n          }\n        }\n      }\n    }\n  }\n  return reput;\n}\n\n}\n",
  "sourcePath": "/home/maxim/Documents/Bank/Bankeirble/blockchain/contracts/Contract.sol",
  "compiler": {
    "name": "solc",
    "version": "0.5.16+commit.9c3226ce.Emscripten.clang"
  },
  "schemaVersion": "3.0.23",
  "updatedAt": "2020-03-31T12:20:42.325Z",
  "networkType": "ethereum",
  "devdoc": {
    "methods": {}
  },
  "userdoc": {
    "methods": {}
  }
}