{
  "contractName": "Contract",
  "abi": [
    {
      "inputs": [],
      "payable": false,
      "stateMutability": "nonpayable",
      "type": "constructor"
    },
    {
      "constant": true,
      "inputs": [],
      "name": "contract_count",
      "outputs": [
        {
          "internalType": "uint256",
          "name": "",
          "type": "uint256"
        }
      ],
      "payable": false,
      "stateMutability": "view",
      "type": "function"
    },
    {
      "constant": true,
      "inputs": [
        {
          "internalType": "uint256",
          "name": "",
          "type": "uint256"
        },
        {
          "internalType": "uint256",
          "name": "",
          "type": "uint256"
        }
      ],
      "name": "contract_users",
      "outputs": [
        {
          "internalType": "uint256",
          "name": "id",
          "type": "uint256"
        },
        {
          "internalType": "string",
          "name": "preteur",
          "type": "string"
        },
        {
          "internalType": "string",
          "name": "emprunteur",
          "type": "string"
        },
        {
          "internalType": "uint256",
          "name": "taux",
          "type": "uint256"
        },
        {
          "internalType": "uint256",
          "name": "montant_total",
          "type": "uint256"
        },
        {
          "internalType": "uint256",
          "name": "echeance_totale",
          "type": "uint256"
        },
        {
          "internalType": "uint256",
          "name": "date_reelle",
          "type": "uint256"
        },
        {
          "internalType": "uint256",
          "name": "date_theorique",
          "type": "uint256"
        },
        {
          "internalType": "uint256",
          "name": "echeance_restante",
          "type": "uint256"
        },
        {
          "internalType": "uint256",
          "name": "montant_restant",
          "type": "uint256"
        },
        {
          "internalType": "bool",
          "name": "status",
          "type": "bool"
        }
      ],
      "payable": false,
      "stateMutability": "view",
      "type": "function"
    },
    {
      "constant": true,
      "inputs": [],
      "name": "name",
      "outputs": [
        {
          "internalType": "string",
          "name": "",
          "type": "string"
        }
      ],
      "payable": false,
      "stateMutability": "view",
      "type": "function"
    },
    {
      "constant": true,
      "inputs": [
        {
          "internalType": "uint256",
          "name": "",
          "type": "uint256"
        }
      ],
      "name": "nombre_transaction",
      "outputs": [
        {
          "internalType": "uint256",
          "name": "",
          "type": "uint256"
        }
      ],
      "payable": false,
      "stateMutability": "view",
      "type": "function"
    },
    {
      "constant": false,
      "inputs": [],
      "name": "increaseContract",
      "outputs": [],
      "payable": false,
      "stateMutability": "nonpayable",
      "type": "function"
    },
    {
      "constant": false,
      "inputs": [
        {
          "internalType": "uint256",
          "name": "_taux",
          "type": "uint256"
        },
        {
          "internalType": "uint256",
          "name": "_echeance_totale",
          "type": "uint256"
        },
        {
          "internalType": "uint256",
          "name": "_montant_total",
          "type": "uint256"
        }
      ],
      "name": "createContract1",
      "outputs": [],
      "payable": false,
      "stateMutability": "nonpayable",
      "type": "function"
    },
    {
      "constant": false,
      "inputs": [
        {
          "internalType": "string",
          "name": "_emprunteur",
          "type": "string"
        },
        {
          "internalType": "string",
          "name": "_preteur",
          "type": "string"
        }
      ],
      "name": "createContract2",
      "outputs": [],
      "payable": false,
      "stateMutability": "nonpayable",
      "type": "function"
    },
    {
      "constant": false,
      "inputs": [
        {
          "internalType": "uint256",
          "name": "_date_reelle",
          "type": "uint256"
        },
        {
          "internalType": "uint256",
          "name": "_id",
          "type": "uint256"
        }
      ],
      "name": "createContract3",
      "outputs": [],
      "payable": false,
      "stateMutability": "nonpayable",
      "type": "function"
    },
    {
      "constant": false,
      "inputs": [
        {
          "internalType": "uint256",
          "name": "_id",
          "type": "uint256"
        }
      ],
      "name": "increaseTrans",
      "outputs": [],
      "payable": false,
      "stateMutability": "nonpayable",
      "type": "function"
    },
    {
      "constant": false,
      "inputs": [
        {
          "internalType": "uint256",
          "name": "_id",
          "type": "uint256"
        },
        {
          "internalType": "uint256",
          "name": "_somme",
          "type": "uint256"
        }
      ],
      "name": "transaction1",
      "outputs": [],
      "payable": false,
      "stateMutability": "nonpayable",
      "type": "function"
    },
    {
      "constant": false,
      "inputs": [
        {
          "internalType": "uint256",
          "name": "_id",
          "type": "uint256"
        },
        {
          "internalType": "uint256",
          "name": "_date_reelle",
          "type": "uint256"
        }
      ],
      "name": "transaction2",
      "outputs": [],
      "payable": false,
      "stateMutability": "nonpayable",
      "type": "function"
    },
    {
      "constant": true,
      "inputs": [],
      "name": "getCount",
      "outputs": [
        {
          "internalType": "uint256",
          "name": "_count",
          "type": "uint256"
        }
      ],
      "payable": false,
      "stateMutability": "view",
      "type": "function"
    },
    {
      "constant": true,
      "inputs": [
        {
          "internalType": "uint256",
          "name": "numero_contrat",
          "type": "uint256"
        }
      ],
      "name": "getNb_transaction",
      "outputs": [
        {
          "internalType": "uint256",
          "name": "_nombre_transaction",
          "type": "uint256"
        }
      ],
      "payable": false,
      "stateMutability": "view",
      "type": "function"
    },
    {
      "constant": true,
      "inputs": [
        {
          "internalType": "uint256",
          "name": "numero_contrat",
          "type": "uint256"
        }
      ],
      "name": "getTaux",
      "outputs": [
        {
          "internalType": "uint256",
          "name": "_taux",
          "type": "uint256"
        }
      ],
      "payable": false,
      "stateMutability": "view",
      "type": "function"
    },
    {
      "constant": true,
      "inputs": [
        {
          "internalType": "uint256",
          "name": "numero_contrat",
          "type": "uint256"
        }
      ],
      "name": "getId",
      "outputs": [
        {
          "internalType": "uint256",
          "name": "_id",
          "type": "uint256"
        }
      ],
      "payable": false,
      "stateMutability": "view",
      "type": "function"
    },
    {
      "constant": true,
      "inputs": [
        {
          "internalType": "uint256",
          "name": "numero_contrat",
          "type": "uint256"
        }
      ],
      "name": "getEcheance_totale",
      "outputs": [
        {
          "internalType": "uint256",
          "name": "_echeance_totale",
          "type": "uint256"
        }
      ],
      "payable": false,
      "stateMutability": "view",
      "type": "function"
    },
    {
      "constant": true,
      "inputs": [
        {
          "internalType": "uint256",
          "name": "numero_contrat",
          "type": "uint256"
        }
      ],
      "name": "getMontant_total",
      "outputs": [
        {
          "internalType": "uint256",
          "name": "_montant_total",
          "type": "uint256"
        }
      ],
      "payable": false,
      "stateMutability": "view",
      "type": "function"
    },
    {
      "constant": true,
      "inputs": [
        {
          "internalType": "uint256",
          "name": "numero_contrat",
          "type": "uint256"
        }
      ],
      "name": "getEmprunteur",
      "outputs": [
        {
          "internalType": "string",
          "name": "_emprunteur",
          "type": "string"
        }
      ],
      "payable": false,
      "stateMutability": "view",
      "type": "function"
    },
    {
      "constant": true,
      "inputs": [
        {
          "internalType": "uint256",
          "name": "numero_contrat",
          "type": "uint256"
        }
      ],
      "name": "getPreteur",
      "outputs": [
        {
          "internalType": "string",
          "name": "_preteur",
          "type": "string"
        }
      ],
      "payable": false,
      "stateMutability": "view",
      "type": "function"
    },
    {
      "constant": true,
      "inputs": [
        {
          "internalType": "uint256",
          "name": "numero_contrat",
          "type": "uint256"
        },
        {
          "internalType": "uint256",
          "name": "numero_transaction",
          "type": "uint256"
        }
      ],
      "name": "getDate_reelle",
      "outputs": [
        {
          "internalType": "uint256",
          "name": "_date_reelle",
          "type": "uint256"
        }
      ],
      "payable": false,
      "stateMutability": "view",
      "type": "function"
    },
    {
      "constant": true,
      "inputs": [
        {
          "internalType": "uint256",
          "name": "numero_contrat",
          "type": "uint256"
        },
        {
          "internalType": "uint256",
          "name": "numero_transaction",
          "type": "uint256"
        }
      ],
      "name": "getDate_theorique",
      "outputs": [
        {
          "internalType": "uint256",
          "name": "_date_theorique",
          "type": "uint256"
        }
      ],
      "payable": false,
      "stateMutability": "view",
      "type": "function"
    },
    {
      "constant": true,
      "inputs": [
        {
          "internalType": "uint256",
          "name": "numero_contrat",
          "type": "uint256"
        },
        {
          "internalType": "uint256",
          "name": "numero_transaction",
          "type": "uint256"
        }
      ],
      "name": "getEcheance_restante",
      "outputs": [
        {
          "internalType": "uint256",
          "name": "_echeance_restante",
          "type": "uint256"
        }
      ],
      "payable": false,
      "stateMutability": "view",
      "type": "function"
    },
    {
      "constant": true,
      "inputs": [
        {
          "internalType": "uint256",
          "name": "numero_contrat",
          "type": "uint256"
        },
        {
          "internalType": "uint256",
          "name": "numero_transaction",
          "type": "uint256"
        }
      ],
      "name": "getMontant_restant",
      "outputs": [
        {
          "internalType": "uint256",
          "name": "_montant_restant",
          "type": "uint256"
        }
      ],
      "payable": false,
      "stateMutability": "view",
      "type": "function"
    },
    {
      "constant": true,
      "inputs": [
        {
          "internalType": "string",
          "name": "_preteur",
          "type": "string"
        },
        {
          "internalType": "string",
          "name": "_emprunteur",
          "type": "string"
        }
      ],
      "name": "existContract",
      "outputs": [
        {
          "internalType": "bool",
          "name": "",
          "type": "bool"
        }
      ],
      "payable": false,
      "stateMutability": "view",
      "type": "function"
    },
    {
      "constant": true,
      "inputs": [
        {
          "internalType": "string",
          "name": "user",
          "type": "string"
        }
      ],
      "name": "nbprets",
      "outputs": [
        {
          "internalType": "uint256",
          "name": "",
          "type": "uint256"
        }
      ],
      "payable": false,
      "stateMutability": "view",
      "type": "function"
    },
    {
      "constant": true,
      "inputs": [
        {
          "internalType": "int256",
          "name": "date1",
          "type": "int256"
        },
        {
          "internalType": "int256",
          "name": "date2",
          "type": "int256"
        }
      ],
      "name": "diff_date",
      "outputs": [
        {
          "internalType": "int256",
          "name": "",
          "type": "int256"
        }
      ],
      "payable": false,
      "stateMutability": "view",
      "type": "function"
    }
  ],
  "bytecode": "0x608060405260006001553480156200001657600080fd5b506040518060400160405280601a81526020017f436f6e7472617420456e74726520506172746963756c6965727300000000000081525060009080519060200190620000649291906200006b565b506200011a565b828054600181600116156101000203166002900490600052602060002090601f016020900481019282601f10620000ae57805160ff1916838001178555620000df565b82800160010185558215620000df579182015b82811115620000de578251825591602001919060010190620000c1565b5b509050620000ee9190620000f2565b5090565b6200011791905b8082111562000113576000816000905550600101620000f9565b5090565b90565b611c46806200012a6000396000f3fe608060405234801561001057600080fd5b506004361061018e5760003560e01c80639748e0a8116100de578063bbba35a411610097578063e3ddf83411610071578063e3ddf83414610b48578063ec26f7f814610b76578063f0fc041c14610bc2578063f86ce46314610c695761018e565b8063bbba35a41461099a578063d001773b146109d2578063d929aac214610a795761018e565b80639748e0a81461074c5780639a6b26891461078e5780639d7625e5146108f8578063a096d25a14610902578063a87d942c14610944578063b2bb728e146109625761018e565b80633878f3e81161014b578063545a153a11610125578063545a153a14610630578063619ea1fe146106725780636bd5f920146106b457806388be11d9146107005761018e565b80633878f3e81461045a5780634635b9b21461049c57806351f99693146104de5761018e565b806306fdde031461019357806317bb4d55146102165780632c504c57146102585780632f96119d146102905780633227e860146102dc57806335680aa3146102fa575b600080fd5b61019b610cb5565b6040518080602001828103825283818151815260200191508051906020019080838360005b838110156101db5780820151818401526020810190506101c0565b50505050905090810190601f1680156102085780820380516001836020036101000a031916815260200191505b509250505060405180910390f35b6102426004803603602081101561022c57600080fd5b8101908080359060200190929190505050610d53565b6040518082815260200191505060405180910390f35b61028e6004803603604081101561026e57600080fd5b810190808035906020019092919080359060200190929190505050610d87565b005b6102c6600480360360408110156102a657600080fd5b810190808035906020019092919080359060200190929190505050610de7565b6040518082815260200191505060405180910390f35b6102e4610e1c565b6040518082815260200191505060405180910390f35b6103306004803603604081101561031057600080fd5b810190808035906020019092919080359060200190929190505050610e22565b604051808c815260200180602001806020018b81526020018a81526020018981526020018881526020018781526020018681526020018581526020018415151515815260200183810383528d818151815260200191508051906020019080838360005b838110156103ae578082015181840152602081019050610393565b50505050905090810190601f1680156103db5780820380516001836020036101000a031916815260200191505b5083810382528c818151815260200191508051906020019080838360005b838110156104145780820151818401526020810190506103f9565b50505050905090810190601f1680156104415780820380516001836020036101000a031916815260200191505b509d505050505050505050505050505060405180910390f35b6104866004803603602081101561047057600080fd5b8101908080359060200190929190505050610fc6565b6040518082815260200191505060405180910390f35b6104dc600480360360608110156104b257600080fd5b81019080803590602001909291908035906020019092919080359060200190929190505050610fde565b005b61062e600480360360408110156104f457600080fd5b810190808035906020019064010000000081111561051157600080fd5b82018360208201111561052357600080fd5b8035906020019184600183028401116401000000008311171561054557600080fd5b91908080601f016020809104026020016040519081016040528093929190818152602001838380828437600081840152601f19601f820116905080830192505050505050509192919290803590602001906401000000008111156105a857600080fd5b8201836020820111156105ba57600080fd5b803590602001918460018302840111640100000000831117156105dc57600080fd5b91908080601f016020809104026020016040519081016040528093929190818152602001838380828437600081840152601f19601f82011690508083019250505050505050919291929050505061106d565b005b61065c6004803603602081101561064657600080fd5b8101908080359060200190929190505050611108565b6040518082815260200191505060405180910390f35b61069e6004803603602081101561068857600080fd5b810190808035906020019092919050505061113c565b6040518082815260200191505060405180910390f35b6106ea600480360360408110156106ca57600080fd5b81019080803590602001909291908035906020019092919050505061115c565b6040518082815260200191505060405180910390f35b6107366004803603604081101561071657600080fd5b810190808035906020019092919080359060200190929190505050611231565b6040518082815260200191505060405180910390f35b6107786004803603602081101561076257600080fd5b8101908080359060200190929190505050611266565b6040518082815260200191505060405180910390f35b6108de600480360360408110156107a457600080fd5b81019080803590602001906401000000008111156107c157600080fd5b8201836020820111156107d357600080fd5b803590602001918460018302840111640100000000831117156107f557600080fd5b91908080601f016020809104026020016040519081016040528093929190818152602001838380828437600081840152601f19601f8201169050808301925050505050505091929192908035906020019064010000000081111561085857600080fd5b82018360208201111561086a57600080fd5b8035906020019184600183028401116401000000008311171561088c57600080fd5b91908080601f016020809104026020016040519081016040528093929190818152602001838380828437600081840152601f19601f82011690508083019250505050505050919291929050505061129a565b604051808215151515815260200191505060405180910390f35b610900611505565b005b61092e6004803603602081101561091857600080fd5b8101908080359060200190929190505050611519565b6040518082815260200191505060405180910390f35b61094c61154d565b6040518082815260200191505060405180910390f35b6109986004803603604081101561097857600080fd5b81019080803590602001909291908035906020019092919050505061155a565b005b6109d0600480360360408110156109b057600080fd5b8101908080359060200190929190803590602001909291905050506116e8565b005b6109fe600480360360208110156109e857600080fd5b81019080803590602001909291905050506117f5565b6040518080602001828103825283818151815260200191508051906020019080838360005b83811015610a3e578082015181840152602081019050610a23565b50505050905090810190601f168015610a6b5780820380516001836020036101000a031916815260200191505b509250505060405180910390f35b610b3260048036036020811015610a8f57600080fd5b8101908080359060200190640100000000811115610aac57600080fd5b820183602082011115610abe57600080fd5b80359060200191846001830284011164010000000083111715610ae057600080fd5b91908080601f016020809104026020016040519081016040528093929190818152602001838380828437600081840152601f19601f8201169050808301925050505050505091929192905050506118c1565b6040518082815260200191505060405180910390f35b610b7460048036036020811015610b5e57600080fd5b8101908080359060200190929190505050611a10565b005b610bac60048036036040811015610b8c57600080fd5b810190808035906020019092919080359060200190929190505050611a36565b6040518082815260200191505060405180910390f35b610bee60048036036020811015610bd857600080fd5b8101908080359060200190929190505050611a6b565b6040518080602001828103825283818151815260200191508051906020019080838360005b83811015610c2e578082015181840152602081019050610c13565b50505050905090810190601f168015610c5b5780820380516001836020036101000a031916815260200191505b509250505060405180910390f35b610c9f60048036036040811015610c7f57600080fd5b810190808035906020019092919080359060200190929190505050611b37565b6040518082815260200191505060405180910390f35b60008054600181600116156101000203166002900480601f016020809104026020016040519081016040528092919081815260200182805460018160011615610100020316600290048015610d4b5780601f10610d2057610100808354040283529160200191610d4b565b820191906000526020600020905b815481529060010190602001808311610d2e57829003601f168201915b505050505081565b6000600260008381526020019081526020016000206000808152602001908152602001600020600401549050809050919050565b81600260006001548152602001908152602001600020600080815260200190815260200160002060060181905550806002600060015481526020019081526020016000206000808152602001908152602001600020600001819055505050565b600060026000848152602001908152602001600020600083815260200190815260200160002060090154905080905092915050565b60015481565b600260205281600052604060002060205280600052604060002060009150915050806000015490806001018054600181600116156101000203166002900480601f016020809104026020016040519081016040528092919081815260200182805460018160011615610100020316600290048015610ee15780601f10610eb657610100808354040283529160200191610ee1565b820191906000526020600020905b815481529060010190602001808311610ec457829003601f168201915b505050505090806002018054600181600116156101000203166002900480601f016020809104026020016040519081016040528092919081815260200182805460018160011615610100020316600290048015610f7f5780601f10610f5457610100808354040283529160200191610f7f565b820191906000526020600020905b815481529060010190602001808311610f6257829003601f168201915b50505050509080600301549080600401549080600501549080600601549080600701549080600801549080600901549080600a0160009054906101000a900460ff1690508b565b60036020528060005260406000206000915090505481565b826002600060015481526020019081526020016000206000808152602001908152602001600020600301819055508160026000600154815260200190815260200160002060008081526020019081526020016000206005018190555080600260006001548152602001908152602001600020600080815260200190815260200160002060040181905550505050565b81600260006001548152602001908152602001600020600080815260200190815260200160002060020190805190602001906110aa929190611b6c565b5080600260006001548152602001908152602001600020600080815260200190815260200160002060010190805190602001906110e8929190611b6c565b506000600360006001548152602001908152602001600020819055505050565b6000600260008381526020019081526020016000206000808152602001908152602001600020600001549050809050919050565b600060036000838152602001908152602001600020549050809050919050565b600080612710848161116a57fe5b05905060006064612710830286038161117f57fe5b059050600060648202612710840287030390506000612710868161119f57fe5b0590506000606461271083028803816111b457fe5b0590506000606482026127108402890303905060008684039050600086840390506000868403905060008112156111f557818060019003925050601e810190505b600082121561120e57828060019003935050600c820191505b60008160648402612710860201019050809a505050505050505050505092915050565b600060026000848152602001908152602001600020600083815260200190815260200160002060070154905080905092915050565b6000600260008381526020019081526020016000206000808152602001908152602001600020600501549050809050919050565b6000806000905060008090505b6001548110156114fa57846040516020018082805190602001908083835b602083106112e857805182526020820191506020810190506020830392506112c5565b6001836020036101000a0380198251168184511680821785525050505050509050019150506040516020818303038152906040528051906020012060026000838152602001908152602001600020600080815260200190815260200160002060010160405160200180828054600181600116156101000203166002900480156113a85780601f106113865761010080835404028352918201916113a8565b820191906000526020600020905b815481529060010190602001808311611394575b5050915050604051602081830303815290604052805190602001201480156114df5750836040516020018082805190602001908083835b6020831061140257805182526020820191506020810190506020830392506113df565b6001836020036101000a0380198251168184511680821785525050505050509050019150506040516020818303038152906040528051906020012060026000838152602001908152602001600020600080815260200190815260200160002060020160405160200180828054600181600116156101000203166002900480156114c25780601f106114a05761010080835404028352918201916114c2565b820191906000526020600020905b8154815290600101906020018083116114ae575b505091505060405160208183030381529060405280519060200120145b156114ed57600191506114fa565b80806001019150506112a7565b508091505092915050565b600160008154809291906001019190505550565b6000600260008381526020019081526020016000206000808152602001908152602001600020600301549050809050919050565b6000600154905080905090565b6000600360008481526020019081526020016000205490506000811415611631578160026000858152602001908152602001600020600080815260200190815260200160002060040154036002600085815260200190815260200160002060006001840181526020019081526020016000206009018190555060016002600085815260200190815260200160002060008081526020019081526020016000206005015403600260008581526020019081526020016000206000600184018152602001908152602001600020600801819055506116e3565b8160026000858152602001908152602001600020600083815260200190815260200160002060090154036002600085815260200190815260200160002060006001840181526020019081526020016000206009018190555060016002600085815260200190815260200160002060008381526020019081526020016000206008015403600260008581526020019081526020016000206000600184018152602001908152602001600020600801819055505b505050565b600060036000848152602001908152602001600020549050816002600085815260200190815260200160002060006001840181526020019081526020016000206006018190555060008114156117965760646002600085815260200190815260200160002060008081526020019081526020016000206006015401600260008581526020019081526020016000206000600184018152602001908152602001600020600701819055506117f0565b60646002600085815260200190815260200160002060008381526020019081526020016000206007015401600260008581526020019081526020016000206000600184018152602001908152602001600020600701819055505b505050565b60606002600083815260200190815260200160002060008081526020019081526020016000206002018054600181600116156101000203166002900480601f0160208091040260200160405190810160405280929190818152602001828054600181600116156101000203166002900480156118b25780601f10611887576101008083540402835291602001916118b2565b820191906000526020600020905b81548152906001019060200180831161189557829003601f168201915b50505050509050809050919050565b6000806000905060008090505b600154811015611a0657836040516020018082805190602001908083835b6020831061190f57805182526020820191506020810190506020830392506118ec565b6001836020036101000a0380198251168184511680821785525050505050509050019150506040516020818303038152906040528051906020012060026000838152602001908152602001600020600080815260200190815260200160002060010160405160200180828054600181600116156101000203166002900480156119cf5780601f106119ad5761010080835404028352918201916119cf565b820191906000526020600020905b8154815290600101906020018083116119bb575b50509150506040516020818303038152906040528051906020012014156119f95781806001019250505b80806001019150506118ce565b5080915050919050565b600360008281526020019081526020016000206000815480929190600101919050555050565b600060026000848152602001908152602001600020600083815260200190815260200160002060080154905080905092915050565b60606002600083815260200190815260200160002060008081526020019081526020016000206001018054600181600116156101000203166002900480601f016020809104026020016040519081016040528092919081815260200182805460018160011615610100020316600290048015611b285780601f10611afd57610100808354040283529160200191611b28565b820191906000526020600020905b815481529060010190602001808311611b0b57829003601f168201915b50505050509050809050919050565b600060026000848152602001908152602001600020600083815260200190815260200160002060060154905080905092915050565b828054600181600116156101000203166002900490600052602060002090601f016020900481019282601f10611bad57805160ff1916838001178555611bdb565b82800160010185558215611bdb579182015b82811115611bda578251825591602001919060010190611bbf565b5b509050611be89190611bec565b5090565b611c0e91905b80821115611c0a576000816000905550600101611bf2565b5090565b9056fea265627a7a723158201dfefbc934588bbfeb99d5bd5f10907aa59935b4915b6f5e3fb233e564e907c164736f6c63430005100032",
  "source": "pragma solidity >=0.4.21 <0.7.0;\n\ncontract Contract {\n\n  string public name;\n  uint public contract_count = 0;\n\n  struct Contract_user {\n    uint id;\n    string preteur;\n    string emprunteur;\n    uint taux;\n    uint montant_total;\n    uint echeance_totale;\n    uint date_reelle;\n    uint date_theorique;\n    uint echeance_restante;\n    uint montant_restant;\n    bool status;\n  }\n\n  mapping(uint => mapping(uint => Contract_user)) public contract_users;\n  mapping(uint => uint) public nombre_transaction;\n\n  constructor() public{\n    name = \"Contrat Entre Particuliers\";\n     }\n\n\n     function increaseContract() public{\n     contract_count++;\n     }\n\n  function createContract1(uint _taux,\n  uint _echeance_totale,uint _montant_total) public{\n    contract_users[contract_count][0].taux = _taux;\n    contract_users[contract_count][0].echeance_totale = _echeance_totale;\n    contract_users[contract_count][0].montant_total = _montant_total;\n  }\n\n  function createContract2(string memory _emprunteur,\n  string memory _preteur) public{\n    contract_users[contract_count][0].emprunteur = _emprunteur;\n    contract_users[contract_count][0].preteur = _preteur;\n    nombre_transaction[contract_count] = 0;\n  }\n\n  function createContract3(uint _date_reelle,uint _id) public{\n    contract_users[contract_count][0].date_reelle = _date_reelle;\n    contract_users[contract_count][0].id = _id;\n  }\n\n  function increaseTrans(uint _id) public{\n    nombre_transaction[_id]++;\n  }\n\n  function transaction1(uint _id,uint _somme) public{\n        uint numero_transaction = nombre_transaction[_id];\n        if (numero_transaction==0){\n          contract_users[_id][numero_transaction+1].montant_restant = contract_users[_id][0].montant_total - _somme;\n          contract_users[_id][numero_transaction+1].echeance_restante = contract_users[_id][0].echeance_totale - 1;\n        }\n        else{\n        contract_users[_id][numero_transaction+1].montant_restant = contract_users[_id][numero_transaction].montant_restant - _somme;\n        contract_users[_id][numero_transaction+1].echeance_restante = contract_users[_id][numero_transaction].echeance_restante - 1;\n        }\n  }\n\n  function transaction2(uint _id,uint _date_reelle) public{\n        uint numero_transaction = nombre_transaction[_id];\n        contract_users[_id][numero_transaction+1].date_reelle = _date_reelle;\n        if (numero_transaction ==0){\n          contract_users[_id][numero_transaction+1].date_theorique = contract_users[_id][0].date_reelle + 100;\n        }\n        else{\n        contract_users[_id][numero_transaction+1].date_theorique = contract_users[_id][numero_transaction].date_theorique + 100;\n        }\n  }\n\n\n  function getCount() public view returns (uint _count){\n    _count = contract_count;\n    return _count;\n  }\n\n  function getNb_transaction(uint numero_contrat) public view returns (uint _nombre_transaction){\n    _nombre_transaction = nombre_transaction[numero_contrat];\n    return _nombre_transaction;\n  }\n\n  function getTaux(uint numero_contrat) public view returns (uint _taux){\n    _taux = contract_users[numero_contrat][0].taux;\n    return _taux;\n  }\n\n  function getId(uint numero_contrat) public view returns (uint _id){\n    _id = contract_users[numero_contrat][0].id;\n    return _id;\n  }\n\n  function getEcheance_totale(uint numero_contrat) public view returns (uint _echeance_totale){\n    _echeance_totale = contract_users[numero_contrat][0].echeance_totale;\n    return _echeance_totale;\n  }\n\n  function getMontant_total(uint numero_contrat) public view returns (uint _montant_total){\n    _montant_total = contract_users[numero_contrat][0].montant_total;\n    return _montant_total;\n  }\n\n  function getEmprunteur(uint numero_contrat) public view returns (string memory _emprunteur){\n    _emprunteur = contract_users[numero_contrat][0].emprunteur;\n    return _emprunteur;\n  }\n\n  function getPreteur(uint numero_contrat) public view returns (string memory _preteur){\n    _preteur = contract_users[numero_contrat][0].preteur;\n    return _preteur;\n  }\n\n  function getDate_reelle(uint numero_contrat, uint numero_transaction) public view returns (uint _date_reelle){\n    _date_reelle = contract_users[numero_contrat][numero_transaction].date_reelle;\n    return _date_reelle;\n  }\n\n  function getDate_theorique(uint numero_contrat, uint numero_transaction) public view returns (uint _date_theorique){\n    _date_theorique = contract_users[numero_contrat][numero_transaction].date_theorique;\n    return _date_theorique;\n  }\n\n  function getEcheance_restante(uint numero_contrat, uint numero_transaction) public view returns (uint _echeance_restante){\n    _echeance_restante = contract_users[numero_contrat][numero_transaction].echeance_restante;\n    return _echeance_restante;\n  }\n\n  function getMontant_restant(uint numero_contrat, uint numero_transaction) public view returns (uint _montant_restant){\n    _montant_restant = contract_users[numero_contrat][numero_transaction].montant_restant;\n    return _montant_restant;\n  }\n\n  function existContract (string memory _preteur,\n  string memory _emprunteur) public view returns (bool) {\n    bool exist = false;\n    for (uint p = 0; p<contract_count; p++){\n      if ((keccak256(abi.encodePacked((contract_users[p][0].preteur))) == keccak256(abi.encodePacked((_preteur))))&&(keccak256(abi.encodePacked((contract_users[p][0].emprunteur))) == keccak256(abi.encodePacked((_emprunteur))))){\n        exist = true;\n        break;\n      }\n    }\n    return exist;\n  }\n\n\nfunction nbprets(string memory user) public view returns (uint){\n    uint nb_prets = 0;\n    for (uint p = 0; p<contract_count; p++){\n      if (keccak256(abi.encodePacked((contract_users[p][0].preteur))) == keccak256(abi.encodePacked((user))))\n        nb_prets++;\n    }\n    return nb_prets;\n}\n\nfunction diff_date(int date1, int date2) public view returns (int) {\n  int annee1 = date1/10000;\n  int mois1 = (date1 - (annee1 * 10000)) / 100;\n  int jour1 = date1 - (annee1 * 10000) - (mois1 * 100);\n  int annee2 = date2/10000;\n  int mois2 = (date2 - (annee2 * 10000)) / 100;\n  int jour2 = date2 - (annee2 * 10000) - (mois2 * 100);\n  int diff_annee = annee2 - annee1;\n  int diff_mois = mois2 - mois1;\n  int diff_jour = jour2 - jour1;\n  if (diff_jour <0){\n    diff_mois--;\n    diff_jour = diff_jour + 30;\n    }\n  if (diff_mois <0){\n    diff_annee--;\n    diff_mois = diff_mois + 12;\n  }\n  int res = diff_annee*10000  + diff_mois*100 + diff_jour;\n  return res;\n}\n\n\n}\n",
  "sourcePath": "/home/maxim/Documents/Bank/Bankeirble/blockchain/contracts/Contract.sol",
  "compiler": {
    "name": "solc",
    "version": "0.5.16+commit.9c3226ce.Emscripten.clang"
  },
  "schemaVersion": "3.0.23",
  "updatedAt": "2020-03-30T18:18:39.469Z",
  "networkType": "ethereum",
  "devdoc": {
    "methods": {}
  },
  "userdoc": {
    "methods": {}
  }
}