{
  "contractName": "Contract",
  "abi": [
    {
      "inputs": [],
      "payable": false,
      "stateMutability": "nonpayable",
      "type": "constructor"
    },
    {
      "constant": true,
      "inputs": [],
      "name": "contractCount",
      "outputs": [
        {
          "internalType": "uint256",
          "name": "",
          "type": "uint256"
        }
      ],
      "payable": false,
      "stateMutability": "view",
      "type": "function"
    },
    {
      "constant": true,
      "inputs": [],
      "name": "name",
      "outputs": [
        {
          "internalType": "string",
          "name": "",
          "type": "string"
        }
      ],
      "payable": false,
      "stateMutability": "view",
      "type": "function"
    },
    {
      "constant": true,
      "inputs": [
        {
          "internalType": "uint256",
          "name": "",
          "type": "uint256"
        }
      ],
      "name": "nbTransaction",
      "outputs": [
        {
          "internalType": "uint256",
          "name": "",
          "type": "uint256"
        }
      ],
      "payable": false,
      "stateMutability": "view",
      "type": "function"
    },
    {
      "constant": true,
      "inputs": [
        {
          "internalType": "uint256",
          "name": "",
          "type": "uint256"
        },
        {
          "internalType": "uint256",
          "name": "",
          "type": "uint256"
        }
      ],
      "name": "usersContracts",
      "outputs": [
        {
          "internalType": "uint256",
          "name": "id",
          "type": "uint256"
        },
        {
          "internalType": "string",
          "name": "lender",
          "type": "string"
        },
        {
          "internalType": "string",
          "name": "borrower",
          "type": "string"
        },
        {
          "internalType": "uint256",
          "name": "rate",
          "type": "uint256"
        },
        {
          "internalType": "uint256",
          "name": "totalAmount",
          "type": "uint256"
        },
        {
          "internalType": "uint256",
          "name": "duration",
          "type": "uint256"
        },
        {
          "internalType": "int256",
          "name": "currentDate",
          "type": "int256"
        },
        {
          "internalType": "int256",
          "name": "theoricalDate",
          "type": "int256"
        },
        {
          "internalType": "uint256",
          "name": "remainingDuration",
          "type": "uint256"
        },
        {
          "internalType": "uint256",
          "name": "remainingAmount",
          "type": "uint256"
        },
        {
          "internalType": "bool",
          "name": "status",
          "type": "bool"
        }
      ],
      "payable": false,
      "stateMutability": "view",
      "type": "function"
    },
    {
      "constant": false,
      "inputs": [],
      "name": "increaseContract",
      "outputs": [],
      "payable": false,
      "stateMutability": "nonpayable",
      "type": "function"
    },
    {
      "constant": false,
      "inputs": [
        {
          "internalType": "uint256",
          "name": "_rate",
          "type": "uint256"
        },
        {
          "internalType": "uint256",
          "name": "_duration",
          "type": "uint256"
        },
        {
          "internalType": "uint256",
          "name": "_totalAmount",
          "type": "uint256"
        }
      ],
      "name": "createContract1",
      "outputs": [],
      "payable": false,
      "stateMutability": "nonpayable",
      "type": "function"
    },
    {
      "constant": false,
      "inputs": [
        {
          "internalType": "string",
          "name": "_borrower",
          "type": "string"
        },
        {
          "internalType": "string",
          "name": "_lender",
          "type": "string"
        }
      ],
      "name": "createContract2",
      "outputs": [],
      "payable": false,
      "stateMutability": "nonpayable",
      "type": "function"
    },
    {
      "constant": false,
      "inputs": [
        {
          "internalType": "int256",
          "name": "_currentDate",
          "type": "int256"
        },
        {
          "internalType": "uint256",
          "name": "_id",
          "type": "uint256"
        }
      ],
      "name": "createContract3",
      "outputs": [],
      "payable": false,
      "stateMutability": "nonpayable",
      "type": "function"
    },
    {
      "constant": false,
      "inputs": [
        {
          "internalType": "uint256",
          "name": "_id",
          "type": "uint256"
        }
      ],
      "name": "increaseTrans",
      "outputs": [],
      "payable": false,
      "stateMutability": "nonpayable",
      "type": "function"
    },
    {
      "constant": false,
      "inputs": [
        {
          "internalType": "uint256",
          "name": "_id",
          "type": "uint256"
        },
        {
          "internalType": "uint256",
          "name": "_sum",
          "type": "uint256"
        }
      ],
      "name": "transaction1",
      "outputs": [],
      "payable": false,
      "stateMutability": "nonpayable",
      "type": "function"
    },
    {
      "constant": false,
      "inputs": [
        {
          "internalType": "uint256",
          "name": "_id",
          "type": "uint256"
        },
        {
          "internalType": "int256",
          "name": "_currentDate",
          "type": "int256"
        }
      ],
      "name": "transaction2",
      "outputs": [],
      "payable": false,
      "stateMutability": "nonpayable",
      "type": "function"
    },
    {
      "constant": true,
      "inputs": [],
      "name": "getCount",
      "outputs": [
        {
          "internalType": "uint256",
          "name": "_count",
          "type": "uint256"
        }
      ],
      "payable": false,
      "stateMutability": "view",
      "type": "function"
    },
    {
      "constant": true,
      "inputs": [
        {
          "internalType": "uint256",
          "name": "contratNumber",
          "type": "uint256"
        }
      ],
      "name": "getNbTransaction",
      "outputs": [
        {
          "internalType": "uint256",
          "name": "_nbTransaction",
          "type": "uint256"
        }
      ],
      "payable": false,
      "stateMutability": "view",
      "type": "function"
    },
    {
      "constant": true,
      "inputs": [
        {
          "internalType": "uint256",
          "name": "contratNumber",
          "type": "uint256"
        }
      ],
      "name": "getRate",
      "outputs": [
        {
          "internalType": "uint256",
          "name": "_rate",
          "type": "uint256"
        }
      ],
      "payable": false,
      "stateMutability": "view",
      "type": "function"
    },
    {
      "constant": true,
      "inputs": [
        {
          "internalType": "uint256",
          "name": "contratNumber",
          "type": "uint256"
        }
      ],
      "name": "getId",
      "outputs": [
        {
          "internalType": "uint256",
          "name": "_id",
          "type": "uint256"
        }
      ],
      "payable": false,
      "stateMutability": "view",
      "type": "function"
    },
    {
      "constant": true,
      "inputs": [
        {
          "internalType": "uint256",
          "name": "contratNumber",
          "type": "uint256"
        }
      ],
      "name": "getDuration",
      "outputs": [
        {
          "internalType": "uint256",
          "name": "_duration",
          "type": "uint256"
        }
      ],
      "payable": false,
      "stateMutability": "view",
      "type": "function"
    },
    {
      "constant": true,
      "inputs": [
        {
          "internalType": "uint256",
          "name": "contratNumber",
          "type": "uint256"
        }
      ],
      "name": "getTotalAmount",
      "outputs": [
        {
          "internalType": "uint256",
          "name": "_totalAmount",
          "type": "uint256"
        }
      ],
      "payable": false,
      "stateMutability": "view",
      "type": "function"
    },
    {
      "constant": true,
      "inputs": [
        {
          "internalType": "uint256",
          "name": "contratNumber",
          "type": "uint256"
        }
      ],
      "name": "getBorrower",
      "outputs": [
        {
          "internalType": "string",
          "name": "_borrower",
          "type": "string"
        }
      ],
      "payable": false,
      "stateMutability": "view",
      "type": "function"
    },
    {
      "constant": true,
      "inputs": [
        {
          "internalType": "uint256",
          "name": "contratNumber",
          "type": "uint256"
        }
      ],
      "name": "getLender",
      "outputs": [
        {
          "internalType": "string",
          "name": "_lender",
          "type": "string"
        }
      ],
      "payable": false,
      "stateMutability": "view",
      "type": "function"
    },
    {
      "constant": true,
      "inputs": [
        {
          "internalType": "uint256",
          "name": "contratNumber",
          "type": "uint256"
        },
        {
          "internalType": "uint256",
          "name": "transactionId",
          "type": "uint256"
        }
      ],
      "name": "getCurrentDate",
      "outputs": [
        {
          "internalType": "int256",
          "name": "_currentDate",
          "type": "int256"
        }
      ],
      "payable": false,
      "stateMutability": "view",
      "type": "function"
    },
    {
      "constant": true,
      "inputs": [
        {
          "internalType": "uint256",
          "name": "contratNumber",
          "type": "uint256"
        },
        {
          "internalType": "uint256",
          "name": "transactionId",
          "type": "uint256"
        }
      ],
      "name": "getTheoricalDate",
      "outputs": [
        {
          "internalType": "int256",
          "name": "_theoricalDate",
          "type": "int256"
        }
      ],
      "payable": false,
      "stateMutability": "view",
      "type": "function"
    },
    {
      "constant": true,
      "inputs": [
        {
          "internalType": "uint256",
          "name": "contratNumber",
          "type": "uint256"
        },
        {
          "internalType": "uint256",
          "name": "transactionId",
          "type": "uint256"
        }
      ],
      "name": "getRemainingDuration",
      "outputs": [
        {
          "internalType": "uint256",
          "name": "_remainingDuration",
          "type": "uint256"
        }
      ],
      "payable": false,
      "stateMutability": "view",
      "type": "function"
    },
    {
      "constant": true,
      "inputs": [
        {
          "internalType": "uint256",
          "name": "contratNumber",
          "type": "uint256"
        },
        {
          "internalType": "uint256",
          "name": "transactionId",
          "type": "uint256"
        }
      ],
      "name": "getRemainingAmount",
      "outputs": [
        {
          "internalType": "uint256",
          "name": "_remainingAmount",
          "type": "uint256"
        }
      ],
      "payable": false,
      "stateMutability": "view",
      "type": "function"
    },
    {
      "constant": true,
      "inputs": [
        {
          "internalType": "uint256",
          "name": "contratNumber",
          "type": "uint256"
        },
        {
          "internalType": "uint256",
          "name": "transactionId",
          "type": "uint256"
        }
      ],
      "name": "getStatus",
      "outputs": [
        {
          "internalType": "bool",
          "name": "_status",
          "type": "bool"
        }
      ],
      "payable": false,
      "stateMutability": "view",
      "type": "function"
    },
    {
      "constant": true,
      "inputs": [
        {
          "internalType": "uint256",
          "name": "contratNumber",
          "type": "uint256"
        },
        {
          "internalType": "uint256",
          "name": "transactionId",
          "type": "uint256"
        }
      ],
      "name": "getTransactionAmount",
      "outputs": [
        {
          "internalType": "uint256",
          "name": "_transactionAmount",
          "type": "uint256"
        }
      ],
      "payable": false,
      "stateMutability": "view",
      "type": "function"
    },
    {
      "constant": true,
      "inputs": [
        {
          "internalType": "string",
          "name": "_lender",
          "type": "string"
        },
        {
          "internalType": "string",
          "name": "_borrower",
          "type": "string"
        }
      ],
      "name": "existContract",
      "outputs": [
        {
          "internalType": "bool",
          "name": "",
          "type": "bool"
        }
      ],
      "payable": false,
      "stateMutability": "view",
      "type": "function"
    },
    {
      "constant": true,
      "inputs": [
        {
          "internalType": "string",
          "name": "user",
          "type": "string"
        }
      ],
      "name": "nbLoans",
      "outputs": [
        {
          "internalType": "uint256",
          "name": "",
          "type": "uint256"
        }
      ],
      "payable": false,
      "stateMutability": "view",
      "type": "function"
    },
    {
      "constant": true,
      "inputs": [
        {
          "internalType": "int256",
          "name": "date1",
          "type": "int256"
        },
        {
          "internalType": "int256",
          "name": "date2",
          "type": "int256"
        }
      ],
      "name": "dateDiff",
      "outputs": [
        {
          "internalType": "int256",
          "name": "",
          "type": "int256"
        }
      ],
      "payable": false,
      "stateMutability": "view",
      "type": "function"
    },
    {
      "constant": true,
      "inputs": [
        {
          "internalType": "string",
          "name": "user",
          "type": "string"
        }
      ],
      "name": "reputation",
      "outputs": [
        {
          "internalType": "int256",
          "name": "",
          "type": "int256"
        }
      ],
      "payable": false,
      "stateMutability": "view",
      "type": "function"
    },
    {
      "constant": true,
      "inputs": [
        {
          "internalType": "string",
          "name": "a",
          "type": "string"
        },
        {
          "internalType": "string",
          "name": "b",
          "type": "string"
        }
      ],
      "name": "compareStrings",
      "outputs": [
        {
          "internalType": "bool",
          "name": "",
          "type": "bool"
        }
      ],
      "payable": false,
      "stateMutability": "view",
      "type": "function"
    },
    {
      "constant": true,
      "inputs": [
        {
          "internalType": "string",
          "name": "user",
          "type": "string"
        },
        {
          "internalType": "uint256",
          "name": "contractNumber",
          "type": "uint256"
        }
      ],
      "name": "testContractUser",
      "outputs": [
        {
          "internalType": "int256",
          "name": "_value",
          "type": "int256"
        }
      ],
      "payable": false,
      "stateMutability": "view",
      "type": "function"
    }
  ],
  "bytecode": "0x608060405260006001553480156200001657600080fd5b506040518060400160405280601a81526020017f436f6e7472617420456e74726520506172746963756c6965727300000000000081525060009080519060200190620000649291906200006b565b506200011a565b828054600181600116156101000203166002900490600052602060002090601f016020900481019282601f10620000ae57805160ff1916838001178555620000df565b82800160010185558215620000df579182015b82811115620000de578251825591602001919060010190620000c1565b5b509050620000ee9190620000f2565b5090565b6200011791905b8082111562000113576000816000905550600101620000f9565b5090565b90565b612a2e806200012a6000396000f3fe608060405234801561001057600080fd5b50600436106101e55760003560e01c80638736381a1161010f578063a8a2da0d116100a2578063e3ddf83411610071578063e3ddf83414610f57578063f0e4066214610f85578063f17ed76a14610fc7578063fa2c7f9b14611013576101e5565b8063a8a2da0d14610c1d578063b2bb728e14610d7d578063bed34bba14610db5578063dfa0ef1414610f1f576101e5565b80639d7625e5116100de5780639d7625e514610b595780639df08f1814610b63578063a745da6514610baf578063a87d942c14610bff576101e5565b80638736381a146108c05780638b7601cf146108de5780638bb126a7146109ad5780639a6b2689146109ef576101e5565b80633e8cb46011610187578063545a153a11610156578063545a153a146107535780635776409414610795578063589a557f146107d75780638500d91914610819576101e5565b80633e8cb460146104a45780634635b9b21461057d5780634feddcc6146105bf57806351f9969314610601576101e5565b806313a422c3116101c357806313a422c3146103055780632e4e1a63146103d45780633969855c146104205780633e1088e81461046c576101e5565b806306fdde03146101ea5780630cc3a36e1461026d578063120245f6146102b9575b600080fd5b6101f26110ba565b6040518080602001828103825283818151815260200191508051906020019080838360005b83811015610232578082015181840152602081019050610217565b50505050905090810190601f16801561025f5780820380516001836020036101000a031916815260200191505b509250505060405180910390f35b6102a36004803603604081101561028357600080fd5b810190808035906020019092919080359060200190929190505050611158565b6040518082815260200191505060405180910390f35b6102ef600480360360408110156102cf57600080fd5b81019080803590602001909291908035906020019092919050505061118d565b6040518082815260200191505060405180910390f35b6103be6004803603602081101561031b57600080fd5b810190808035906020019064010000000081111561033857600080fd5b82018360208201111561034a57600080fd5b8035906020019184600183028401116401000000008311171561036c57600080fd5b91908080601f016020809104026020016040519081016040528093929190818152602001838380828437600081840152601f19601f8201169050808301925050505050505091929192905050506111c2565b6040518082815260200191505060405180910390f35b61040a600480360360408110156103ea57600080fd5b810190808035906020019092919080359060200190929190505050611562565b6040518082815260200191505060405180910390f35b6104566004803603604081101561043657600080fd5b810190808035906020019092919080359060200190929190505050611628565b6040518082815260200191505060405180910390f35b6104a26004803603604081101561048257600080fd5b81019080803590602001909291908035906020019092919050505061165d565b005b610567600480360360408110156104ba57600080fd5b81019080803590602001906401000000008111156104d757600080fd5b8201836020820111156104e957600080fd5b8035906020019184600183028401116401000000008311171561050b57600080fd5b91908080601f016020809104026020016040519081016040528093929190818152602001838380828437600081840152601f19601f820116905080830192505050505050509192919290803590602001909291905050506116ff565b6040518082815260200191505060405180910390f35b6105bd6004803603606081101561059357600080fd5b810190808035906020019092919080359060200190929190803590602001909291905050506118c3565b005b6105eb600480360360208110156105d557600080fd5b8101908080359060200190929190505050611952565b6040518082815260200191505060405180910390f35b6107516004803603604081101561061757600080fd5b810190808035906020019064010000000081111561063457600080fd5b82018360208201111561064657600080fd5b8035906020019184600183028401116401000000008311171561066857600080fd5b91908080601f016020809104026020016040519081016040528093929190818152602001838380828437600081840152601f19601f820116905080830192505050505050509192919290803590602001906401000000008111156106cb57600080fd5b8201836020820111156106dd57600080fd5b803590602001918460018302840111640100000000831117156106ff57600080fd5b91908080601f016020809104026020016040519081016040528093929190818152602001838380828437600081840152601f19601f820116905080830192505050505050509192919290505050611972565b005b61077f6004803603602081101561076957600080fd5b8101908080359060200190929190505050611a0d565b6040518082815260200191505060405180910390f35b6107c1600480360360208110156107ab57600080fd5b8101908080359060200190929190505050611a41565b6040518082815260200191505060405180910390f35b610803600480360360208110156107ed57600080fd5b8101908080359060200190929190505050611a75565b6040518082815260200191505060405180910390f35b6108456004803603602081101561082f57600080fd5b8101908080359060200190929190505050611a8d565b6040518080602001828103825283818151815260200191508051906020019080838360005b8381101561088557808201518184015260208101905061086a565b50505050905090810190601f1680156108b25780820380516001836020036101000a031916815260200191505b509250505060405180910390f35b6108c8611b59565b6040518082815260200191505060405180910390f35b610997600480360360208110156108f457600080fd5b810190808035906020019064010000000081111561091157600080fd5b82018360208201111561092357600080fd5b8035906020019184600183028401116401000000008311171561094557600080fd5b91908080601f016020809104026020016040519081016040528093929190818152602001838380828437600081840152601f19601f820116905080830192505050505050509192919290505050611b5f565b6040518082815260200191505060405180910390f35b6109d9600480360360208110156109c357600080fd5b8101908080359060200190929190505050611cae565b6040518082815260200191505060405180910390f35b610b3f60048036036040811015610a0557600080fd5b8101908080359060200190640100000000811115610a2257600080fd5b820183602082011115610a3457600080fd5b80359060200191846001830284011164010000000083111715610a5657600080fd5b91908080601f016020809104026020016040519081016040528093929190818152602001838380828437600081840152601f19601f82011690508083019250505050505050919291929080359060200190640100000000811115610ab957600080fd5b820183602082011115610acb57600080fd5b80359060200191846001830284011164010000000083111715610aed57600080fd5b91908080601f016020809104026020016040519081016040528093929190818152602001838380828437600081840152601f19601f820116905080830192505050505050509192919290505050611ce2565b604051808215151515815260200191505060405180910390f35b610b61611f4d565b005b610b9960048036036040811015610b7957600080fd5b810190808035906020019092919080359060200190929190505050611f61565b6040518082815260200191505060405180910390f35b610be560048036036040811015610bc557600080fd5b810190808035906020019092919080359060200190929190505050612036565b604051808215151515815260200191505060405180910390f35b610c07612078565b6040518082815260200191505060405180910390f35b610c5360048036036040811015610c3357600080fd5b810190808035906020019092919080359060200190929190505050612085565b604051808c815260200180602001806020018b81526020018a81526020018981526020018881526020018781526020018681526020018581526020018415151515815260200183810383528d818151815260200191508051906020019080838360005b83811015610cd1578082015181840152602081019050610cb6565b50505050905090810190601f168015610cfe5780820380516001836020036101000a031916815260200191505b5083810382528c818151815260200191508051906020019080838360005b83811015610d37578082015181840152602081019050610d1c565b50505050905090810190601f168015610d645780820380516001836020036101000a031916815260200191505b509d505050505050505050505050505060405180910390f35b610db360048036036040811015610d9357600080fd5b810190808035906020019092919080359060200190929190505050612229565b005b610f0560048036036040811015610dcb57600080fd5b8101908080359060200190640100000000811115610de857600080fd5b820183602082011115610dfa57600080fd5b80359060200191846001830284011164010000000083111715610e1c57600080fd5b91908080601f016020809104026020016040519081016040528093929190818152602001838380828437600081840152601f19601f82011690508083019250505050505050919291929080359060200190640100000000811115610e7f57600080fd5b820183602082011115610e9157600080fd5b80359060200191846001830284011164010000000083111715610eb357600080fd5b91908080601f016020809104026020016040519081016040528093929190818152602001838380828437600081840152601f19601f8201169050808301925050505050505091929192905050506125fd565b604051808215151515815260200191505060405180910390f35b610f5560048036036040811015610f3557600080fd5b8101908080359060200190929190803590602001909291905050506126ec565b005b610f8360048036036020811015610f6d57600080fd5b81019080803590602001909291905050506127f9565b005b610fb160048036036020811015610f9b57600080fd5b810190808035906020019092919050505061281f565b6040518082815260200191505060405180910390f35b610ffd60048036036040811015610fdd57600080fd5b810190808035906020019092919080359060200190929190505050612853565b6040518082815260200191505060405180910390f35b61103f6004803603602081101561102957600080fd5b8101908080359060200190929190505050612888565b6040518080602001828103825283818151815260200191508051906020019080838360005b8381101561107f578082015181840152602081019050611064565b50505050905090810190601f1680156110ac5780820380516001836020036101000a031916815260200191505b509250505060405180910390f35b60008054600181600116156101000203166002900480601f0160208091040260200160405190810160405280929190818152602001828054600181600116156101000203166002900480156111505780601f1061112557610100808354040283529160200191611150565b820191906000526020600020905b81548152906001019060200180831161113357829003601f168201915b505050505081565b600060026000848152602001908152602001600020600083815260200190815260200160002060060154905080905092915050565b600060026000848152602001908152602001600020600083815260200190815260200160002060090154905080905092915050565b6000806000905060008090505b60015481101561155857836040516020018082805190602001908083835b6020831061121057805182526020820191506020810190506020830392506111ed565b6001836020036101000a0380198251168184511680821785525050505050509050019150506040516020818303038152906040528051906020012060026000838152602001908152602001600020600080815260200190815260200160002060010160405160200180828054600181600116156101000203166002900480156112d05780601f106112ae5761010080835404028352918201916112d0565b820191906000526020600020905b8154815290600101906020018083116112bc575b5050915050604051602081830303815290604052805190602001201415611352576000600260008381526020019081526020016000206000808152602001908152602001600020600401549050614e208111156113495761c35081111561133d5760069250829250611344565b6003830192505b611350565b6001830192505b505b836040516020018082805190602001908083835b602083106113895780518252602082019150602081019050602083039250611366565b6001836020036101000a0380198251168184511680821785525050505050509050019150506040516020818303038152906040528051906020012060026000838152602001908152602001600020600080815260200190815260200160002060020160405160200180828054600181600116156101000203166002900480156114495780601f10611427576101008083540402835291820191611449565b820191906000526020600020905b815481529060010190602001808311611435575b505091505060405160208183030381529060405280519060200120141561154b5781806001019250506000600360008381526020019081526020016000205490506000600190505b60018201811015611548576000600260008581526020019081526020016000206000838152602001908152602001600020600601549050600060026000868152602001908152602001600020600084815260200190815260200160002060070154905060006115008284611f61565b90506000811315611538576064811261152757600a818161151d57fe5b0587039650611537565b6003818161153157fe5b05870396505b5b5050508080600101915050611491565b50505b80806001019150506111cf565b5080915050919050565b600060018214156115c857600260008481526020019081526020016000206000838152602001908152602001600020600901546002600085815260200190815260200160002060006001850381526020019081526020016000206004015403905061161f565b60026000848152602001908152602001600020600083815260200190815260200160002060090154600260008581526020019081526020016000206000600185038152602001908152602001600020600901540390505b80905092915050565b600060026000848152602001908152602001600020600083815260200190815260200160002060070154905080905092915050565b816002600060015481526020019081526020016000206000808152602001908152602001600020600601819055508060026000600154815260200190815260200160002060008081526020019081526020016000206000018190555060016002600060015481526020019081526020016000206000808152602001908152602001600020600a0160006101000a81548160ff0219169083151502179055505050565b60006117ca6002600084815260200190815260200160002060008081526020019081526020016000206001018054600181600116156101000203166002900480601f0160208091040260200160405190810160405280929190818152602001828054600181600116156101000203166002900480156117bf5780601f10611794576101008083540402835291602001916117bf565b820191906000526020600020905b8154815290600101906020018083116117a257829003601f168201915b5050505050846125fd565b156117db57600190508090506118bd565b6118a46002600084815260200190815260200160002060008081526020019081526020016000206002018054600181600116156101000203166002900480601f0160208091040260200160405190810160405280929190818152602001828054600181600116156101000203166002900480156118995780601f1061186e57610100808354040283529160200191611899565b820191906000526020600020905b81548152906001019060200180831161187c57829003601f168201915b5050505050846125fd565b156118b557600290508090506118bd565b600090508090505b92915050565b826002600060015481526020019081526020016000206000808152602001908152602001600020600301819055508160026000600154815260200190815260200160002060008081526020019081526020016000206005018190555080600260006001548152602001908152602001600020600080815260200190815260200160002060040181905550505050565b600060036000838152602001908152602001600020549050809050919050565b81600260006001548152602001908152602001600020600080815260200190815260200160002060020190805190602001906119af929190612954565b5080600260006001548152602001908152602001600020600080815260200190815260200160002060010190805190602001906119ed929190612954565b506000600360006001548152602001908152602001600020819055505050565b6000600260008381526020019081526020016000206000808152602001908152602001600020600001549050809050919050565b6000600260008381526020019081526020016000206000808152602001908152602001600020600301549050809050919050565b60036020528060005260406000206000915090505481565b60606002600083815260200190815260200160002060008081526020019081526020016000206002018054600181600116156101000203166002900480601f016020809104026020016040519081016040528092919081815260200182805460018160011615610100020316600290048015611b4a5780601f10611b1f57610100808354040283529160200191611b4a565b820191906000526020600020905b815481529060010190602001808311611b2d57829003601f168201915b50505050509050809050919050565b60015481565b6000806000905060008090505b600154811015611ca457836040516020018082805190602001908083835b60208310611bad5780518252602082019150602081019050602083039250611b8a565b6001836020036101000a038019825116818451168082178552505050505050905001915050604051602081830303815290604052805190602001206002600083815260200190815260200160002060008081526020019081526020016000206001016040516020018082805460018160011615610100020316600290048015611c6d5780601f10611c4b576101008083540402835291820191611c6d565b820191906000526020600020905b815481529060010190602001808311611c59575b5050915050604051602081830303815290604052805190602001201415611c975781806001019250505b8080600101915050611b6c565b5080915050919050565b6000600260008381526020019081526020016000206000808152602001908152602001600020600501549050809050919050565b6000806000905060008090505b600154811015611f4257846040516020018082805190602001908083835b60208310611d305780518252602082019150602081019050602083039250611d0d565b6001836020036101000a038019825116818451168082178552505050505050905001915050604051602081830303815290604052805190602001206002600083815260200190815260200160002060008081526020019081526020016000206001016040516020018082805460018160011615610100020316600290048015611df05780601f10611dce576101008083540402835291820191611df0565b820191906000526020600020905b815481529060010190602001808311611ddc575b505091505060405160208183030381529060405280519060200120148015611f275750836040516020018082805190602001908083835b60208310611e4a5780518252602082019150602081019050602083039250611e27565b6001836020036101000a038019825116818451168082178552505050505050905001915050604051602081830303815290604052805190602001206002600083815260200190815260200160002060008081526020019081526020016000206002016040516020018082805460018160011615610100020316600290048015611f0a5780601f10611ee8576101008083540402835291820191611f0a565b820191906000526020600020905b815481529060010190602001808311611ef6575b505091505060405160208183030381529060405280519060200120145b15611f355760019150611f42565b8080600101915050611cef565b508091505092915050565b600160008154809291906001019190505550565b6000806127108481611f6f57fe5b059050600060646127108302860381611f8457fe5b0590506000606482026127108402870303905060006127108681611fa457fe5b059050600060646127108302880381611fb957fe5b059050600060648202612710840289030390506000868403905060008684039050600086840390506000811215611ffa57818060019003925050601e810190505b600082121561201357828060019003935050600c820191505b60008160648402612710860201019050809a505050505050505050505092915050565b6000600260008481526020019081526020016000206000838152602001908152602001600020600a0160009054906101000a900460ff16905080905092915050565b6000600154905080905090565b600260205281600052604060002060205280600052604060002060009150915050806000015490806001018054600181600116156101000203166002900480601f0160208091040260200160405190810160405280929190818152602001828054600181600116156101000203166002900480156121445780601f1061211957610100808354040283529160200191612144565b820191906000526020600020905b81548152906001019060200180831161212757829003601f168201915b505050505090806002018054600181600116156101000203166002900480601f0160208091040260200160405190810160405280929190818152602001828054600181600116156101000203166002900480156121e25780601f106121b7576101008083540402835291602001916121e2565b820191906000526020600020905b8154815290600101906020018083116121c557829003601f168201915b50505050509080600301549080600401549080600501549080600601549080600701549080600801549080600901549080600a0160009054906101000a900460ff1690508b565b60006003600084815260200190815260200160002054905060008114156124235760008260026000868152602001908152602001600020600080815260200190815260200160002060040154039050600081141561235157806002600086815260200190815260200160002060006001850181526020019081526020016000206009018190555060016002600086815260200190815260200160002060008081526020019081526020016000206005015403600260008681526020019081526020016000206000600185018152602001908152602001600020600801819055506000600260008681526020019081526020016000206000600185018152602001908152602001600020600a0160006101000a81548160ff02191690831515021790555061241d565b806002600086815260200190815260200160002060006001850181526020019081526020016000206009018190555060016002600086815260200190815260200160002060008081526020019081526020016000206005015403600260008681526020019081526020016000206000600185018152602001908152602001600020600801819055506001600260008681526020019081526020016000206000600185018152602001908152602001600020600a0160006101000a81548160ff0219169083151502179055505b506125f8565b60008260026000868152602001908152602001600020600084815260200190815260200160002060090154039050600081141561252a57806002600086815260200190815260200160002060006001850181526020019081526020016000206009018190555060016002600086815260200190815260200160002060008481526020019081526020016000206008015403600260008681526020019081526020016000206000600185018152602001908152602001600020600801819055506000600260008681526020019081526020016000206000600185018152602001908152602001600020600a0160006101000a81548160ff0219169083151502179055506125f6565b806002600086815260200190815260200160002060006001850181526020019081526020016000206009018190555060016002600086815260200190815260200160002060008481526020019081526020016000206008015403600260008681526020019081526020016000206000600185018152602001908152602001600020600801819055506001600260008681526020019081526020016000206000600185018152602001908152602001600020600a0160006101000a81548160ff0219169083151502179055505b505b505050565b6000816040516020018082805190602001908083835b602083106126365780518252602082019150602081019050602083039250612613565b6001836020036101000a03801982511681845116808217855250505050505090500191505060405160208183030381529060405280519060200120836040516020018082805190602001908083835b602083106126a85780518252602082019150602081019050602083039250612685565b6001836020036101000a0380198251168184511680821785525050505050509050019150506040516020818303038152906040528051906020012014905092915050565b6000600360008481526020019081526020016000205490508160026000858152602001908152602001600020600060018401815260200190815260200160002060060181905550600081141561279a5760646002600085815260200190815260200160002060008081526020019081526020016000206006015401600260008581526020019081526020016000206000600184018152602001908152602001600020600701819055506127f4565b60646002600085815260200190815260200160002060008381526020019081526020016000206007015401600260008581526020019081526020016000206000600184018152602001908152602001600020600701819055505b505050565b600360008281526020019081526020016000206000815480929190600101919050555050565b6000600260008381526020019081526020016000206000808152602001908152602001600020600401549050809050919050565b600060026000848152602001908152602001600020600083815260200190815260200160002060080154905080905092915050565b60606002600083815260200190815260200160002060008081526020019081526020016000206001018054600181600116156101000203166002900480601f0160208091040260200160405190810160405280929190818152602001828054600181600116156101000203166002900480156129455780601f1061291a57610100808354040283529160200191612945565b820191906000526020600020905b81548152906001019060200180831161292857829003601f168201915b50505050509050809050919050565b828054600181600116156101000203166002900490600052602060002090601f016020900481019282601f1061299557805160ff19168380011785556129c3565b828001600101855582156129c3579182015b828111156129c25782518255916020019190600101906129a7565b5b5090506129d091906129d4565b5090565b6129f691905b808211156129f25760008160009055506001016129da565b5090565b9056fea265627a7a7231582000a24b571ba516510e1e187cc2d055509f43a8fc09bb39653a7f15758f21d3d464736f6c63430005100032",
  "source": "pragma solidity >=0.4.21 <0.7.0;\r\n\r\ncontract Contract {\r\n\r\n  string public name;\r\n  uint public contractCount = 0;\r\n\r\n  struct Contract_user {\r\n    uint id;\r\n    string lender;\r\n    string borrower;\r\n    uint rate;\r\n    uint totalAmount;\r\n    uint duration;\r\n    int currentDate;\r\n    int theoricalDate;\r\n    uint remainingDuration;\r\n    uint remainingAmount;\r\n    bool status;\r\n  }\r\n\r\n  mapping(uint => mapping(uint => Contract_user)) public usersContracts;\r\n  mapping(uint => uint) public nbTransaction;\r\n\r\n  constructor() public{\r\n    name = \"Contrat Entre Particuliers\";\r\n  }\r\n\r\n\r\n  function increaseContract() public{\r\n    contractCount++;\r\n  }\r\n\r\n  function createContract1(uint _rate,uint _duration,uint _totalAmount) public{\r\n    usersContracts[contractCount][0].rate = _rate;\r\n    usersContracts[contractCount][0].duration = _duration;\r\n    usersContracts[contractCount][0].totalAmount = _totalAmount;\r\n  }\r\n\r\n  function createContract2(string memory _borrower,string memory _lender) public{\r\n    usersContracts[contractCount][0].borrower = _borrower;\r\n    usersContracts[contractCount][0].lender = _lender;\r\n    nbTransaction[contractCount] = 0;\r\n  }\r\n\r\n  function createContract3(int _currentDate,uint _id) public{\r\n    usersContracts[contractCount][0].currentDate = _currentDate;\r\n    usersContracts[contractCount][0].id = _id;\r\n    usersContracts[contractCount][0].status = true;\r\n  }\r\n\r\n  function increaseTrans(uint _id) public{\r\n    nbTransaction[_id]++;\r\n  }\r\n\r\n  function transaction1(uint _id,uint _sum) public{\r\n        uint transactionId = nbTransaction[_id];\r\n        if (transactionId==0){\r\n          uint remainingAmount = usersContracts[_id][0].totalAmount - _sum;\r\n          if (remainingAmount == 0){\r\n            usersContracts[_id][transactionId+1].remainingAmount = remainingAmount;\r\n            usersContracts[_id][transactionId+1].remainingDuration = usersContracts[_id][0].duration - 1;\r\n            usersContracts[_id][transactionId+1].status = false;\r\n          }\r\n          else{\r\n            usersContracts[_id][transactionId+1].remainingAmount = remainingAmount;\r\n            usersContracts[_id][transactionId+1].remainingDuration = usersContracts[_id][0].duration - 1;\r\n            usersContracts[_id][transactionId+1].status = true;\r\n          }\r\n          \r\n        }\r\n        else{\r\n          uint remainingAmount = usersContracts[_id][transactionId].remainingAmount - _sum;\r\n          if (remainingAmount == 0){\r\n            usersContracts[_id][transactionId+1].remainingAmount = remainingAmount;\r\n            usersContracts[_id][transactionId+1].remainingDuration = usersContracts[_id][transactionId].remainingDuration - 1;\r\n            usersContracts[_id][transactionId+1].status = false;\r\n          }\r\n          else{\r\n            usersContracts[_id][transactionId+1].remainingAmount = remainingAmount;\r\n            usersContracts[_id][transactionId+1].remainingDuration = usersContracts[_id][transactionId].remainingDuration - 1;\r\n            usersContracts[_id][transactionId+1].status = true;\r\n          }\r\n        \r\n        }\r\n  }\r\n\r\n  function transaction2(uint _id,int _currentDate) public{\r\n        uint transactionId = nbTransaction[_id];\r\n        usersContracts[_id][transactionId+1].currentDate = _currentDate;\r\n        if (transactionId ==0){\r\n          usersContracts[_id][transactionId+1].theoricalDate = usersContracts[_id][0].currentDate + 100;\r\n        }\r\n        else{\r\n        usersContracts[_id][transactionId+1].theoricalDate = usersContracts[_id][transactionId].theoricalDate + 100;\r\n        }\r\n  }\r\n\r\n\r\n  function getCount() public view returns (uint _count){\r\n    _count = contractCount;\r\n    return _count;\r\n  }\r\n\r\n  function getNbTransaction(uint contratNumber) public view returns (uint _nbTransaction){\r\n    _nbTransaction = nbTransaction[contratNumber];\r\n    return _nbTransaction;\r\n  }\r\n\r\n  function getRate(uint contratNumber) public view returns (uint _rate){\r\n    _rate = usersContracts[contratNumber][0].rate;\r\n    return _rate;\r\n  }\r\n\r\n  function getId(uint contratNumber) public view returns (uint _id){\r\n    _id = usersContracts[contratNumber][0].id;\r\n    return _id;\r\n  }\r\n\r\n  function getDuration(uint contratNumber) public view returns (uint _duration){\r\n    _duration = usersContracts[contratNumber][0].duration;\r\n    return _duration;\r\n  }\r\n\r\n  function getTotalAmount(uint contratNumber) public view returns (uint _totalAmount){\r\n    _totalAmount = usersContracts[contratNumber][0].totalAmount;\r\n    return _totalAmount;\r\n  }\r\n\r\n  function getBorrower(uint contratNumber) public view returns (string memory _borrower){\r\n    _borrower = usersContracts[contratNumber][0].borrower;\r\n    return _borrower;\r\n  }\r\n\r\n  function getLender(uint contratNumber) public view returns (string memory _lender){\r\n    _lender = usersContracts[contratNumber][0].lender;\r\n    return _lender;\r\n  }\r\n\r\n  function getCurrentDate(uint contratNumber, uint transactionId) public view returns (int _currentDate){\r\n    _currentDate = usersContracts[contratNumber][transactionId].currentDate;\r\n    return _currentDate;\r\n  }\r\n\r\n  function getTheoricalDate(uint contratNumber, uint transactionId) public view returns (int _theoricalDate){\r\n    _theoricalDate = usersContracts[contratNumber][transactionId].theoricalDate;\r\n    return _theoricalDate;\r\n  }\r\n\r\n  function getRemainingDuration(uint contratNumber, uint transactionId) public view returns (uint _remainingDuration){\r\n    _remainingDuration = usersContracts[contratNumber][transactionId].remainingDuration;\r\n    return _remainingDuration;\r\n  }\r\n\r\n  function getRemainingAmount(uint contratNumber, uint transactionId) public view returns (uint _remainingAmount){\r\n    _remainingAmount = usersContracts[contratNumber][transactionId].remainingAmount;\r\n    return _remainingAmount;\r\n  }\r\n  function getStatus(uint contratNumber, uint transactionId) public view returns (bool _status){\r\n    _status = usersContracts[contratNumber][transactionId].status;\r\n    return _status;\r\n  }\r\n\r\n  function getTransactionAmount(uint contratNumber, uint transactionId) public view returns (uint _transactionAmount){\r\n    if (transactionId == 1){\r\n      _transactionAmount = usersContracts[contratNumber][transactionId-1].totalAmount - usersContracts[contratNumber][transactionId].remainingAmount;\r\n    }\r\n    else{\r\n      _transactionAmount = usersContracts[contratNumber][transactionId-1].remainingAmount - usersContracts[contratNumber][transactionId].remainingAmount;\r\n    }\r\n\r\n    return _transactionAmount;\r\n  }\r\n\r\n  function existContract (string memory _lender,string memory _borrower) public view returns (bool) {\r\n    bool exist = false;\r\n    for (uint p = 0; p<contractCount; p++){\r\n      if ((keccak256(abi.encodePacked((usersContracts[p][0].lender))) == keccak256(abi.encodePacked((_lender))))&&(keccak256(abi.encodePacked((usersContracts[p][0].borrower))) == keccak256(abi.encodePacked((_borrower))))){\r\n        exist = true;\r\n        break;\r\n      }\r\n    }\r\n    return exist;\r\n  }\r\n\r\n  function nbLoans(string memory user) public view returns (uint){\r\n      uint loanCount = 0;\r\n      for (uint p = 0; p<contractCount; p++){\r\n        if (keccak256(abi.encodePacked((usersContracts[p][0].lender))) == keccak256(abi.encodePacked((user))))\r\n          loanCount++;\r\n      }\r\n      return loanCount;\r\n  }\r\n\r\n  function dateDiff (int date1, int date2) public view returns (int) {\r\n    int year1 = date1/10000;\r\n    int month1 = (date1 - (year1 * 10000)) / 100;\r\n    int day1 = date1 - (year1 * 10000) - (month1 * 100);\r\n    int year2 = date2/10000;\r\n    int month2 = (date2 - (year2 * 10000)) / 100;\r\n    int day2 = date2 - (year2 * 10000) - (month2 * 100);\r\n    int yearDiff = year2 - year1;\r\n    int monthDiff = month2 - month1;\r\n    int dayDiff = day2 - day1;\r\n    if (dayDiff <0){\r\n      monthDiff--;\r\n      dayDiff = dayDiff + 30;\r\n    }\r\n    if (monthDiff <0){\r\n      yearDiff--;\r\n      monthDiff = monthDiff + 12;\r\n    }\r\n    int res = yearDiff*10000  + monthDiff*100 + dayDiff;\r\n    return res;\r\n  }\r\n\r\n  function reputation(string memory user) public view returns(int){\r\n    int reput = 0;\r\n    for (uint i = 0; i<contractCount; i++){\r\n      if (keccak256(abi.encodePacked((usersContracts[i][0].lender))) == keccak256(abi.encodePacked((user)))){\r\n        uint montant = usersContracts[i][0].totalAmount;\r\n        if (montant > 20000){\r\n          if (montant > 50000){\r\n            reput = reput = 6;\r\n          }\r\n          else{\r\n          reput = reput + 3;\r\n          }\r\n        }\r\n        else{\r\n          reput = reput + 1;\r\n        }\r\n      }\r\n      if (keccak256(abi.encodePacked((usersContracts[i][0].borrower))) == keccak256(abi.encodePacked((user)))){\r\n        reput ++;\r\n        uint transactions = nbTransaction[i];\r\n        for (uint j=1; j<transactions+1; j++){\r\n          int date_r = usersContracts[i][j].currentDate;\r\n          int date_t = usersContracts[i][j].theoricalDate;\r\n          int diff = dateDiff (date_t,date_r);\r\n          if (diff>0){\r\n            if (diff>=100){\r\n              reput = reput - diff/10;\r\n            }\r\n            else{\r\n              reput = reput - diff/3;\r\n            }\r\n          }\r\n        }\r\n      }\r\n    }\r\n    return reput;\r\n  }\r\n  function compareStrings (string memory a, string memory b) public view returns (bool) {\r\n    return (keccak256(abi.encodePacked((a))) == keccak256(abi.encodePacked((b))));\r\n  }\r\n\r\n  function testContractUser (string memory user, uint contractNumber) public view returns (int _value){\r\n    if (compareStrings(usersContracts[contractNumber][0].lender, user)){\r\n      _value = 1;\r\n      return _value; //contrat en tant que lender\r\n    }\r\n    else if (compareStrings(usersContracts[contractNumber][0].borrower, user)){\r\n      _value = 2;\r\n      return _value; //contrat en tant qu'emprunter\r\n    }\r\n    else{\r\n      _value = 0;\r\n      return _value; //contrat pas au user\r\n    }\r\n  }\r\n}\r\n",
  "sourcePath": "/mnt/c/Users/esteb/Desktop/Bankeirble/blockchain/contracts/Contract.sol",
  "compiler": {
    "name": "solc",
    "version": "0.5.16+commit.9c3226ce.Emscripten.clang"
  },
  "schemaVersion": "3.0.23",
  "updatedAt": "2020-04-24T17:00:37.531Z",
  "networkType": "ethereum",
  "devdoc": {
    "methods": {}
  },
  "userdoc": {
    "methods": {}
  }
}