{
  "contractName": "Contract",
  "abi": [
    {
      "inputs": [],
      "payable": false,
      "stateMutability": "nonpayable",
      "type": "constructor"
    },
    {
      "constant": true,
      "inputs": [],
      "name": "contractCount",
      "outputs": [
        {
          "internalType": "uint256",
          "name": "",
          "type": "uint256"
        }
      ],
      "payable": false,
      "stateMutability": "view",
      "type": "function"
    },
    {
      "constant": true,
      "inputs": [],
      "name": "name",
      "outputs": [
        {
          "internalType": "string",
          "name": "",
          "type": "string"
        }
      ],
      "payable": false,
      "stateMutability": "view",
      "type": "function"
    },
    {
      "constant": true,
      "inputs": [
        {
          "internalType": "uint256",
          "name": "",
          "type": "uint256"
        }
      ],
      "name": "nbTransaction",
      "outputs": [
        {
          "internalType": "uint256",
          "name": "",
          "type": "uint256"
        }
      ],
      "payable": false,
      "stateMutability": "view",
      "type": "function"
    },
    {
      "constant": true,
      "inputs": [
        {
          "internalType": "uint256",
          "name": "",
          "type": "uint256"
        },
        {
          "internalType": "uint256",
          "name": "",
          "type": "uint256"
        }
      ],
      "name": "usersContracts",
      "outputs": [
        {
          "internalType": "uint256",
          "name": "id",
          "type": "uint256"
        },
        {
          "internalType": "string",
          "name": "lender",
          "type": "string"
        },
        {
          "internalType": "string",
          "name": "borrower",
          "type": "string"
        },
        {
          "internalType": "uint256",
          "name": "rate",
          "type": "uint256"
        },
        {
          "internalType": "uint256",
          "name": "totalAmount",
          "type": "uint256"
        },
        {
          "internalType": "uint256",
          "name": "duration",
          "type": "uint256"
        },
        {
          "internalType": "int256",
          "name": "currentDate",
          "type": "int256"
        },
        {
          "internalType": "int256",
          "name": "theoricalDate",
          "type": "int256"
        },
        {
          "internalType": "uint256",
          "name": "remainingDuration",
          "type": "uint256"
        },
        {
          "internalType": "uint256",
          "name": "remainingAmount",
          "type": "uint256"
        },
        {
          "internalType": "bool",
          "name": "status",
          "type": "bool"
        }
      ],
      "payable": false,
      "stateMutability": "view",
      "type": "function"
    },
    {
      "constant": false,
      "inputs": [],
      "name": "increaseContract",
      "outputs": [],
      "payable": false,
      "stateMutability": "nonpayable",
      "type": "function"
    },
    {
      "constant": false,
      "inputs": [
        {
          "internalType": "uint256",
          "name": "_rate",
          "type": "uint256"
        },
        {
          "internalType": "uint256",
          "name": "_duration",
          "type": "uint256"
        },
        {
          "internalType": "uint256",
          "name": "_totalAmount",
          "type": "uint256"
        }
      ],
      "name": "createContract1",
      "outputs": [],
      "payable": false,
      "stateMutability": "nonpayable",
      "type": "function"
    },
    {
      "constant": false,
      "inputs": [
        {
          "internalType": "string",
          "name": "_borrower",
          "type": "string"
        },
        {
          "internalType": "string",
          "name": "_lender",
          "type": "string"
        }
      ],
      "name": "createContract2",
      "outputs": [],
      "payable": false,
      "stateMutability": "nonpayable",
      "type": "function"
    },
    {
      "constant": false,
      "inputs": [
        {
          "internalType": "int256",
          "name": "_currentDate",
          "type": "int256"
        },
        {
          "internalType": "uint256",
          "name": "_id",
          "type": "uint256"
        }
      ],
      "name": "createContract3",
      "outputs": [],
      "payable": false,
      "stateMutability": "nonpayable",
      "type": "function"
    },
    {
      "constant": false,
      "inputs": [
        {
          "internalType": "uint256",
          "name": "_id",
          "type": "uint256"
        }
      ],
      "name": "increaseTrans",
      "outputs": [],
      "payable": false,
      "stateMutability": "nonpayable",
      "type": "function"
    },
    {
      "constant": false,
      "inputs": [
        {
          "internalType": "uint256",
          "name": "_id",
          "type": "uint256"
        },
        {
          "internalType": "uint256",
          "name": "_sum",
          "type": "uint256"
        }
      ],
      "name": "transaction1",
      "outputs": [],
      "payable": false,
      "stateMutability": "nonpayable",
      "type": "function"
    },
    {
      "constant": false,
      "inputs": [
        {
          "internalType": "uint256",
          "name": "_id",
          "type": "uint256"
        },
        {
          "internalType": "int256",
          "name": "_currentDate",
          "type": "int256"
        }
      ],
      "name": "transaction2",
      "outputs": [],
      "payable": false,
      "stateMutability": "nonpayable",
      "type": "function"
    },
    {
      "constant": true,
      "inputs": [],
      "name": "getCount",
      "outputs": [
        {
          "internalType": "uint256",
          "name": "_count",
          "type": "uint256"
        }
      ],
      "payable": false,
      "stateMutability": "view",
      "type": "function"
    },
    {
      "constant": true,
      "inputs": [
        {
          "internalType": "uint256",
          "name": "contratNumber",
          "type": "uint256"
        }
      ],
      "name": "getNbTransaction",
      "outputs": [
        {
          "internalType": "uint256",
          "name": "_nbTransaction",
          "type": "uint256"
        }
      ],
      "payable": false,
      "stateMutability": "view",
      "type": "function"
    },
    {
      "constant": true,
      "inputs": [
        {
          "internalType": "uint256",
          "name": "contratNumber",
          "type": "uint256"
        }
      ],
      "name": "getRate",
      "outputs": [
        {
          "internalType": "uint256",
          "name": "_rate",
          "type": "uint256"
        }
      ],
      "payable": false,
      "stateMutability": "view",
      "type": "function"
    },
    {
      "constant": true,
      "inputs": [
        {
          "internalType": "uint256",
          "name": "contratNumber",
          "type": "uint256"
        }
      ],
      "name": "getId",
      "outputs": [
        {
          "internalType": "uint256",
          "name": "_id",
          "type": "uint256"
        }
      ],
      "payable": false,
      "stateMutability": "view",
      "type": "function"
    },
    {
      "constant": true,
      "inputs": [
        {
          "internalType": "uint256",
          "name": "contratNumber",
          "type": "uint256"
        }
      ],
      "name": "getDuration",
      "outputs": [
        {
          "internalType": "uint256",
          "name": "_duration",
          "type": "uint256"
        }
      ],
      "payable": false,
      "stateMutability": "view",
      "type": "function"
    },
    {
      "constant": true,
      "inputs": [
        {
          "internalType": "uint256",
          "name": "contratNumber",
          "type": "uint256"
        }
      ],
      "name": "getTotalAmount",
      "outputs": [
        {
          "internalType": "uint256",
          "name": "_totalAmount",
          "type": "uint256"
        }
      ],
      "payable": false,
      "stateMutability": "view",
      "type": "function"
    },
    {
      "constant": true,
      "inputs": [
        {
          "internalType": "uint256",
          "name": "contratNumber",
          "type": "uint256"
        }
      ],
      "name": "getBorrower",
      "outputs": [
        {
          "internalType": "string",
          "name": "_borrower",
          "type": "string"
        }
      ],
      "payable": false,
      "stateMutability": "view",
      "type": "function"
    },
    {
      "constant": true,
      "inputs": [
        {
          "internalType": "uint256",
          "name": "contratNumber",
          "type": "uint256"
        }
      ],
      "name": "getLender",
      "outputs": [
        {
          "internalType": "string",
          "name": "_lender",
          "type": "string"
        }
      ],
      "payable": false,
      "stateMutability": "view",
      "type": "function"
    },
    {
      "constant": true,
      "inputs": [
        {
          "internalType": "uint256",
          "name": "contratNumber",
          "type": "uint256"
        },
        {
          "internalType": "uint256",
          "name": "transactionId",
          "type": "uint256"
        }
      ],
      "name": "getCurrentDate",
      "outputs": [
        {
          "internalType": "int256",
          "name": "_currentDate",
          "type": "int256"
        }
      ],
      "payable": false,
      "stateMutability": "view",
      "type": "function"
    },
    {
      "constant": true,
      "inputs": [
        {
          "internalType": "uint256",
          "name": "contratNumber",
          "type": "uint256"
        },
        {
          "internalType": "uint256",
          "name": "transactionId",
          "type": "uint256"
        }
      ],
      "name": "getTheoricalDate",
      "outputs": [
        {
          "internalType": "int256",
          "name": "_theoricalDate",
          "type": "int256"
        }
      ],
      "payable": false,
      "stateMutability": "view",
      "type": "function"
    },
    {
      "constant": true,
      "inputs": [
        {
          "internalType": "uint256",
          "name": "contratNumber",
          "type": "uint256"
        },
        {
          "internalType": "uint256",
          "name": "transactionId",
          "type": "uint256"
        }
      ],
      "name": "getRemainingDuration",
      "outputs": [
        {
          "internalType": "uint256",
          "name": "_remainingDuration",
          "type": "uint256"
        }
      ],
      "payable": false,
      "stateMutability": "view",
      "type": "function"
    },
    {
      "constant": true,
      "inputs": [
        {
          "internalType": "uint256",
          "name": "contratNumber",
          "type": "uint256"
        },
        {
          "internalType": "uint256",
          "name": "transactionId",
          "type": "uint256"
        }
      ],
      "name": "getRemainingAmount",
      "outputs": [
        {
          "internalType": "uint256",
          "name": "_remainingAmount",
          "type": "uint256"
        }
      ],
      "payable": false,
      "stateMutability": "view",
      "type": "function"
    },
    {
      "constant": true,
      "inputs": [
        {
          "internalType": "uint256",
          "name": "contratNumber",
          "type": "uint256"
        },
        {
          "internalType": "uint256",
          "name": "transactionId",
          "type": "uint256"
        }
      ],
      "name": "getTransactionAmount",
      "outputs": [
        {
          "internalType": "uint256",
          "name": "_transactionAmount",
          "type": "uint256"
        }
      ],
      "payable": false,
      "stateMutability": "view",
      "type": "function"
    },
    {
      "constant": true,
      "inputs": [
        {
          "internalType": "string",
          "name": "_lender",
          "type": "string"
        },
        {
          "internalType": "string",
          "name": "_borrower",
          "type": "string"
        }
      ],
      "name": "existContract",
      "outputs": [
        {
          "internalType": "bool",
          "name": "",
          "type": "bool"
        }
      ],
      "payable": false,
      "stateMutability": "view",
      "type": "function"
    },
    {
      "constant": true,
      "inputs": [
        {
          "internalType": "string",
          "name": "user",
          "type": "string"
        }
      ],
      "name": "nbLoans",
      "outputs": [
        {
          "internalType": "uint256",
          "name": "",
          "type": "uint256"
        }
      ],
      "payable": false,
      "stateMutability": "view",
      "type": "function"
    },
    {
      "constant": true,
      "inputs": [
        {
          "internalType": "int256",
          "name": "date1",
          "type": "int256"
        },
        {
          "internalType": "int256",
          "name": "date2",
          "type": "int256"
        }
      ],
      "name": "dateDiff",
      "outputs": [
        {
          "internalType": "int256",
          "name": "",
          "type": "int256"
        }
      ],
      "payable": false,
      "stateMutability": "view",
      "type": "function"
    },
    {
      "constant": true,
      "inputs": [
        {
          "internalType": "string",
          "name": "user",
          "type": "string"
        }
      ],
      "name": "reputation",
      "outputs": [
        {
          "internalType": "int256",
          "name": "",
          "type": "int256"
        }
      ],
      "payable": false,
      "stateMutability": "view",
      "type": "function"
    },
    {
      "constant": true,
      "inputs": [
        {
          "internalType": "string",
          "name": "a",
          "type": "string"
        },
        {
          "internalType": "string",
          "name": "b",
          "type": "string"
        }
      ],
      "name": "compareStrings",
      "outputs": [
        {
          "internalType": "bool",
          "name": "",
          "type": "bool"
        }
      ],
      "payable": false,
      "stateMutability": "view",
      "type": "function"
    },
    {
      "constant": true,
      "inputs": [
        {
          "internalType": "string",
          "name": "user",
          "type": "string"
        },
        {
          "internalType": "uint256",
          "name": "contractNumber",
          "type": "uint256"
        }
      ],
      "name": "testContractUser",
      "outputs": [
        {
          "internalType": "int256",
          "name": "_value",
          "type": "int256"
        }
      ],
      "payable": false,
      "stateMutability": "view",
      "type": "function"
    }
  ],
  "bytecode": "0x608060405260006001553480156200001657600080fd5b506040518060400160405280601a81526020017f436f6e7472617420456e74726520506172746963756c6965727300000000000081525060009080519060200190620000649291906200006b565b506200011a565b828054600181600116156101000203166002900490600052602060002090601f016020900481019282601f10620000ae57805160ff1916838001178555620000df565b82800160010185558215620000df579182015b82811115620000de578251825591602001919060010190620000c1565b5b509050620000ee9190620000f2565b5090565b6200011791905b8082111562000113576000816000905550600101620000f9565b5090565b90565b612709806200012a6000396000f3fe608060405234801561001057600080fd5b50600436106101da5760003560e01c80638736381a11610104578063a8a2da0d116100a2578063e3ddf83411610071578063e3ddf83414610efc578063f0e4066214610f2a578063f17ed76a14610f6c578063fa2c7f9b14610fb8576101da565b8063a8a2da0d14610bc2578063b2bb728e14610d22578063bed34bba14610d5a578063dfa0ef1414610ec4576101da565b80639a6b2689116100de5780639a6b2689146109e45780639d7625e514610b4e5780639df08f1814610b58578063a87d942c14610ba4576101da565b80638736381a146108b55780638b7601cf146108d35780638bb126a7146109a2576101da565b80633e8cb4601161017c578063545a153a1161014b578063545a153a14610748578063577640941461078a578063589a557f146107cc5780638500d9191461080e576101da565b80633e8cb460146104995780634635b9b2146105725780634feddcc6146105b457806351f99693146105f6576101da565b806313a422c3116101b857806313a422c3146102fa5780632e4e1a63146103c95780633969855c146104155780633e1088e814610461576101da565b806306fdde03146101df5780630cc3a36e14610262578063120245f6146102ae575b600080fd5b6101e761105f565b6040518080602001828103825283818151815260200191508051906020019080838360005b8381101561022757808201518184015260208101905061020c565b50505050905090810190601f1680156102545780820380516001836020036101000a031916815260200191505b509250505060405180910390f35b6102986004803603604081101561027857600080fd5b8101908080359060200190929190803590602001909291905050506110fd565b6040518082815260200191505060405180910390f35b6102e4600480360360408110156102c457600080fd5b810190808035906020019092919080359060200190929190505050611132565b6040518082815260200191505060405180910390f35b6103b36004803603602081101561031057600080fd5b810190808035906020019064010000000081111561032d57600080fd5b82018360208201111561033f57600080fd5b8035906020019184600183028401116401000000008311171561036157600080fd5b91908080601f016020809104026020016040519081016040528093929190818152602001838380828437600081840152601f19601f820116905080830192505050505050509192919290505050611167565b6040518082815260200191505060405180910390f35b6103ff600480360360408110156103df57600080fd5b810190808035906020019092919080359060200190929190505050611507565b6040518082815260200191505060405180910390f35b61044b6004803603604081101561042b57600080fd5b8101908080359060200190929190803590602001909291905050506115cd565b6040518082815260200191505060405180910390f35b6104976004803603604081101561047757600080fd5b810190808035906020019092919080359060200190929190505050611602565b005b61055c600480360360408110156104af57600080fd5b81019080803590602001906401000000008111156104cc57600080fd5b8201836020820111156104de57600080fd5b8035906020019184600183028401116401000000008311171561050057600080fd5b91908080601f016020809104026020016040519081016040528093929190818152602001838380828437600081840152601f19601f82011690508083019250505050505050919291929080359060200190929190505050611662565b6040518082815260200191505060405180910390f35b6105b26004803603606081101561058857600080fd5b81019080803590602001909291908035906020019092919080359060200190929190505050611826565b005b6105e0600480360360208110156105ca57600080fd5b81019080803590602001909291905050506118b5565b6040518082815260200191505060405180910390f35b6107466004803603604081101561060c57600080fd5b810190808035906020019064010000000081111561062957600080fd5b82018360208201111561063b57600080fd5b8035906020019184600183028401116401000000008311171561065d57600080fd5b91908080601f016020809104026020016040519081016040528093929190818152602001838380828437600081840152601f19601f820116905080830192505050505050509192919290803590602001906401000000008111156106c057600080fd5b8201836020820111156106d257600080fd5b803590602001918460018302840111640100000000831117156106f457600080fd5b91908080601f016020809104026020016040519081016040528093929190818152602001838380828437600081840152601f19601f8201169050808301925050505050505091929192905050506118d5565b005b6107746004803603602081101561075e57600080fd5b8101908080359060200190929190505050611970565b6040518082815260200191505060405180910390f35b6107b6600480360360208110156107a057600080fd5b81019080803590602001909291905050506119a4565b6040518082815260200191505060405180910390f35b6107f8600480360360208110156107e257600080fd5b81019080803590602001909291905050506119d8565b6040518082815260200191505060405180910390f35b61083a6004803603602081101561082457600080fd5b81019080803590602001909291905050506119f0565b6040518080602001828103825283818151815260200191508051906020019080838360005b8381101561087a57808201518184015260208101905061085f565b50505050905090810190601f1680156108a75780820380516001836020036101000a031916815260200191505b509250505060405180910390f35b6108bd611abc565b6040518082815260200191505060405180910390f35b61098c600480360360208110156108e957600080fd5b810190808035906020019064010000000081111561090657600080fd5b82018360208201111561091857600080fd5b8035906020019184600183028401116401000000008311171561093a57600080fd5b91908080601f016020809104026020016040519081016040528093929190818152602001838380828437600081840152601f19601f820116905080830192505050505050509192919290505050611ac2565b6040518082815260200191505060405180910390f35b6109ce600480360360208110156109b857600080fd5b8101908080359060200190929190505050611c11565b6040518082815260200191505060405180910390f35b610b34600480360360408110156109fa57600080fd5b8101908080359060200190640100000000811115610a1757600080fd5b820183602082011115610a2957600080fd5b80359060200191846001830284011164010000000083111715610a4b57600080fd5b91908080601f016020809104026020016040519081016040528093929190818152602001838380828437600081840152601f19601f82011690508083019250505050505050919291929080359060200190640100000000811115610aae57600080fd5b820183602082011115610ac057600080fd5b80359060200191846001830284011164010000000083111715610ae257600080fd5b91908080601f016020809104026020016040519081016040528093929190818152602001838380828437600081840152601f19601f820116905080830192505050505050509192919290505050611c45565b604051808215151515815260200191505060405180910390f35b610b56611eb0565b005b610b8e60048036036040811015610b6e57600080fd5b810190808035906020019092919080359060200190929190505050611ec4565b6040518082815260200191505060405180910390f35b610bac611f99565b6040518082815260200191505060405180910390f35b610bf860048036036040811015610bd857600080fd5b810190808035906020019092919080359060200190929190505050611fa6565b604051808c815260200180602001806020018b81526020018a81526020018981526020018881526020018781526020018681526020018581526020018415151515815260200183810383528d818151815260200191508051906020019080838360005b83811015610c76578082015181840152602081019050610c5b565b50505050905090810190601f168015610ca35780820380516001836020036101000a031916815260200191505b5083810382528c818151815260200191508051906020019080838360005b83811015610cdc578082015181840152602081019050610cc1565b50505050905090810190601f168015610d095780820380516001836020036101000a031916815260200191505b509d505050505050505050505050505060405180910390f35b610d5860048036036040811015610d3857600080fd5b81019080803590602001909291908035906020019092919050505061214a565b005b610eaa60048036036040811015610d7057600080fd5b8101908080359060200190640100000000811115610d8d57600080fd5b820183602082011115610d9f57600080fd5b80359060200191846001830284011164010000000083111715610dc157600080fd5b91908080601f016020809104026020016040519081016040528093929190818152602001838380828437600081840152601f19601f82011690508083019250505050505050919291929080359060200190640100000000811115610e2457600080fd5b820183602082011115610e3657600080fd5b80359060200191846001830284011164010000000083111715610e5857600080fd5b91908080601f016020809104026020016040519081016040528093929190818152602001838380828437600081840152601f19601f8201169050808301925050505050505091929192905050506122d8565b604051808215151515815260200191505060405180910390f35b610efa60048036036040811015610eda57600080fd5b8101908080359060200190929190803590602001909291905050506123c7565b005b610f2860048036036020811015610f1257600080fd5b81019080803590602001909291905050506124d4565b005b610f5660048036036020811015610f4057600080fd5b81019080803590602001909291905050506124fa565b6040518082815260200191505060405180910390f35b610fa260048036036040811015610f8257600080fd5b81019080803590602001909291908035906020019092919050505061252e565b6040518082815260200191505060405180910390f35b610fe460048036036020811015610fce57600080fd5b8101908080359060200190929190505050612563565b6040518080602001828103825283818151815260200191508051906020019080838360005b83811015611024578082015181840152602081019050611009565b50505050905090810190601f1680156110515780820380516001836020036101000a031916815260200191505b509250505060405180910390f35b60008054600181600116156101000203166002900480601f0160208091040260200160405190810160405280929190818152602001828054600181600116156101000203166002900480156110f55780601f106110ca576101008083540402835291602001916110f5565b820191906000526020600020905b8154815290600101906020018083116110d857829003601f168201915b505050505081565b600060026000848152602001908152602001600020600083815260200190815260200160002060060154905080905092915050565b600060026000848152602001908152602001600020600083815260200190815260200160002060090154905080905092915050565b6000806000905060008090505b6001548110156114fd57836040516020018082805190602001908083835b602083106111b55780518252602082019150602081019050602083039250611192565b6001836020036101000a0380198251168184511680821785525050505050509050019150506040516020818303038152906040528051906020012060026000838152602001908152602001600020600080815260200190815260200160002060010160405160200180828054600181600116156101000203166002900480156112755780601f10611253576101008083540402835291820191611275565b820191906000526020600020905b815481529060010190602001808311611261575b50509150506040516020818303038152906040528051906020012014156112f7576000600260008381526020019081526020016000206000808152602001908152602001600020600401549050614e208111156112ee5761c3508111156112e257600692508292506112e9565b6003830192505b6112f5565b6001830192505b505b836040516020018082805190602001908083835b6020831061132e578051825260208201915060208101905060208303925061130b565b6001836020036101000a0380198251168184511680821785525050505050509050019150506040516020818303038152906040528051906020012060026000838152602001908152602001600020600080815260200190815260200160002060020160405160200180828054600181600116156101000203166002900480156113ee5780601f106113cc5761010080835404028352918201916113ee565b820191906000526020600020905b8154815290600101906020018083116113da575b50509150506040516020818303038152906040528051906020012014156114f05781806001019250506000600360008381526020019081526020016000205490506000600190505b600182018110156114ed576000600260008581526020019081526020016000206000838152602001908152602001600020600601549050600060026000868152602001908152602001600020600084815260200190815260200160002060070154905060006114a58284611ec4565b905060008113156114dd57606481126114cc57600a81816114c257fe5b05870396506114dc565b600381816114d657fe5b05870396505b5b5050508080600101915050611436565b50505b8080600101915050611174565b5080915050919050565b6000600182141561156d5760026000848152602001908152602001600020600083815260200190815260200160002060090154600260008581526020019081526020016000206000600185038152602001908152602001600020600401540390506115c4565b60026000848152602001908152602001600020600083815260200190815260200160002060090154600260008581526020019081526020016000206000600185038152602001908152602001600020600901540390505b80905092915050565b600060026000848152602001908152602001600020600083815260200190815260200160002060070154905080905092915050565b81600260006001548152602001908152602001600020600080815260200190815260200160002060060181905550806002600060015481526020019081526020016000206000808152602001908152602001600020600001819055505050565b600061172d6002600084815260200190815260200160002060008081526020019081526020016000206001018054600181600116156101000203166002900480601f0160208091040260200160405190810160405280929190818152602001828054600181600116156101000203166002900480156117225780601f106116f757610100808354040283529160200191611722565b820191906000526020600020905b81548152906001019060200180831161170557829003601f168201915b5050505050846122d8565b1561173e5760019050809050611820565b6118076002600084815260200190815260200160002060008081526020019081526020016000206002018054600181600116156101000203166002900480601f0160208091040260200160405190810160405280929190818152602001828054600181600116156101000203166002900480156117fc5780601f106117d1576101008083540402835291602001916117fc565b820191906000526020600020905b8154815290600101906020018083116117df57829003601f168201915b5050505050846122d8565b156118185760029050809050611820565b600090508090505b92915050565b826002600060015481526020019081526020016000206000808152602001908152602001600020600301819055508160026000600154815260200190815260200160002060008081526020019081526020016000206005018190555080600260006001548152602001908152602001600020600080815260200190815260200160002060040181905550505050565b600060036000838152602001908152602001600020549050809050919050565b816002600060015481526020019081526020016000206000808152602001908152602001600020600201908051906020019061191292919061262f565b50806002600060015481526020019081526020016000206000808152602001908152602001600020600101908051906020019061195092919061262f565b506000600360006001548152602001908152602001600020819055505050565b6000600260008381526020019081526020016000206000808152602001908152602001600020600001549050809050919050565b6000600260008381526020019081526020016000206000808152602001908152602001600020600301549050809050919050565b60036020528060005260406000206000915090505481565b60606002600083815260200190815260200160002060008081526020019081526020016000206002018054600181600116156101000203166002900480601f016020809104026020016040519081016040528092919081815260200182805460018160011615610100020316600290048015611aad5780601f10611a8257610100808354040283529160200191611aad565b820191906000526020600020905b815481529060010190602001808311611a9057829003601f168201915b50505050509050809050919050565b60015481565b6000806000905060008090505b600154811015611c0757836040516020018082805190602001908083835b60208310611b105780518252602082019150602081019050602083039250611aed565b6001836020036101000a038019825116818451168082178552505050505050905001915050604051602081830303815290604052805190602001206002600083815260200190815260200160002060008081526020019081526020016000206001016040516020018082805460018160011615610100020316600290048015611bd05780601f10611bae576101008083540402835291820191611bd0565b820191906000526020600020905b815481529060010190602001808311611bbc575b5050915050604051602081830303815290604052805190602001201415611bfa5781806001019250505b8080600101915050611acf565b5080915050919050565b6000600260008381526020019081526020016000206000808152602001908152602001600020600501549050809050919050565b6000806000905060008090505b600154811015611ea557846040516020018082805190602001908083835b60208310611c935780518252602082019150602081019050602083039250611c70565b6001836020036101000a038019825116818451168082178552505050505050905001915050604051602081830303815290604052805190602001206002600083815260200190815260200160002060008081526020019081526020016000206001016040516020018082805460018160011615610100020316600290048015611d535780601f10611d31576101008083540402835291820191611d53565b820191906000526020600020905b815481529060010190602001808311611d3f575b505091505060405160208183030381529060405280519060200120148015611e8a5750836040516020018082805190602001908083835b60208310611dad5780518252602082019150602081019050602083039250611d8a565b6001836020036101000a038019825116818451168082178552505050505050905001915050604051602081830303815290604052805190602001206002600083815260200190815260200160002060008081526020019081526020016000206002016040516020018082805460018160011615610100020316600290048015611e6d5780601f10611e4b576101008083540402835291820191611e6d565b820191906000526020600020905b815481529060010190602001808311611e59575b505091505060405160208183030381529060405280519060200120145b15611e985760019150611ea5565b8080600101915050611c52565b508091505092915050565b600160008154809291906001019190505550565b6000806127108481611ed257fe5b059050600060646127108302860381611ee757fe5b0590506000606482026127108402870303905060006127108681611f0757fe5b059050600060646127108302880381611f1c57fe5b059050600060648202612710840289030390506000868403905060008684039050600086840390506000811215611f5d57818060019003925050601e810190505b6000821215611f7657828060019003935050600c820191505b60008160648402612710860201019050809a505050505050505050505092915050565b6000600154905080905090565b600260205281600052604060002060205280600052604060002060009150915050806000015490806001018054600181600116156101000203166002900480601f0160208091040260200160405190810160405280929190818152602001828054600181600116156101000203166002900480156120655780601f1061203a57610100808354040283529160200191612065565b820191906000526020600020905b81548152906001019060200180831161204857829003601f168201915b505050505090806002018054600181600116156101000203166002900480601f0160208091040260200160405190810160405280929190818152602001828054600181600116156101000203166002900480156121035780601f106120d857610100808354040283529160200191612103565b820191906000526020600020905b8154815290600101906020018083116120e657829003601f168201915b50505050509080600301549080600401549080600501549080600601549080600701549080600801549080600901549080600a0160009054906101000a900460ff1690508b565b6000600360008481526020019081526020016000205490506000811415612221578160026000858152602001908152602001600020600080815260200190815260200160002060040154036002600085815260200190815260200160002060006001840181526020019081526020016000206009018190555060016002600085815260200190815260200160002060008081526020019081526020016000206005015403600260008581526020019081526020016000206000600184018152602001908152602001600020600801819055506122d3565b8160026000858152602001908152602001600020600083815260200190815260200160002060090154036002600085815260200190815260200160002060006001840181526020019081526020016000206009018190555060016002600085815260200190815260200160002060008381526020019081526020016000206008015403600260008581526020019081526020016000206000600184018152602001908152602001600020600801819055505b505050565b6000816040516020018082805190602001908083835b6020831061231157805182526020820191506020810190506020830392506122ee565b6001836020036101000a03801982511681845116808217855250505050505090500191505060405160208183030381529060405280519060200120836040516020018082805190602001908083835b602083106123835780518252602082019150602081019050602083039250612360565b6001836020036101000a0380198251168184511680821785525050505050509050019150506040516020818303038152906040528051906020012014905092915050565b600060036000848152602001908152602001600020549050816002600085815260200190815260200160002060006001840181526020019081526020016000206006018190555060008114156124755760646002600085815260200190815260200160002060008081526020019081526020016000206006015401600260008581526020019081526020016000206000600184018152602001908152602001600020600701819055506124cf565b60646002600085815260200190815260200160002060008381526020019081526020016000206007015401600260008581526020019081526020016000206000600184018152602001908152602001600020600701819055505b505050565b600360008281526020019081526020016000206000815480929190600101919050555050565b6000600260008381526020019081526020016000206000808152602001908152602001600020600401549050809050919050565b600060026000848152602001908152602001600020600083815260200190815260200160002060080154905080905092915050565b60606002600083815260200190815260200160002060008081526020019081526020016000206001018054600181600116156101000203166002900480601f0160208091040260200160405190810160405280929190818152602001828054600181600116156101000203166002900480156126205780601f106125f557610100808354040283529160200191612620565b820191906000526020600020905b81548152906001019060200180831161260357829003601f168201915b50505050509050809050919050565b828054600181600116156101000203166002900490600052602060002090601f016020900481019282601f1061267057805160ff191683800117855561269e565b8280016001018555821561269e579182015b8281111561269d578251825591602001919060010190612682565b5b5090506126ab91906126af565b5090565b6126d191905b808211156126cd5760008160009055506001016126b5565b5090565b9056fea265627a7a72315820e54d32b9f6e6a9f799343d6ee52c3e3bb697cf10f389e742c7525600b3c807dc64736f6c63430005100032",
  "source": "pragma solidity >=0.4.21 <0.7.0;\n\ncontract Contract {\n\n  string public name;\n  uint public contractCount = 0;\n\n  struct Contract_user {\n    uint id;\n    string lender;\n    string borrower;\n    uint rate;\n    uint totalAmount;\n    uint duration;\n    int currentDate;\n    int theoricalDate;\n    uint remainingDuration;\n    uint remainingAmount;\n    bool status;\n  }\n\n  mapping(uint => mapping(uint => Contract_user)) public usersContracts;\n  mapping(uint => uint) public nbTransaction;\n\n  constructor() public{\n    name = \"Contrat Entre Particuliers\";\n  }\n\n\n  function increaseContract() public{\n    contractCount++;\n  }\n\n  function createContract1(uint _rate,uint _duration,uint _totalAmount) public{\n    usersContracts[contractCount][0].rate = _rate;\n    usersContracts[contractCount][0].duration = _duration;\n    usersContracts[contractCount][0].totalAmount = _totalAmount;\n  }\n\n  function createContract2(string memory _borrower,string memory _lender) public{\n    usersContracts[contractCount][0].borrower = _borrower;\n    usersContracts[contractCount][0].lender = _lender;\n    nbTransaction[contractCount] = 0;\n  }\n\n  function createContract3(int _currentDate,uint _id) public{\n    usersContracts[contractCount][0].currentDate = _currentDate;\n    usersContracts[contractCount][0].id = _id;\n  }\n\n  function increaseTrans(uint _id) public{\n    nbTransaction[_id]++;\n  }\n\n  function transaction1(uint _id,uint _sum) public{\n        uint transactionId = nbTransaction[_id];\n        if (transactionId==0){\n          usersContracts[_id][transactionId+1].remainingAmount = usersContracts[_id][0].totalAmount - _sum;\n          usersContracts[_id][transactionId+1].remainingDuration = usersContracts[_id][0].duration - 1;\n        }\n        else{\n        usersContracts[_id][transactionId+1].remainingAmount = usersContracts[_id][transactionId].remainingAmount - _sum;\n        usersContracts[_id][transactionId+1].remainingDuration = usersContracts[_id][transactionId].remainingDuration - 1;\n        }\n  }\n\n  function transaction2(uint _id,int _currentDate) public{\n        uint transactionId = nbTransaction[_id];\n        usersContracts[_id][transactionId+1].currentDate = _currentDate;\n        if (transactionId ==0){\n          usersContracts[_id][transactionId+1].theoricalDate = usersContracts[_id][0].currentDate + 100;\n        }\n        else{\n        usersContracts[_id][transactionId+1].theoricalDate = usersContracts[_id][transactionId].theoricalDate + 100;\n        }\n  }\n\n\n  function getCount() public view returns (uint _count){\n    _count = contractCount;\n    return _count;\n  }\n\n  function getNbTransaction(uint contratNumber) public view returns (uint _nbTransaction){\n    _nbTransaction = nbTransaction[contratNumber];\n    return _nbTransaction;\n  }\n\n  function getRate(uint contratNumber) public view returns (uint _rate){\n    _rate = usersContracts[contratNumber][0].rate;\n    return _rate;\n  }\n\n  function getId(uint contratNumber) public view returns (uint _id){\n    _id = usersContracts[contratNumber][0].id;\n    return _id;\n  }\n\n  function getDuration(uint contratNumber) public view returns (uint _duration){\n    _duration = usersContracts[contratNumber][0].duration;\n    return _duration;\n  }\n\n  function getTotalAmount(uint contratNumber) public view returns (uint _totalAmount){\n    _totalAmount = usersContracts[contratNumber][0].totalAmount;\n    return _totalAmount;\n  }\n\n  function getBorrower(uint contratNumber) public view returns (string memory _borrower){\n    _borrower = usersContracts[contratNumber][0].borrower;\n    return _borrower;\n  }\n\n  function getLender(uint contratNumber) public view returns (string memory _lender){\n    _lender = usersContracts[contratNumber][0].lender;\n    return _lender;\n  }\n\n  function getCurrentDate(uint contratNumber, uint transactionId) public view returns (int _currentDate){\n    _currentDate = usersContracts[contratNumber][transactionId].currentDate;\n    return _currentDate;\n  }\n\n  function getTheoricalDate(uint contratNumber, uint transactionId) public view returns (int _theoricalDate){\n    _theoricalDate = usersContracts[contratNumber][transactionId].theoricalDate;\n    return _theoricalDate;\n  }\n\n  function getRemainingDuration(uint contratNumber, uint transactionId) public view returns (uint _remainingDuration){\n    _remainingDuration = usersContracts[contratNumber][transactionId].remainingDuration;\n    return _remainingDuration;\n  }\n\n  function getRemainingAmount(uint contratNumber, uint transactionId) public view returns (uint _remainingAmount){\n    _remainingAmount = usersContracts[contratNumber][transactionId].remainingAmount;\n    return _remainingAmount;\n  }\n\n  function getTransactionAmount(uint contratNumber, uint transactionId) public view returns (uint _transactionAmount){\n    if (transactionId == 1){\n      _transactionAmount = usersContracts[contratNumber][transactionId-1].totalAmount - usersContracts[contratNumber][transactionId].remainingAmount;\n    }\n    else{\n      _transactionAmount = usersContracts[contratNumber][transactionId-1].remainingAmount - usersContracts[contratNumber][transactionId].remainingAmount;\n    }\n\n    return _transactionAmount;\n  }\n\n  function existContract (string memory _lender,string memory _borrower) public view returns (bool) {\n    bool exist = false;\n    for (uint p = 0; p<contractCount; p++){\n      if ((keccak256(abi.encodePacked((usersContracts[p][0].lender))) == keccak256(abi.encodePacked((_lender))))&&(keccak256(abi.encodePacked((usersContracts[p][0].borrower))) == keccak256(abi.encodePacked((_borrower))))){\n        exist = true;\n        break;\n      }\n    }\n    return exist;\n  }\n\n  function nbLoans(string memory user) public view returns (uint){\n      uint loanCount = 0;\n      for (uint p = 0; p<contractCount; p++){\n        if (keccak256(abi.encodePacked((usersContracts[p][0].lender))) == keccak256(abi.encodePacked((user))))\n          loanCount++;\n      }\n      return loanCount;\n  }\n\n  function dateDiff (int date1, int date2) public view returns (int) {\n    int year1 = date1/10000;\n    int month1 = (date1 - (year1 * 10000)) / 100;\n    int day1 = date1 - (year1 * 10000) - (month1 * 100);\n    int year2 = date2/10000;\n    int month2 = (date2 - (year2 * 10000)) / 100;\n    int day2 = date2 - (year2 * 10000) - (month2 * 100);\n    int yearDiff = year2 - year1;\n    int monthDiff = month2 - month1;\n    int dayDiff = day2 - day1;\n    if (dayDiff <0){\n      monthDiff--;\n      dayDiff = dayDiff + 30;\n    }\n    if (monthDiff <0){\n      yearDiff--;\n      monthDiff = monthDiff + 12;\n    }\n    int res = yearDiff*10000  + monthDiff*100 + dayDiff;\n    return res;\n  }\n\n  function reputation(string memory user) public view returns(int){\n    int reput = 0;\n    for (uint i = 0; i<contractCount; i++){\n      if (keccak256(abi.encodePacked((usersContracts[i][0].lender))) == keccak256(abi.encodePacked((user)))){\n        uint montant = usersContracts[i][0].totalAmount;\n        if (montant > 20000){\n          if (montant > 50000){\n            reput = reput = 6;\n          }\n          else{\n          reput = reput + 3;\n          }\n        }\n        else{\n          reput = reput + 1;\n        }\n      }\n      if (keccak256(abi.encodePacked((usersContracts[i][0].borrower))) == keccak256(abi.encodePacked((user)))){\n        reput ++;\n        uint transactions = nbTransaction[i];\n        for (uint j=1; j<transactions+1; j++){\n          int date_r = usersContracts[i][j].currentDate;\n          int date_t = usersContracts[i][j].theoricalDate;\n          int diff = dateDiff (date_t,date_r);\n          if (diff>0){\n            if (diff>=100){\n              reput = reput - diff/10;\n            }\n            else{\n              reput = reput - diff/3;\n            }\n          }\n        }\n      }\n    }\n    return reput;\n  }\n  function compareStrings (string memory a, string memory b) public view returns (bool) {\n    return (keccak256(abi.encodePacked((a))) == keccak256(abi.encodePacked((b))));\n  }\n\n  function testContractUser (string memory user, uint contractNumber) public view returns (int _value){\n    if (compareStrings(usersContracts[contractNumber][0].lender, user)){\n      _value = 1;\n      return _value; //contrat en tant que lender\n    }\n    else if (compareStrings(usersContracts[contractNumber][0].borrower, user)){\n      _value = 2;\n      return _value; //contrat en tant qu'emprunter\n    }\n    else{\n      _value = 0;\n      return _value; //contrat pas au user\n    }\n  }\n}\n",
  "sourcePath": "/home/thomas/Desktop/Bankeirble/blockchain/contracts/Contract.sol",
  "compiler": {
    "name": "solc",
    "version": "0.5.16+commit.9c3226ce.Emscripten.clang"
  },
  "schemaVersion": "3.0.23",
  "updatedAt": "2020-04-20T07:04:10.132Z",
  "networkType": "ethereum",
  "devdoc": {
    "methods": {}
  },
  "userdoc": {
    "methods": {}
  }
}