{
  "contractName": "Contract",
  "abi": [
    {
      "inputs": [],
      "payable": false,
      "stateMutability": "nonpayable",
      "type": "constructor"
    },
    {
      "constant": true,
      "inputs": [],
      "name": "contract_count",
      "outputs": [
        {
          "internalType": "uint256",
          "name": "",
          "type": "uint256"
        }
      ],
      "payable": false,
      "stateMutability": "view",
      "type": "function"
    },
    {
      "constant": true,
      "inputs": [
        {
          "internalType": "uint256",
          "name": "",
          "type": "uint256"
        },
        {
          "internalType": "uint256",
          "name": "",
          "type": "uint256"
        }
      ],
      "name": "contract_users",
      "outputs": [
        {
          "internalType": "uint256",
          "name": "id",
          "type": "uint256"
        },
        {
          "internalType": "string",
          "name": "preteur",
          "type": "string"
        },
        {
          "internalType": "string",
          "name": "emprunteur",
          "type": "string"
        },
        {
          "internalType": "uint256",
          "name": "taux",
          "type": "uint256"
        },
        {
          "internalType": "uint256",
          "name": "montant_total",
          "type": "uint256"
        },
        {
          "internalType": "uint256",
          "name": "echeance_totale",
          "type": "uint256"
        },
        {
          "internalType": "int256",
          "name": "date_reelle",
          "type": "int256"
        },
        {
          "internalType": "int256",
          "name": "date_theorique",
          "type": "int256"
        },
        {
          "internalType": "uint256",
          "name": "echeance_restante",
          "type": "uint256"
        },
        {
          "internalType": "uint256",
          "name": "montant_restant",
          "type": "uint256"
        },
        {
          "internalType": "bool",
          "name": "status",
          "type": "bool"
        }
      ],
      "payable": false,
      "stateMutability": "view",
      "type": "function"
    },
    {
      "constant": true,
      "inputs": [],
      "name": "name",
      "outputs": [
        {
          "internalType": "string",
          "name": "",
          "type": "string"
        }
      ],
      "payable": false,
      "stateMutability": "view",
      "type": "function"
    },
    {
      "constant": true,
      "inputs": [
        {
          "internalType": "uint256",
          "name": "",
          "type": "uint256"
        }
      ],
      "name": "nombre_transaction",
      "outputs": [
        {
          "internalType": "uint256",
          "name": "",
          "type": "uint256"
        }
      ],
      "payable": false,
      "stateMutability": "view",
      "type": "function"
    },
    {
      "constant": false,
      "inputs": [],
      "name": "increaseContract",
      "outputs": [],
      "payable": false,
      "stateMutability": "nonpayable",
      "type": "function"
    },
    {
      "constant": false,
      "inputs": [
        {
          "internalType": "uint256",
          "name": "_taux",
          "type": "uint256"
        },
        {
          "internalType": "uint256",
          "name": "_echeance_totale",
          "type": "uint256"
        },
        {
          "internalType": "uint256",
          "name": "_montant_total",
          "type": "uint256"
        }
      ],
      "name": "createContract1",
      "outputs": [],
      "payable": false,
      "stateMutability": "nonpayable",
      "type": "function"
    },
    {
      "constant": false,
      "inputs": [
        {
          "internalType": "string",
          "name": "_emprunteur",
          "type": "string"
        },
        {
          "internalType": "string",
          "name": "_preteur",
          "type": "string"
        }
      ],
      "name": "createContract2",
      "outputs": [],
      "payable": false,
      "stateMutability": "nonpayable",
      "type": "function"
    },
    {
      "constant": false,
      "inputs": [
        {
          "internalType": "int256",
          "name": "_date_reelle",
          "type": "int256"
        },
        {
          "internalType": "uint256",
          "name": "_id",
          "type": "uint256"
        }
      ],
      "name": "createContract3",
      "outputs": [],
      "payable": false,
      "stateMutability": "nonpayable",
      "type": "function"
    },
    {
      "constant": false,
      "inputs": [
        {
          "internalType": "uint256",
          "name": "_id",
          "type": "uint256"
        }
      ],
      "name": "increaseTrans",
      "outputs": [],
      "payable": false,
      "stateMutability": "nonpayable",
      "type": "function"
    },
    {
      "constant": false,
      "inputs": [
        {
          "internalType": "uint256",
          "name": "_id",
          "type": "uint256"
        },
        {
          "internalType": "uint256",
          "name": "_somme",
          "type": "uint256"
        }
      ],
      "name": "transaction1",
      "outputs": [],
      "payable": false,
      "stateMutability": "nonpayable",
      "type": "function"
    },
    {
      "constant": false,
      "inputs": [
        {
          "internalType": "uint256",
          "name": "_id",
          "type": "uint256"
        },
        {
          "internalType": "int256",
          "name": "_date_reelle",
          "type": "int256"
        }
      ],
      "name": "transaction2",
      "outputs": [],
      "payable": false,
      "stateMutability": "nonpayable",
      "type": "function"
    },
    {
      "constant": true,
      "inputs": [],
      "name": "getCount",
      "outputs": [
        {
          "internalType": "uint256",
          "name": "_count",
          "type": "uint256"
        }
      ],
      "payable": false,
      "stateMutability": "view",
      "type": "function"
    },
    {
      "constant": true,
      "inputs": [
        {
          "internalType": "uint256",
          "name": "numero_contrat",
          "type": "uint256"
        }
      ],
      "name": "getNb_transaction",
      "outputs": [
        {
          "internalType": "uint256",
          "name": "_nombre_transaction",
          "type": "uint256"
        }
      ],
      "payable": false,
      "stateMutability": "view",
      "type": "function"
    },
    {
      "constant": true,
      "inputs": [
        {
          "internalType": "uint256",
          "name": "numero_contrat",
          "type": "uint256"
        }
      ],
      "name": "getTaux",
      "outputs": [
        {
          "internalType": "uint256",
          "name": "_taux",
          "type": "uint256"
        }
      ],
      "payable": false,
      "stateMutability": "view",
      "type": "function"
    },
    {
      "constant": true,
      "inputs": [
        {
          "internalType": "uint256",
          "name": "numero_contrat",
          "type": "uint256"
        }
      ],
      "name": "getEcheance_totale",
      "outputs": [
        {
          "internalType": "uint256",
          "name": "_echeance_totale",
          "type": "uint256"
        }
      ],
      "payable": false,
      "stateMutability": "view",
      "type": "function"
    },
    {
      "constant": true,
      "inputs": [
        {
          "internalType": "uint256",
          "name": "numero_contrat",
          "type": "uint256"
        }
      ],
      "name": "getMontant_total",
      "outputs": [
        {
          "internalType": "uint256",
          "name": "_montant_total",
          "type": "uint256"
        }
      ],
      "payable": false,
      "stateMutability": "view",
      "type": "function"
    },
    {
      "constant": true,
      "inputs": [
        {
          "internalType": "uint256",
          "name": "numero_contrat",
          "type": "uint256"
        }
      ],
      "name": "getEmprunteur",
      "outputs": [
        {
          "internalType": "string",
          "name": "_emprunteur",
          "type": "string"
        }
      ],
      "payable": false,
      "stateMutability": "view",
      "type": "function"
    },
    {
      "constant": true,
      "inputs": [
        {
          "internalType": "uint256",
          "name": "numero_contrat",
          "type": "uint256"
        }
      ],
      "name": "getPreteur",
      "outputs": [
        {
          "internalType": "string",
          "name": "_preteur",
          "type": "string"
        }
      ],
      "payable": false,
      "stateMutability": "view",
      "type": "function"
    },
    {
      "constant": true,
      "inputs": [
        {
          "internalType": "uint256",
          "name": "numero_contrat",
          "type": "uint256"
        },
        {
          "internalType": "uint256",
          "name": "numero_transaction",
          "type": "uint256"
        }
      ],
      "name": "getDate_reelle",
      "outputs": [
        {
          "internalType": "int256",
          "name": "_date_reelle",
          "type": "int256"
        }
      ],
      "payable": false,
      "stateMutability": "view",
      "type": "function"
    },
    {
      "constant": true,
      "inputs": [
        {
          "internalType": "uint256",
          "name": "numero_contrat",
          "type": "uint256"
        },
        {
          "internalType": "uint256",
          "name": "numero_transaction",
          "type": "uint256"
        }
      ],
      "name": "getDate_theorique",
      "outputs": [
        {
          "internalType": "int256",
          "name": "_date_theorique",
          "type": "int256"
        }
      ],
      "payable": false,
      "stateMutability": "view",
      "type": "function"
    },
    {
      "constant": true,
      "inputs": [
        {
          "internalType": "uint256",
          "name": "numero_contrat",
          "type": "uint256"
        },
        {
          "internalType": "uint256",
          "name": "numero_transaction",
          "type": "uint256"
        }
      ],
      "name": "getEcheance_restante",
      "outputs": [
        {
          "internalType": "uint256",
          "name": "_echeance_restante",
          "type": "uint256"
        }
      ],
      "payable": false,
      "stateMutability": "view",
      "type": "function"
    },
    {
      "constant": true,
      "inputs": [
        {
          "internalType": "uint256",
          "name": "numero_contrat",
          "type": "uint256"
        },
        {
          "internalType": "uint256",
          "name": "numero_transaction",
          "type": "uint256"
        }
      ],
      "name": "getMontant_restant",
      "outputs": [
        {
          "internalType": "uint256",
          "name": "_montant_restant",
          "type": "uint256"
        }
      ],
      "payable": false,
      "stateMutability": "view",
      "type": "function"
    },
    {
      "constant": true,
      "inputs": [
        {
          "internalType": "uint256",
          "name": "numero_contrat",
          "type": "uint256"
        },
        {
          "internalType": "uint256",
          "name": "numero_transaction",
          "type": "uint256"
        }
      ],
      "name": "getMontant_transaction",
      "outputs": [
        {
          "internalType": "uint256",
          "name": "_montant_transaction",
          "type": "uint256"
        }
      ],
      "payable": false,
      "stateMutability": "view",
      "type": "function"
    },
    {
      "constant": true,
      "inputs": [
        {
          "internalType": "string",
          "name": "_preteur",
          "type": "string"
        },
        {
          "internalType": "string",
          "name": "_emprunteur",
          "type": "string"
        }
      ],
      "name": "existContract",
      "outputs": [
        {
          "internalType": "bool",
          "name": "",
          "type": "bool"
        }
      ],
      "payable": false,
      "stateMutability": "view",
      "type": "function"
    },
    {
      "constant": true,
      "inputs": [
        {
          "internalType": "string",
          "name": "user",
          "type": "string"
        }
      ],
      "name": "nbprets",
      "outputs": [
        {
          "internalType": "uint256",
          "name": "",
          "type": "uint256"
        }
      ],
      "payable": false,
      "stateMutability": "view",
      "type": "function"
    },
    {
      "constant": true,
      "inputs": [
        {
          "internalType": "int256",
          "name": "date1",
          "type": "int256"
        },
        {
          "internalType": "int256",
          "name": "date2",
          "type": "int256"
        }
      ],
      "name": "diff_date",
      "outputs": [
        {
          "internalType": "int256",
          "name": "",
          "type": "int256"
        }
      ],
      "payable": false,
      "stateMutability": "view",
      "type": "function"
    },
    {
      "constant": true,
      "inputs": [
        {
          "internalType": "string",
          "name": "user",
          "type": "string"
        }
      ],
      "name": "reputation",
      "outputs": [
        {
          "internalType": "int256",
          "name": "",
          "type": "int256"
        }
      ],
      "payable": false,
      "stateMutability": "view",
      "type": "function"
    },
    {
      "constant": true,
      "inputs": [
        {
          "internalType": "string",
          "name": "a",
          "type": "string"
        },
        {
          "internalType": "string",
          "name": "b",
          "type": "string"
        }
      ],
      "name": "compareStrings",
      "outputs": [
        {
          "internalType": "bool",
          "name": "",
          "type": "bool"
        }
      ],
      "payable": false,
      "stateMutability": "view",
      "type": "function"
    },
    {
      "constant": true,
      "inputs": [
        {
          "internalType": "string",
          "name": "user",
          "type": "string"
        },
        {
          "internalType": "uint256",
          "name": "contract_id",
          "type": "uint256"
        }
      ],
      "name": "testContractUser",
      "outputs": [
        {
          "internalType": "int256",
          "name": "_value",
          "type": "int256"
        }
      ],
      "payable": false,
      "stateMutability": "view",
      "type": "function"
    }
  ],
  "bytecode": "0x608060405260006001553480156200001657600080fd5b506040518060400160405280601a81526020017f436f6e7472617420456e74726520506172746963756c6965727300000000000081525060009080519060200190620000649291906200006b565b506200011a565b828054600181600116156101000203166002900490600052602060002090601f016020900481019282601f10620000ae57805160ff1916838001178555620000df565b82800160010185558215620000df579182015b82811115620000de578251825591602001919060010190620000c1565b5b509050620000ee9190620000f2565b5090565b6200011791905b8082111562000113576000816000905550600101620000f9565b5090565b90565b612688806200012a6000396000f3fe608060405234801561001057600080fd5b50600436106101cf5760003560e01c806388be11d911610104578063bed34bba116100a2578063e3ddf83411610071578063e3ddf83414610ea5578063ec26f7f814610ed3578063f0fc041c14610f1f578063f86ce46314610fc6576101cf565b8063bed34bba14610b8d578063d001773b14610cf7578063d929aac214610d9e578063dfa0ef1414610e6d576101cf565b80639d7625e5116100de5780639d7625e514610aeb578063a096d25a14610af5578063a87d942c14610b37578063b2bb728e14610b55576101cf565b806388be11d9146108f35780639748e0a81461093f5780639a6b268914610981576101cf565b80633e1088e81161017157806351f996931161014b57806351f99693146106c757806354f5dcca14610819578063619ea1fe146108655780636bd5f920146108a7576101cf565b80633e1088e8146105745780633e8cb460146105ac5780634635b9b214610685576101cf565b80632f96119d116101ad5780632f96119d146103685780633227e860146103b457806335680aa3146103d25780633878f3e814610532576101cf565b806306fdde03146101d457806313a422c31461025757806317bb4d5514610326575b600080fd5b6101dc611012565b6040518080602001828103825283818151815260200191508051906020019080838360005b8381101561021c578082015181840152602081019050610201565b50505050905090810190601f1680156102495780820380516001836020036101000a031916815260200191505b509250505060405180910390f35b6103106004803603602081101561026d57600080fd5b810190808035906020019064010000000081111561028a57600080fd5b82018360208201111561029c57600080fd5b803590602001918460018302840111640100000000831117156102be57600080fd5b91908080601f016020809104026020016040519081016040528093929190818152602001838380828437600081840152601f19601f8201169050808301925050505050505091929192905050506110b0565b6040518082815260200191505060405180910390f35b6103526004803603602081101561033c57600080fd5b8101908080359060200190929190505050611450565b6040518082815260200191505060405180910390f35b61039e6004803603604081101561037e57600080fd5b810190808035906020019092919080359060200190929190505050611484565b6040518082815260200191505060405180910390f35b6103bc6114b9565b6040518082815260200191505060405180910390f35b610408600480360360408110156103e857600080fd5b8101908080359060200190929190803590602001909291905050506114bf565b604051808c815260200180602001806020018b81526020018a81526020018981526020018881526020018781526020018681526020018581526020018415151515815260200183810383528d818151815260200191508051906020019080838360005b8381101561048657808201518184015260208101905061046b565b50505050905090810190601f1680156104b35780820380516001836020036101000a031916815260200191505b5083810382528c818151815260200191508051906020019080838360005b838110156104ec5780820151818401526020810190506104d1565b50505050905090810190601f1680156105195780820380516001836020036101000a031916815260200191505b509d505050505050505050505050505060405180910390f35b61055e6004803603602081101561054857600080fd5b8101908080359060200190929190505050611663565b6040518082815260200191505060405180910390f35b6105aa6004803603604081101561058a57600080fd5b81019080803590602001909291908035906020019092919050505061167b565b005b61066f600480360360408110156105c257600080fd5b81019080803590602001906401000000008111156105df57600080fd5b8201836020820111156105f157600080fd5b8035906020019184600183028401116401000000008311171561061357600080fd5b91908080601f016020809104026020016040519081016040528093929190818152602001838380828437600081840152601f19601f820116905080830192505050505050509192919290803590602001909291905050506116db565b6040518082815260200191505060405180910390f35b6106c56004803603606081101561069b57600080fd5b8101908080359060200190929190803590602001909291908035906020019092919050505061189f565b005b610817600480360360408110156106dd57600080fd5b81019080803590602001906401000000008111156106fa57600080fd5b82018360208201111561070c57600080fd5b8035906020019184600183028401116401000000008311171561072e57600080fd5b91908080601f016020809104026020016040519081016040528093929190818152602001838380828437600081840152601f19601f8201169050808301925050505050505091929192908035906020019064010000000081111561079157600080fd5b8201836020820111156107a357600080fd5b803590602001918460018302840111640100000000831117156107c557600080fd5b91908080601f016020809104026020016040519081016040528093929190818152602001838380828437600081840152601f19601f82011690508083019250505050505050919291929050505061192e565b005b61084f6004803603604081101561082f57600080fd5b8101908080359060200190929190803590602001909291905050506119c9565b6040518082815260200191505060405180910390f35b6108916004803603602081101561087b57600080fd5b8101908080359060200190929190505050611a8f565b6040518082815260200191505060405180910390f35b6108dd600480360360408110156108bd57600080fd5b810190808035906020019092919080359060200190929190505050611aaf565b6040518082815260200191505060405180910390f35b6109296004803603604081101561090957600080fd5b810190808035906020019092919080359060200190929190505050611b84565b6040518082815260200191505060405180910390f35b61096b6004803603602081101561095557600080fd5b8101908080359060200190929190505050611bb9565b6040518082815260200191505060405180910390f35b610ad16004803603604081101561099757600080fd5b81019080803590602001906401000000008111156109b457600080fd5b8201836020820111156109c657600080fd5b803590602001918460018302840111640100000000831117156109e857600080fd5b91908080601f016020809104026020016040519081016040528093929190818152602001838380828437600081840152601f19601f82011690508083019250505050505050919291929080359060200190640100000000811115610a4b57600080fd5b820183602082011115610a5d57600080fd5b80359060200191846001830284011164010000000083111715610a7f57600080fd5b91908080601f016020809104026020016040519081016040528093929190818152602001838380828437600081840152601f19601f820116905080830192505050505050509192919290505050611bed565b604051808215151515815260200191505060405180910390f35b610af3611e58565b005b610b2160048036036020811015610b0b57600080fd5b8101908080359060200190929190505050611e6c565b6040518082815260200191505060405180910390f35b610b3f611ea0565b6040518082815260200191505060405180910390f35b610b8b60048036036040811015610b6b57600080fd5b810190808035906020019092919080359060200190929190505050611ead565b005b610cdd60048036036040811015610ba357600080fd5b8101908080359060200190640100000000811115610bc057600080fd5b820183602082011115610bd257600080fd5b80359060200191846001830284011164010000000083111715610bf457600080fd5b91908080601f016020809104026020016040519081016040528093929190818152602001838380828437600081840152601f19601f82011690508083019250505050505050919291929080359060200190640100000000811115610c5757600080fd5b820183602082011115610c6957600080fd5b80359060200191846001830284011164010000000083111715610c8b57600080fd5b91908080601f016020809104026020016040519081016040528093929190818152602001838380828437600081840152601f19601f82011690508083019250505050505050919291929050505061203b565b604051808215151515815260200191505060405180910390f35b610d2360048036036020811015610d0d57600080fd5b810190808035906020019092919050505061212a565b6040518080602001828103825283818151815260200191508051906020019080838360005b83811015610d63578082015181840152602081019050610d48565b50505050905090810190601f168015610d905780820380516001836020036101000a031916815260200191505b509250505060405180910390f35b610e5760048036036020811015610db457600080fd5b8101908080359060200190640100000000811115610dd157600080fd5b820183602082011115610de357600080fd5b80359060200191846001830284011164010000000083111715610e0557600080fd5b91908080601f016020809104026020016040519081016040528093929190818152602001838380828437600081840152601f19601f8201169050808301925050505050505091929192905050506121f6565b6040518082815260200191505060405180910390f35b610ea360048036036040811015610e8357600080fd5b810190808035906020019092919080359060200190929190505050612345565b005b610ed160048036036020811015610ebb57600080fd5b8101908080359060200190929190505050612452565b005b610f0960048036036040811015610ee957600080fd5b810190808035906020019092919080359060200190929190505050612478565b6040518082815260200191505060405180910390f35b610f4b60048036036020811015610f3557600080fd5b81019080803590602001909291905050506124ad565b6040518080602001828103825283818151815260200191508051906020019080838360005b83811015610f8b578082015181840152602081019050610f70565b50505050905090810190601f168015610fb85780820380516001836020036101000a031916815260200191505b509250505060405180910390f35b610ffc60048036036040811015610fdc57600080fd5b810190808035906020019092919080359060200190929190505050612579565b6040518082815260200191505060405180910390f35b60008054600181600116156101000203166002900480601f0160208091040260200160405190810160405280929190818152602001828054600181600116156101000203166002900480156110a85780601f1061107d576101008083540402835291602001916110a8565b820191906000526020600020905b81548152906001019060200180831161108b57829003601f168201915b505050505081565b6000806000905060008090505b60015481101561144657836040516020018082805190602001908083835b602083106110fe57805182526020820191506020810190506020830392506110db565b6001836020036101000a0380198251168184511680821785525050505050509050019150506040516020818303038152906040528051906020012060026000838152602001908152602001600020600080815260200190815260200160002060010160405160200180828054600181600116156101000203166002900480156111be5780601f1061119c5761010080835404028352918201916111be565b820191906000526020600020905b8154815290600101906020018083116111aa575b5050915050604051602081830303815290604052805190602001201415611240576000600260008381526020019081526020016000206000808152602001908152602001600020600401549050614e208111156112375761c35081111561122b5760069250829250611232565b6003830192505b61123e565b6001830192505b505b836040516020018082805190602001908083835b602083106112775780518252602082019150602081019050602083039250611254565b6001836020036101000a0380198251168184511680821785525050505050509050019150506040516020818303038152906040528051906020012060026000838152602001908152602001600020600080815260200190815260200160002060020160405160200180828054600181600116156101000203166002900480156113375780601f10611315576101008083540402835291820191611337565b820191906000526020600020905b815481529060010190602001808311611323575b50509150506040516020818303038152906040528051906020012014156114395781806001019250506000600360008381526020019081526020016000205490506000600190505b60018201811015611436576000600260008581526020019081526020016000206000838152602001908152602001600020600601549050600060026000868152602001908152602001600020600084815260200190815260200160002060070154905060006113ee8284611aaf565b90506000811315611426576064811261141557600a818161140b57fe5b0587039650611425565b6003818161141f57fe5b05870396505b5b505050808060010191505061137f565b50505b80806001019150506110bd565b5080915050919050565b6000600260008381526020019081526020016000206000808152602001908152602001600020600401549050809050919050565b600060026000848152602001908152602001600020600083815260200190815260200160002060090154905080905092915050565b60015481565b600260205281600052604060002060205280600052604060002060009150915050806000015490806001018054600181600116156101000203166002900480601f01602080910402602001604051908101604052809291908181526020018280546001816001161561010002031660029004801561157e5780601f106115535761010080835404028352916020019161157e565b820191906000526020600020905b81548152906001019060200180831161156157829003601f168201915b505050505090806002018054600181600116156101000203166002900480601f01602080910402602001604051908101604052809291908181526020018280546001816001161561010002031660029004801561161c5780601f106115f15761010080835404028352916020019161161c565b820191906000526020600020905b8154815290600101906020018083116115ff57829003601f168201915b50505050509080600301549080600401549080600501549080600601549080600701549080600801549080600901549080600a0160009054906101000a900460ff1690508b565b60036020528060005260406000206000915090505481565b81600260006001548152602001908152602001600020600080815260200190815260200160002060060181905550806002600060015481526020019081526020016000206000808152602001908152602001600020600001819055505050565b60006117a66002600084815260200190815260200160002060008081526020019081526020016000206001018054600181600116156101000203166002900480601f01602080910402602001604051908101604052809291908181526020018280546001816001161561010002031660029004801561179b5780601f106117705761010080835404028352916020019161179b565b820191906000526020600020905b81548152906001019060200180831161177e57829003601f168201915b50505050508461203b565b156117b75760019050809050611899565b6118806002600084815260200190815260200160002060008081526020019081526020016000206002018054600181600116156101000203166002900480601f0160208091040260200160405190810160405280929190818152602001828054600181600116156101000203166002900480156118755780601f1061184a57610100808354040283529160200191611875565b820191906000526020600020905b81548152906001019060200180831161185857829003601f168201915b50505050508461203b565b156118915760029050809050611899565b600090508090505b92915050565b826002600060015481526020019081526020016000206000808152602001908152602001600020600301819055508160026000600154815260200190815260200160002060008081526020019081526020016000206005018190555080600260006001548152602001908152602001600020600080815260200190815260200160002060040181905550505050565b816002600060015481526020019081526020016000206000808152602001908152602001600020600201908051906020019061196b9291906125ae565b5080600260006001548152602001908152602001600020600080815260200190815260200160002060010190805190602001906119a99291906125ae565b506000600360006001548152602001908152602001600020819055505050565b60006001821415611a2f576002600084815260200190815260200160002060008381526020019081526020016000206009015460026000858152602001908152602001600020600060018503815260200190815260200160002060040154039050611a86565b60026000848152602001908152602001600020600083815260200190815260200160002060090154600260008581526020019081526020016000206000600185038152602001908152602001600020600901540390505b80905092915050565b600060036000838152602001908152602001600020549050809050919050565b6000806127108481611abd57fe5b059050600060646127108302860381611ad257fe5b0590506000606482026127108402870303905060006127108681611af257fe5b059050600060646127108302880381611b0757fe5b059050600060648202612710840289030390506000868403905060008684039050600086840390506000811215611b4857818060019003925050601e810190505b6000821215611b6157828060019003935050600c820191505b60008160648402612710860201019050809a505050505050505050505092915050565b600060026000848152602001908152602001600020600083815260200190815260200160002060070154905080905092915050565b6000600260008381526020019081526020016000206000808152602001908152602001600020600501549050809050919050565b6000806000905060008090505b600154811015611e4d57846040516020018082805190602001908083835b60208310611c3b5780518252602082019150602081019050602083039250611c18565b6001836020036101000a038019825116818451168082178552505050505050905001915050604051602081830303815290604052805190602001206002600083815260200190815260200160002060008081526020019081526020016000206001016040516020018082805460018160011615610100020316600290048015611cfb5780601f10611cd9576101008083540402835291820191611cfb565b820191906000526020600020905b815481529060010190602001808311611ce7575b505091505060405160208183030381529060405280519060200120148015611e325750836040516020018082805190602001908083835b60208310611d555780518252602082019150602081019050602083039250611d32565b6001836020036101000a038019825116818451168082178552505050505050905001915050604051602081830303815290604052805190602001206002600083815260200190815260200160002060008081526020019081526020016000206002016040516020018082805460018160011615610100020316600290048015611e155780601f10611df3576101008083540402835291820191611e15565b820191906000526020600020905b815481529060010190602001808311611e01575b505091505060405160208183030381529060405280519060200120145b15611e405760019150611e4d565b8080600101915050611bfa565b508091505092915050565b600160008154809291906001019190505550565b6000600260008381526020019081526020016000206000808152602001908152602001600020600301549050809050919050565b6000600154905080905090565b6000600360008481526020019081526020016000205490506000811415611f8457816002600085815260200190815260200160002060008081526020019081526020016000206004015403600260008581526020019081526020016000206000600184018152602001908152602001600020600901819055506001600260008581526020019081526020016000206000808152602001908152602001600020600501540360026000858152602001908152602001600020600060018401815260200190815260200160002060080181905550612036565b8160026000858152602001908152602001600020600083815260200190815260200160002060090154036002600085815260200190815260200160002060006001840181526020019081526020016000206009018190555060016002600085815260200190815260200160002060008381526020019081526020016000206008015403600260008581526020019081526020016000206000600184018152602001908152602001600020600801819055505b505050565b6000816040516020018082805190602001908083835b602083106120745780518252602082019150602081019050602083039250612051565b6001836020036101000a03801982511681845116808217855250505050505090500191505060405160208183030381529060405280519060200120836040516020018082805190602001908083835b602083106120e657805182526020820191506020810190506020830392506120c3565b6001836020036101000a0380198251168184511680821785525050505050509050019150506040516020818303038152906040528051906020012014905092915050565b60606002600083815260200190815260200160002060008081526020019081526020016000206002018054600181600116156101000203166002900480601f0160208091040260200160405190810160405280929190818152602001828054600181600116156101000203166002900480156121e75780601f106121bc576101008083540402835291602001916121e7565b820191906000526020600020905b8154815290600101906020018083116121ca57829003601f168201915b50505050509050809050919050565b6000806000905060008090505b60015481101561233b57836040516020018082805190602001908083835b602083106122445780518252602082019150602081019050602083039250612221565b6001836020036101000a0380198251168184511680821785525050505050509050019150506040516020818303038152906040528051906020012060026000838152602001908152602001600020600080815260200190815260200160002060010160405160200180828054600181600116156101000203166002900480156123045780601f106122e2576101008083540402835291820191612304565b820191906000526020600020905b8154815290600101906020018083116122f0575b505091505060405160208183030381529060405280519060200120141561232e5781806001019250505b8080600101915050612203565b5080915050919050565b600060036000848152602001908152602001600020549050816002600085815260200190815260200160002060006001840181526020019081526020016000206006018190555060008114156123f357606460026000858152602001908152602001600020600080815260200190815260200160002060060154016002600085815260200190815260200160002060006001840181526020019081526020016000206007018190555061244d565b60646002600085815260200190815260200160002060008381526020019081526020016000206007015401600260008581526020019081526020016000206000600184018152602001908152602001600020600701819055505b505050565b600360008281526020019081526020016000206000815480929190600101919050555050565b600060026000848152602001908152602001600020600083815260200190815260200160002060080154905080905092915050565b60606002600083815260200190815260200160002060008081526020019081526020016000206001018054600181600116156101000203166002900480601f01602080910402602001604051908101604052809291908181526020018280546001816001161561010002031660029004801561256a5780601f1061253f5761010080835404028352916020019161256a565b820191906000526020600020905b81548152906001019060200180831161254d57829003601f168201915b50505050509050809050919050565b600060026000848152602001908152602001600020600083815260200190815260200160002060060154905080905092915050565b828054600181600116156101000203166002900490600052602060002090601f016020900481019282601f106125ef57805160ff191683800117855561261d565b8280016001018555821561261d579182015b8281111561261c578251825591602001919060010190612601565b5b50905061262a919061262e565b5090565b61265091905b8082111561264c576000816000905550600101612634565b5090565b9056fea265627a7a72315820de7fe73c2163fd34d5bf5a14547f87e07b0fc31bfedfc0708fe84466e3ce773964736f6c63430005100032",
  "source": "pragma solidity >=0.4.21 <0.7.0;\r\n\r\ncontract Contract {\r\n\r\n  string public name;\r\n  uint public contract_count = 0;\r\n\r\n  struct Contract_user {\r\n    uint id;\r\n    string preteur;\r\n    string emprunteur;\r\n    uint taux;\r\n    uint montant_total;\r\n    uint echeance_totale;\r\n    int date_reelle;\r\n    int date_theorique;\r\n    uint echeance_restante;\r\n    uint montant_restant;\r\n    bool status;\r\n  }\r\n\r\n  mapping(uint => mapping(uint => Contract_user)) public contract_users;\r\n  mapping(uint => uint) public nombre_transaction;\r\n\r\n  constructor() public{\r\n    name = \"Contrat Entre Particuliers\";\r\n     }\r\n\r\n\r\n     function increaseContract() public{\r\n     contract_count++;\r\n     }\r\n\r\n  function createContract1(uint _taux,\r\n  uint _echeance_totale,uint _montant_total) public{\r\n    contract_users[contract_count][0].taux = _taux;\r\n    contract_users[contract_count][0].echeance_totale = _echeance_totale;\r\n    contract_users[contract_count][0].montant_total = _montant_total;\r\n  }\r\n\r\n  function createContract2(string memory _emprunteur,\r\n  string memory _preteur) public{\r\n    contract_users[contract_count][0].emprunteur = _emprunteur;\r\n    contract_users[contract_count][0].preteur = _preteur;\r\n    nombre_transaction[contract_count] = 0;\r\n  }\r\n\r\n  function createContract3(int _date_reelle,uint _id) public{\r\n    contract_users[contract_count][0].date_reelle = _date_reelle;\r\n    contract_users[contract_count][0].id = _id;\r\n  }\r\n\r\n  function increaseTrans(uint _id) public{\r\n    nombre_transaction[_id]++;\r\n  }\r\n\r\n  function transaction1(uint _id,uint _somme) public{\r\n        uint numero_transaction = nombre_transaction[_id];\r\n        if (numero_transaction==0){\r\n          contract_users[_id][numero_transaction+1].montant_restant = contract_users[_id][0].montant_total - _somme;\r\n          contract_users[_id][numero_transaction+1].echeance_restante = contract_users[_id][0].echeance_totale - 1;\r\n        }\r\n        else{\r\n        contract_users[_id][numero_transaction+1].montant_restant = contract_users[_id][numero_transaction].montant_restant - _somme;\r\n        contract_users[_id][numero_transaction+1].echeance_restante = contract_users[_id][numero_transaction].echeance_restante - 1;\r\n        }\r\n  }\r\n\r\n  function transaction2(uint _id,int _date_reelle) public{\r\n        uint numero_transaction = nombre_transaction[_id];\r\n        contract_users[_id][numero_transaction+1].date_reelle = _date_reelle;\r\n        if (numero_transaction ==0){\r\n          contract_users[_id][numero_transaction+1].date_theorique = contract_users[_id][0].date_reelle + 100;\r\n        }\r\n        else{\r\n        contract_users[_id][numero_transaction+1].date_theorique = contract_users[_id][numero_transaction].date_theorique + 100;\r\n        }\r\n  }\r\n\r\n\r\n  function getCount() public view returns (uint _count){\r\n    _count = contract_count;\r\n    return _count;\r\n  }\r\n\r\n  function getNb_transaction(uint numero_contrat) public view returns (uint _nombre_transaction){\r\n    _nombre_transaction = nombre_transaction[numero_contrat];\r\n    return _nombre_transaction;\r\n  }\r\n\r\n  function getTaux(uint numero_contrat) public view returns (uint _taux){\r\n    _taux = contract_users[numero_contrat][0].taux;\r\n    return _taux;\r\n  }\r\n\r\n  function getEcheance_totale(uint numero_contrat) public view returns (uint _echeance_totale){\r\n    _echeance_totale = contract_users[numero_contrat][0].echeance_totale;\r\n    return _echeance_totale;\r\n  }\r\n\r\n  function getMontant_total(uint numero_contrat) public view returns (uint _montant_total){\r\n    _montant_total = contract_users[numero_contrat][0].montant_total;\r\n    return _montant_total;\r\n  }\r\n\r\n  function getEmprunteur(uint numero_contrat) public view returns (string memory _emprunteur){\r\n    _emprunteur = contract_users[numero_contrat][0].emprunteur;\r\n    return _emprunteur;\r\n  }\r\n\r\n  function getPreteur(uint numero_contrat) public view returns (string memory _preteur){\r\n    _preteur = contract_users[numero_contrat][0].preteur;\r\n    return _preteur;\r\n  }\r\n\r\n  function getDate_reelle(uint numero_contrat, uint numero_transaction) public view returns (int _date_reelle){\r\n    _date_reelle = contract_users[numero_contrat][numero_transaction].date_reelle;\r\n    return _date_reelle;\r\n  }\r\n\r\n  function getDate_theorique(uint numero_contrat, uint numero_transaction) public view returns (int _date_theorique){\r\n    _date_theorique = contract_users[numero_contrat][numero_transaction].date_theorique;\r\n    return _date_theorique;\r\n  }\r\n\r\n  function getEcheance_restante(uint numero_contrat, uint numero_transaction) public view returns (uint _echeance_restante){\r\n    _echeance_restante = contract_users[numero_contrat][numero_transaction].echeance_restante;\r\n    return _echeance_restante;\r\n  }\r\n\r\n  function getMontant_restant(uint numero_contrat, uint numero_transaction) public view returns (uint _montant_restant){\r\n    _montant_restant = contract_users[numero_contrat][numero_transaction].montant_restant;\r\n    return _montant_restant;\r\n  }\r\n\r\n  function getMontant_transaction(uint numero_contrat, uint numero_transaction) public view returns (uint _montant_transaction){\r\n    if (numero_transaction == 1){\r\n      _montant_transaction = contract_users[numero_contrat][numero_transaction-1].montant_total - contract_users[numero_contrat][numero_transaction].montant_restant;\r\n    }\r\n    else{\r\n      _montant_transaction = contract_users[numero_contrat][numero_transaction-1].montant_restant - contract_users[numero_contrat][numero_transaction].montant_restant;\r\n    }\r\n\r\n    return _montant_transaction;\r\n  }\r\n\r\n  function existContract (string memory _preteur,\r\n  string memory _emprunteur) public view returns (bool) {\r\n    bool exist = false;\r\n    for (uint p = 0; p<contract_count; p++){\r\n      if ((keccak256(abi.encodePacked((contract_users[p][0].preteur))) == keccak256(abi.encodePacked((_preteur))))&&(keccak256(abi.encodePacked((contract_users[p][0].emprunteur))) == keccak256(abi.encodePacked((_emprunteur))))){\r\n        exist = true;\r\n        break;\r\n      }\r\n    }\r\n    return exist;\r\n  }\r\n\r\n  function nbprets(string memory user) public view returns (uint){\r\n      uint nb_prets = 0;\r\n      for (uint p = 0; p<contract_count; p++){\r\n        if (keccak256(abi.encodePacked((contract_users[p][0].preteur))) == keccak256(abi.encodePacked((user))))\r\n          nb_prets++;\r\n      }\r\n      return nb_prets;\r\n  }\r\n\r\n  function diff_date(int date1, int date2) public view returns (int) {\r\n    int annee1 = date1/10000;\r\n    int mois1 = (date1 - (annee1 * 10000)) / 100;\r\n    int jour1 = date1 - (annee1 * 10000) - (mois1 * 100);\r\n    int annee2 = date2/10000;\r\n    int mois2 = (date2 - (annee2 * 10000)) / 100;\r\n    int jour2 = date2 - (annee2 * 10000) - (mois2 * 100);\r\n    int diff_annee = annee2 - annee1;\r\n    int diff_mois = mois2 - mois1;\r\n    int diff_jour = jour2 - jour1;\r\n    if (diff_jour <0){\r\n      diff_mois--;\r\n      diff_jour = diff_jour + 30;\r\n      }\r\n    if (diff_mois <0){\r\n      diff_annee--;\r\n      diff_mois = diff_mois + 12;\r\n    }\r\n    int res = diff_annee*10000  + diff_mois*100 + diff_jour;\r\n    return res;\r\n  }\r\n\r\n  function reputation(string memory user) public view returns(int){\r\n    int reput = 0;\r\n    for (uint i = 0; i<contract_count; i++){\r\n      if (keccak256(abi.encodePacked((contract_users[i][0].preteur))) == keccak256(abi.encodePacked((user)))){\r\n        uint montant = contract_users[i][0].montant_total;\r\n        if (montant > 20000){\r\n          if (montant > 50000){\r\n            reput = reput = 6;\r\n          }\r\n          else{\r\n          reput = reput + 3;\r\n          }\r\n        }\r\n        else{\r\n          reput = reput + 1;\r\n        }\r\n      }\r\n      if (keccak256(abi.encodePacked((contract_users[i][0].emprunteur))) == keccak256(abi.encodePacked((user)))){\r\n        reput ++;\r\n        uint transactions = nombre_transaction[i];\r\n        for (uint j=1; j<transactions+1; j++){\r\n          int date_r = contract_users[i][j].date_reelle;\r\n          int date_t = contract_users[i][j].date_theorique;\r\n          int diff = diff_date(date_t,date_r);\r\n          if (diff>0){\r\n            if (diff>=100){\r\n              reput = reput - diff/10;\r\n            }\r\n            else{\r\n              reput = reput - diff/3;\r\n            }\r\n          }\r\n        }\r\n      }\r\n    }\r\n    return reput;\r\n  }\r\n  function compareStrings (string memory a, string memory b) public view returns (bool) {\r\n    return (keccak256(abi.encodePacked((a))) == keccak256(abi.encodePacked((b))));\r\n  }\r\n\r\n  function testContractUser (string memory user, uint contract_id) public view returns (int _value){\r\n    if (compareStrings(contract_users[contract_id][0].preteur, user)){\r\n      _value = 1;\r\n      return _value; //contrat en tant que preteur\r\n    }\r\n    else if (compareStrings(contract_users[contract_id][0].emprunteur, user)){\r\n      _value = 2;\r\n      return _value; //contrat en tant qu'emprunter\r\n    }\r\n    else{\r\n      _value = 0;\r\n      return _value; //contrat pas au user\r\n    }\r\n  }\r\n}\r\n",
  "sourcePath": "/mnt/c/Users/esteb/Desktop/Bankeirble/blockchain/react_app_tes/src/blockchain/contracts/Contract.sol",
  "compiler": {
    "name": "solc",
    "version": "0.5.16+commit.9c3226ce.Emscripten.clang"
  },
  "schemaVersion": "3.0.23",
  "updatedAt": "2020-04-05T21:06:56.964Z",
  "networkType": "ethereum",
  "devdoc": {
    "methods": {}
  },
  "userdoc": {
    "methods": {}
  }
}