{
  "contractName": "Contract",
  "abi": [
    {
      "inputs": [],
      "payable": false,
      "stateMutability": "nonpayable",
      "type": "constructor"
    },
    {
      "constant": true,
      "inputs": [],
      "name": "contractCount",
      "outputs": [
        {
          "internalType": "uint256",
          "name": "",
          "type": "uint256"
        }
      ],
      "payable": false,
      "stateMutability": "view",
      "type": "function"
    },
    {
      "constant": true,
      "inputs": [],
      "name": "name",
      "outputs": [
        {
          "internalType": "string",
          "name": "",
          "type": "string"
        }
      ],
      "payable": false,
      "stateMutability": "view",
      "type": "function"
    },
    {
      "constant": true,
      "inputs": [
        {
          "internalType": "uint256",
          "name": "",
          "type": "uint256"
        }
      ],
      "name": "nb_transaction",
      "outputs": [
        {
          "internalType": "uint256",
          "name": "",
          "type": "uint256"
        }
      ],
      "payable": false,
      "stateMutability": "view",
      "type": "function"
    },
    {
      "constant": true,
      "inputs": [
        {
          "internalType": "uint256",
          "name": "",
          "type": "uint256"
        },
        {
          "internalType": "uint256",
          "name": "",
          "type": "uint256"
        }
      ],
      "name": "usersContracts",
      "outputs": [
        {
          "internalType": "uint256",
          "name": "id",
          "type": "uint256"
        },
        {
          "internalType": "string",
          "name": "lender",
          "type": "string"
        },
        {
          "internalType": "string",
          "name": "borrower",
          "type": "string"
        },
        {
          "internalType": "uint256",
          "name": "rate",
          "type": "uint256"
        },
        {
          "internalType": "uint256",
          "name": "totalAmount",
          "type": "uint256"
        },
        {
          "internalType": "uint256",
          "name": "duration",
          "type": "uint256"
        },
        {
          "internalType": "int256",
          "name": "currentDate",
          "type": "int256"
        },
        {
          "internalType": "int256",
          "name": "theoricalDate",
          "type": "int256"
        },
        {
          "internalType": "uint256",
          "name": "remainingDuration",
          "type": "uint256"
        },
        {
          "internalType": "uint256",
          "name": "remainingAmount",
          "type": "uint256"
        },
        {
          "internalType": "bool",
          "name": "status",
          "type": "bool"
        }
      ],
      "payable": false,
      "stateMutability": "view",
      "type": "function"
    },
    {
      "constant": false,
      "inputs": [],
      "name": "increaseContract",
      "outputs": [],
      "payable": false,
      "stateMutability": "nonpayable",
      "type": "function"
    },
    {
      "constant": false,
      "inputs": [
        {
          "internalType": "uint256",
          "name": "_rate",
          "type": "uint256"
        },
        {
          "internalType": "uint256",
          "name": "_duration",
          "type": "uint256"
        },
        {
          "internalType": "uint256",
          "name": "_totalAmount",
          "type": "uint256"
        }
      ],
      "name": "createContract1",
      "outputs": [],
      "payable": false,
      "stateMutability": "nonpayable",
      "type": "function"
    },
    {
      "constant": false,
      "inputs": [
        {
          "internalType": "string",
          "name": "_borrower",
          "type": "string"
        },
        {
          "internalType": "string",
          "name": "_lender",
          "type": "string"
        }
      ],
      "name": "createContract2",
      "outputs": [],
      "payable": false,
      "stateMutability": "nonpayable",
      "type": "function"
    },
    {
      "constant": false,
      "inputs": [
        {
          "internalType": "int256",
          "name": "_currentDate",
          "type": "int256"
        },
        {
          "internalType": "uint256",
          "name": "_id",
          "type": "uint256"
        }
      ],
      "name": "createContract3",
      "outputs": [],
      "payable": false,
      "stateMutability": "nonpayable",
      "type": "function"
    },
    {
      "constant": false,
      "inputs": [
        {
          "internalType": "uint256",
          "name": "_id",
          "type": "uint256"
        }
      ],
      "name": "increaseTrans",
      "outputs": [],
      "payable": false,
      "stateMutability": "nonpayable",
      "type": "function"
    },
    {
      "constant": false,
      "inputs": [
        {
          "internalType": "uint256",
          "name": "_id",
          "type": "uint256"
        },
        {
          "internalType": "uint256",
          "name": "_sum",
          "type": "uint256"
        }
      ],
      "name": "transaction1",
      "outputs": [],
      "payable": false,
      "stateMutability": "nonpayable",
      "type": "function"
    },
    {
      "constant": false,
      "inputs": [
        {
          "internalType": "uint256",
          "name": "_id",
          "type": "uint256"
        },
        {
          "internalType": "int256",
          "name": "_currentDate",
          "type": "int256"
        }
      ],
      "name": "transaction2",
      "outputs": [],
      "payable": false,
      "stateMutability": "nonpayable",
      "type": "function"
    },
    {
      "constant": true,
      "inputs": [],
      "name": "getCount",
      "outputs": [
        {
          "internalType": "uint256",
          "name": "_count",
          "type": "uint256"
        }
      ],
      "payable": false,
      "stateMutability": "view",
      "type": "function"
    },
    {
      "constant": true,
      "inputs": [
        {
          "internalType": "uint256",
          "name": "contratNumber",
          "type": "uint256"
        }
      ],
      "name": "getNb_transaction",
      "outputs": [
        {
          "internalType": "uint256",
          "name": "_nb_transaction",
          "type": "uint256"
        }
      ],
      "payable": false,
      "stateMutability": "view",
      "type": "function"
    },
    {
      "constant": true,
      "inputs": [
        {
          "internalType": "uint256",
          "name": "contratNumber",
          "type": "uint256"
        }
      ],
      "name": "getRate",
      "outputs": [
        {
          "internalType": "uint256",
          "name": "_rate",
          "type": "uint256"
        }
      ],
      "payable": false,
      "stateMutability": "view",
      "type": "function"
    },
    {
      "constant": true,
      "inputs": [
        {
          "internalType": "uint256",
          "name": "contratNumber",
          "type": "uint256"
        }
      ],
      "name": "getId",
      "outputs": [
        {
          "internalType": "uint256",
          "name": "_id",
          "type": "uint256"
        }
      ],
      "payable": false,
      "stateMutability": "view",
      "type": "function"
    },
    {
      "constant": true,
      "inputs": [
        {
          "internalType": "uint256",
          "name": "_id",
          "type": "uint256"
        }
      ],
      "name": "getNumero",
      "outputs": [
        {
          "internalType": "uint256",
          "name": "_numero_contrat",
          "type": "uint256"
        }
      ],
      "payable": false,
      "stateMutability": "view",
      "type": "function"
    },
    {
      "constant": true,
      "inputs": [
        {
          "internalType": "uint256",
          "name": "numero_contrat",
          "type": "uint256"
        }
      ],
      "name": "getEcheance_totale",
      "outputs": [
        {
          "internalType": "uint256",
          "name": "_duration",
          "type": "uint256"
        }
      ],
      "payable": false,
      "stateMutability": "view",
      "type": "function"
    },
    {
      "constant": true,
      "inputs": [
        {
          "internalType": "uint256",
          "name": "contratNumber",
          "type": "uint256"
        }
      ],
      "name": "getDuration",
      "outputs": [
        {
          "internalType": "uint256",
          "name": "_duration",
          "type": "uint256"
        }
      ],
      "payable": false,
      "stateMutability": "view",
      "type": "function"
    },
    {
      "constant": true,
      "inputs": [
        {
          "internalType": "uint256",
          "name": "contratNumber",
          "type": "uint256"
        }
      ],
      "name": "getTotalAmount",
      "outputs": [
        {
          "internalType": "uint256",
          "name": "_totalAmount",
          "type": "uint256"
        }
      ],
      "payable": false,
      "stateMutability": "view",
      "type": "function"
    },
    {
      "constant": true,
      "inputs": [
        {
          "internalType": "uint256",
          "name": "contratNumber",
          "type": "uint256"
        }
      ],
      "name": "getBorrower",
      "outputs": [
        {
          "internalType": "string",
          "name": "_borrower",
          "type": "string"
        }
      ],
      "payable": false,
      "stateMutability": "view",
      "type": "function"
    },
    {
      "constant": true,
      "inputs": [
        {
          "internalType": "uint256",
          "name": "contratNumber",
          "type": "uint256"
        }
      ],
      "name": "getLender",
      "outputs": [
        {
          "internalType": "string",
          "name": "_lender",
          "type": "string"
        }
      ],
      "payable": false,
      "stateMutability": "view",
      "type": "function"
    },
    {
      "constant": true,
      "inputs": [
        {
          "internalType": "uint256",
          "name": "contratNumber",
          "type": "uint256"
        },
        {
          "internalType": "uint256",
          "name": "transactionId",
          "type": "uint256"
        }
      ],
      "name": "getCurrentDate",
      "outputs": [
        {
          "internalType": "int256",
          "name": "_currentDate",
          "type": "int256"
        }
      ],
      "payable": false,
      "stateMutability": "view",
      "type": "function"
    },
    {
      "constant": true,
      "inputs": [
        {
          "internalType": "uint256",
          "name": "contratNumber",
          "type": "uint256"
        },
        {
          "internalType": "uint256",
          "name": "transactionId",
          "type": "uint256"
        }
      ],
      "name": "getTheoricalDate",
      "outputs": [
        {
          "internalType": "int256",
          "name": "_theoricalDate",
          "type": "int256"
        }
      ],
      "payable": false,
      "stateMutability": "view",
      "type": "function"
    },
    {
      "constant": true,
      "inputs": [
        {
          "internalType": "uint256",
          "name": "contratNumber",
          "type": "uint256"
        },
        {
          "internalType": "uint256",
          "name": "transactionId",
          "type": "uint256"
        }
      ],
      "name": "getRemainingDuration",
      "outputs": [
        {
          "internalType": "uint256",
          "name": "_remainingDuration",
          "type": "uint256"
        }
      ],
      "payable": false,
      "stateMutability": "view",
      "type": "function"
    },
    {
      "constant": true,
      "inputs": [
        {
          "internalType": "uint256",
          "name": "contratNumber",
          "type": "uint256"
        },
        {
          "internalType": "uint256",
          "name": "transactionId",
          "type": "uint256"
        }
      ],
      "name": "getRemainingAmount",
      "outputs": [
        {
          "internalType": "uint256",
          "name": "_remainingAmount",
          "type": "uint256"
        }
      ],
      "payable": false,
      "stateMutability": "view",
      "type": "function"
    },
    {
      "constant": true,
      "inputs": [
        {
          "internalType": "uint256",
          "name": "contratNumber",
          "type": "uint256"
        },
        {
          "internalType": "uint256",
          "name": "transactionId",
          "type": "uint256"
        }
      ],
      "name": "getTransactionAmount",
      "outputs": [
        {
          "internalType": "uint256",
          "name": "_transactionAmount",
          "type": "uint256"
        }
      ],
      "payable": false,
      "stateMutability": "view",
      "type": "function"
    },
    {
      "constant": true,
      "inputs": [
        {
          "internalType": "string",
          "name": "_lender",
          "type": "string"
        },
        {
          "internalType": "string",
          "name": "_borrower",
          "type": "string"
        }
      ],
      "name": "existContract",
      "outputs": [
        {
          "internalType": "bool",
          "name": "",
          "type": "bool"
        }
      ],
      "payable": false,
      "stateMutability": "view",
      "type": "function"
    },
    {
      "constant": true,
      "inputs": [
        {
          "internalType": "string",
          "name": "user",
          "type": "string"
        }
      ],
      "name": "nbLoans",
      "outputs": [
        {
          "internalType": "uint256",
          "name": "",
          "type": "uint256"
        }
      ],
      "payable": false,
      "stateMutability": "view",
      "type": "function"
    },
    {
      "constant": true,
      "inputs": [
        {
          "internalType": "string",
          "name": "user",
          "type": "string"
        }
      ],
      "name": "nbBorrows",
      "outputs": [
        {
          "internalType": "uint256",
          "name": "",
          "type": "uint256"
        }
      ],
      "payable": false,
      "stateMutability": "view",
      "type": "function"
    },
    {
      "constant": true,
      "inputs": [
        {
          "internalType": "int256",
          "name": "date1",
          "type": "int256"
        },
        {
          "internalType": "int256",
          "name": "date2",
          "type": "int256"
        }
      ],
      "name": "dateDiff",
      "outputs": [
        {
          "internalType": "int256",
          "name": "",
          "type": "int256"
        }
      ],
      "payable": false,
      "stateMutability": "view",
      "type": "function"
    },
    {
      "constant": true,
      "inputs": [
        {
          "internalType": "string",
          "name": "user",
          "type": "string"
        }
      ],
      "name": "reputation",
      "outputs": [
        {
          "internalType": "int256",
          "name": "",
          "type": "int256"
        }
      ],
      "payable": false,
      "stateMutability": "view",
      "type": "function"
    },
    {
      "constant": true,
      "inputs": [
        {
          "internalType": "string",
          "name": "a",
          "type": "string"
        },
        {
          "internalType": "string",
          "name": "b",
          "type": "string"
        }
      ],
      "name": "compareStrings",
      "outputs": [
        {
          "internalType": "bool",
          "name": "",
          "type": "bool"
        }
      ],
      "payable": false,
      "stateMutability": "view",
      "type": "function"
    },
    {
      "constant": true,
      "inputs": [
        {
          "internalType": "string",
          "name": "user",
          "type": "string"
        },
        {
          "internalType": "uint256",
          "name": "contractNumber",
          "type": "uint256"
        }
      ],
      "name": "testContractUser",
      "outputs": [
        {
          "internalType": "int256",
          "name": "_value",
          "type": "int256"
        }
      ],
      "payable": false,
      "stateMutability": "view",
      "type": "function"
    }
  ],
  "bytecode": "0x608060405260006001553480156200001657600080fd5b506040518060400160405280601a81526020017f436f6e7472617420456e74726520506172746963756c6965727300000000000081525060009080519060200190620000649291906200006b565b506200011a565b828054600181600116156101000203166002900490600052602060002090601f016020900481019282601f10620000ae57805160ff1916838001178555620000df565b82800160010185558215620000df579182015b82811115620000de578251825591602001919060010190620000c1565b5b509050620000ee9190620000f2565b5090565b6200011791905b8082111562000113576000816000905550600101620000f9565b5090565b90565b612a5b806200012a6000396000f3fe608060405234801561001057600080fd5b50600436106101fb5760003560e01c80638736381a1161011a578063a8a2da0d116100ad578063dfa0ef141161007c578063dfa0ef1414611038578063e3ddf83414611070578063f0e406621461109e578063f17ed76a146110e0578063fa2c7f9b1461112c576101fb565b8063a8a2da0d14610c67578063b2bb728e14610dc7578063bed34bba14610dff578063dea0627214610f69576101fb565b80639a6b2689116100e95780639a6b268914610a895780639d7625e514610bf35780639df08f1814610bfd578063a87d942c14610c49576101fb565b80638736381a146109185780638b7601cf146109365780638bb126a714610a055780639748e0a814610a47576101fb565b80633e8cb46011610192578063577640941161016157806357764094146107ab578063619ea1fe146107ed5780637b3903e71461082f5780638500d91914610871576101fb565b80633e8cb460146104fc5780634635b9b2146105d557806351f9969314610617578063545a153a14610769576101fb565b80632e4e1a63116101ce5780632e4e1a63146103ea578063357cdaae146104365780633969855c146104785780633e1088e8146104c4576101fb565b806306fdde03146102005780630cc3a36e14610283578063120245f6146102cf57806313a422c31461031b575b600080fd5b6102086111d3565b6040518080602001828103825283818151815260200191508051906020019080838360005b8381101561024857808201518184015260208101905061022d565b50505050905090810190601f1680156102755780820380516001836020036101000a031916815260200191505b509250505060405180910390f35b6102b96004803603604081101561029957600080fd5b810190808035906020019092919080359060200190929190505050611271565b6040518082815260200191505060405180910390f35b610305600480360360408110156102e557600080fd5b8101908080359060200190929190803590602001909291905050506112a6565b6040518082815260200191505060405180910390f35b6103d46004803603602081101561033157600080fd5b810190808035906020019064010000000081111561034e57600080fd5b82018360208201111561036057600080fd5b8035906020019184600183028401116401000000008311171561038257600080fd5b91908080601f016020809104026020016040519081016040528093929190818152602001838380828437600081840152601f19601f8201169050808301925050505050505091929192905050506112db565b6040518082815260200191505060405180910390f35b6104206004803603604081101561040057600080fd5b81019080803590602001909291908035906020019092919050505061167b565b6040518082815260200191505060405180910390f35b6104626004803603602081101561044c57600080fd5b8101908080359060200190929190505050611741565b6040518082815260200191505060405180910390f35b6104ae6004803603604081101561048e57600080fd5b81019080803590602001909291908035906020019092919050505061179c565b6040518082815260200191505060405180910390f35b6104fa600480360360408110156104da57600080fd5b8101908080359060200190929190803590602001909291905050506117d1565b005b6105bf6004803603604081101561051257600080fd5b810190808035906020019064010000000081111561052f57600080fd5b82018360208201111561054157600080fd5b8035906020019184600183028401116401000000008311171561056357600080fd5b91908080601f016020809104026020016040519081016040528093929190818152602001838380828437600081840152601f19601f82011690508083019250505050505050919291929080359060200190929190505050611831565b6040518082815260200191505060405180910390f35b610615600480360360608110156105eb57600080fd5b810190808035906020019092919080359060200190929190803590602001909291905050506119f5565b005b6107676004803603604081101561062d57600080fd5b810190808035906020019064010000000081111561064a57600080fd5b82018360208201111561065c57600080fd5b8035906020019184600183028401116401000000008311171561067e57600080fd5b91908080601f016020809104026020016040519081016040528093929190818152602001838380828437600081840152601f19601f820116905080830192505050505050509192919290803590602001906401000000008111156106e157600080fd5b8201836020820111156106f357600080fd5b8035906020019184600183028401116401000000008311171561071557600080fd5b91908080601f016020809104026020016040519081016040528093929190818152602001838380828437600081840152601f19601f820116905080830192505050505050509192919290505050611a84565b005b6107956004803603602081101561077f57600080fd5b8101908080359060200190929190505050611b1f565b6040518082815260200191505060405180910390f35b6107d7600480360360208110156107c157600080fd5b8101908080359060200190929190505050611b53565b6040518082815260200191505060405180910390f35b6108196004803603602081101561080357600080fd5b8101908080359060200190929190505050611b87565b6040518082815260200191505060405180910390f35b61085b6004803603602081101561084557600080fd5b8101908080359060200190929190505050611ba7565b6040518082815260200191505060405180910390f35b61089d6004803603602081101561088757600080fd5b8101908080359060200190929190505050611bbf565b6040518080602001828103825283818151815260200191508051906020019080838360005b838110156108dd5780820151818401526020810190506108c2565b50505050905090810190601f16801561090a5780820380516001836020036101000a031916815260200191505b509250505060405180910390f35b610920611c8b565b6040518082815260200191505060405180910390f35b6109ef6004803603602081101561094c57600080fd5b810190808035906020019064010000000081111561096957600080fd5b82018360208201111561097b57600080fd5b8035906020019184600183028401116401000000008311171561099d57600080fd5b91908080601f016020809104026020016040519081016040528093929190818152602001838380828437600081840152601f19601f820116905080830192505050505050509192919290505050611c91565b6040518082815260200191505060405180910390f35b610a3160048036036020811015610a1b57600080fd5b8101908080359060200190929190505050611de0565b6040518082815260200191505060405180910390f35b610a7360048036036020811015610a5d57600080fd5b8101908080359060200190929190505050611e14565b6040518082815260200191505060405180910390f35b610bd960048036036040811015610a9f57600080fd5b8101908080359060200190640100000000811115610abc57600080fd5b820183602082011115610ace57600080fd5b80359060200191846001830284011164010000000083111715610af057600080fd5b91908080601f016020809104026020016040519081016040528093929190818152602001838380828437600081840152601f19601f82011690508083019250505050505050919291929080359060200190640100000000811115610b5357600080fd5b820183602082011115610b6557600080fd5b80359060200191846001830284011164010000000083111715610b8757600080fd5b91908080601f016020809104026020016040519081016040528093929190818152602001838380828437600081840152601f19601f820116905080830192505050505050509192919290505050611e48565b604051808215151515815260200191505060405180910390f35b610bfb6120b3565b005b610c3360048036036040811015610c1357600080fd5b8101908080359060200190929190803590602001909291905050506120c7565b6040518082815260200191505060405180910390f35b610c5161219c565b6040518082815260200191505060405180910390f35b610c9d60048036036040811015610c7d57600080fd5b8101908080359060200190929190803590602001909291905050506121a9565b604051808c815260200180602001806020018b81526020018a81526020018981526020018881526020018781526020018681526020018581526020018415151515815260200183810383528d818151815260200191508051906020019080838360005b83811015610d1b578082015181840152602081019050610d00565b50505050905090810190601f168015610d485780820380516001836020036101000a031916815260200191505b5083810382528c818151815260200191508051906020019080838360005b83811015610d81578082015181840152602081019050610d66565b50505050905090810190601f168015610dae5780820380516001836020036101000a031916815260200191505b509d505050505050505050505050505060405180910390f35b610dfd60048036036040811015610ddd57600080fd5b81019080803590602001909291908035906020019092919050505061234d565b005b610f4f60048036036040811015610e1557600080fd5b8101908080359060200190640100000000811115610e3257600080fd5b820183602082011115610e4457600080fd5b80359060200191846001830284011164010000000083111715610e6657600080fd5b91908080601f016020809104026020016040519081016040528093929190818152602001838380828437600081840152601f19601f82011690508083019250505050505050919291929080359060200190640100000000811115610ec957600080fd5b820183602082011115610edb57600080fd5b80359060200191846001830284011164010000000083111715610efd57600080fd5b91908080601f016020809104026020016040519081016040528093929190818152602001838380828437600081840152601f19601f8201169050808301925050505050505091929192905050506124db565b604051808215151515815260200191505060405180910390f35b61102260048036036020811015610f7f57600080fd5b8101908080359060200190640100000000811115610f9c57600080fd5b820183602082011115610fae57600080fd5b80359060200191846001830284011164010000000083111715610fd057600080fd5b91908080601f016020809104026020016040519081016040528093929190818152602001838380828437600081840152601f19601f8201169050808301925050505050505091929192905050506125ca565b6040518082815260200191505060405180910390f35b61106e6004803603604081101561104e57600080fd5b810190808035906020019092919080359060200190929190505050612719565b005b61109c6004803603602081101561108657600080fd5b8101908080359060200190929190505050612826565b005b6110ca600480360360208110156110b457600080fd5b810190808035906020019092919050505061284c565b6040518082815260200191505060405180910390f35b611116600480360360408110156110f657600080fd5b810190808035906020019092919080359060200190929190505050612880565b6040518082815260200191505060405180910390f35b6111586004803603602081101561114257600080fd5b81019080803590602001909291905050506128b5565b6040518080602001828103825283818151815260200191508051906020019080838360005b8381101561119857808201518184015260208101905061117d565b50505050905090810190601f1680156111c55780820380516001836020036101000a031916815260200191505b509250505060405180910390f35b60008054600181600116156101000203166002900480601f0160208091040260200160405190810160405280929190818152602001828054600181600116156101000203166002900480156112695780601f1061123e57610100808354040283529160200191611269565b820191906000526020600020905b81548152906001019060200180831161124c57829003601f168201915b505050505081565b600060026000848152602001908152602001600020600083815260200190815260200160002060060154905080905092915050565b600060026000848152602001908152602001600020600083815260200190815260200160002060090154905080905092915050565b6000806000905060008090505b60015481101561167157836040516020018082805190602001908083835b602083106113295780518252602082019150602081019050602083039250611306565b6001836020036101000a0380198251168184511680821785525050505050509050019150506040516020818303038152906040528051906020012060026000838152602001908152602001600020600080815260200190815260200160002060010160405160200180828054600181600116156101000203166002900480156113e95780601f106113c75761010080835404028352918201916113e9565b820191906000526020600020905b8154815290600101906020018083116113d5575b505091505060405160208183030381529060405280519060200120141561146b576000600260008381526020019081526020016000206000808152602001908152602001600020600401549050614e208111156114625761c350811115611456576006925082925061145d565b6003830192505b611469565b6001830192505b505b836040516020018082805190602001908083835b602083106114a2578051825260208201915060208101905060208303925061147f565b6001836020036101000a0380198251168184511680821785525050505050509050019150506040516020818303038152906040528051906020012060026000838152602001908152602001600020600080815260200190815260200160002060020160405160200180828054600181600116156101000203166002900480156115625780601f10611540576101008083540402835291820191611562565b820191906000526020600020905b81548152906001019060200180831161154e575b50509150506040516020818303038152906040528051906020012014156116645781806001019250506000600360008381526020019081526020016000205490506000600190505b600182018110156116615760006002600085815260200190815260200160002060008381526020019081526020016000206006015490506000600260008681526020019081526020016000206000848152602001908152602001600020600701549050600061161982846120c7565b90506000811315611651576064811261164057600a818161163657fe5b0587039650611650565b6003818161164a57fe5b05870396505b5b50505080806001019150506115aa565b50505b80806001019150506112e8565b5080915050919050565b600060018214156116e1576002600084815260200190815260200160002060008381526020019081526020016000206009015460026000858152602001908152602001600020600060018503815260200190815260200160002060040154039050611738565b60026000848152602001908152602001600020600083815260200190815260200160002060090154600260008581526020019081526020016000206000600185038152602001908152602001600020600901540390505b80905092915050565b600080600090505b6001548110156117935782600260008381526020019081526020016000206000808152602001908152602001600020600001541415611786578091505b8080600101915050611749565b50809050919050565b600060026000848152602001908152602001600020600083815260200190815260200160002060070154905080905092915050565b81600260006001548152602001908152602001600020600080815260200190815260200160002060060181905550806002600060015481526020019081526020016000206000808152602001908152602001600020600001819055505050565b60006118fc6002600084815260200190815260200160002060008081526020019081526020016000206001018054600181600116156101000203166002900480601f0160208091040260200160405190810160405280929190818152602001828054600181600116156101000203166002900480156118f15780601f106118c6576101008083540402835291602001916118f1565b820191906000526020600020905b8154815290600101906020018083116118d457829003601f168201915b5050505050846124db565b1561190d57600190508090506119ef565b6119d66002600084815260200190815260200160002060008081526020019081526020016000206002018054600181600116156101000203166002900480601f0160208091040260200160405190810160405280929190818152602001828054600181600116156101000203166002900480156119cb5780601f106119a0576101008083540402835291602001916119cb565b820191906000526020600020905b8154815290600101906020018083116119ae57829003601f168201915b5050505050846124db565b156119e757600290508090506119ef565b600090508090505b92915050565b826002600060015481526020019081526020016000206000808152602001908152602001600020600301819055508160026000600154815260200190815260200160002060008081526020019081526020016000206005018190555080600260006001548152602001908152602001600020600080815260200190815260200160002060040181905550505050565b8160026000600154815260200190815260200160002060008081526020019081526020016000206002019080519060200190611ac1929190612981565b508060026000600154815260200190815260200160002060008081526020019081526020016000206001019080519060200190611aff929190612981565b506000600360006001548152602001908152602001600020819055505050565b6000600260008381526020019081526020016000206000808152602001908152602001600020600001549050809050919050565b6000600260008381526020019081526020016000206000808152602001908152602001600020600301549050809050919050565b600060036000838152602001908152602001600020549050809050919050565b60036020528060005260406000206000915090505481565b60606002600083815260200190815260200160002060008081526020019081526020016000206002018054600181600116156101000203166002900480601f016020809104026020016040519081016040528092919081815260200182805460018160011615610100020316600290048015611c7c5780601f10611c5157610100808354040283529160200191611c7c565b820191906000526020600020905b815481529060010190602001808311611c5f57829003601f168201915b50505050509050809050919050565b60015481565b6000806000905060008090505b600154811015611dd657836040516020018082805190602001908083835b60208310611cdf5780518252602082019150602081019050602083039250611cbc565b6001836020036101000a038019825116818451168082178552505050505050905001915050604051602081830303815290604052805190602001206002600083815260200190815260200160002060008081526020019081526020016000206001016040516020018082805460018160011615610100020316600290048015611d9f5780601f10611d7d576101008083540402835291820191611d9f565b820191906000526020600020905b815481529060010190602001808311611d8b575b5050915050604051602081830303815290604052805190602001201415611dc95781806001019250505b8080600101915050611c9e565b5080915050919050565b6000600260008381526020019081526020016000206000808152602001908152602001600020600501549050809050919050565b6000600260008381526020019081526020016000206000808152602001908152602001600020600501549050809050919050565b6000806000905060008090505b6001548110156120a857846040516020018082805190602001908083835b60208310611e965780518252602082019150602081019050602083039250611e73565b6001836020036101000a038019825116818451168082178552505050505050905001915050604051602081830303815290604052805190602001206002600083815260200190815260200160002060008081526020019081526020016000206001016040516020018082805460018160011615610100020316600290048015611f565780601f10611f34576101008083540402835291820191611f56565b820191906000526020600020905b815481529060010190602001808311611f42575b50509150506040516020818303038152906040528051906020012014801561208d5750836040516020018082805190602001908083835b60208310611fb05780518252602082019150602081019050602083039250611f8d565b6001836020036101000a0380198251168184511680821785525050505050509050019150506040516020818303038152906040528051906020012060026000838152602001908152602001600020600080815260200190815260200160002060020160405160200180828054600181600116156101000203166002900480156120705780601f1061204e576101008083540402835291820191612070565b820191906000526020600020905b81548152906001019060200180831161205c575b505091505060405160208183030381529060405280519060200120145b1561209b57600191506120a8565b8080600101915050611e55565b508091505092915050565b600160008154809291906001019190505550565b60008061271084816120d557fe5b0590506000606461271083028603816120ea57fe5b059050600060648202612710840287030390506000612710868161210a57fe5b05905060006064612710830288038161211f57fe5b05905060006064820261271084028903039050600086840390506000868403905060008684039050600081121561216057818060019003925050601e810190505b600082121561217957828060019003935050600c820191505b60008160648402612710860201019050809a505050505050505050505092915050565b6000600154905080905090565b600260205281600052604060002060205280600052604060002060009150915050806000015490806001018054600181600116156101000203166002900480601f0160208091040260200160405190810160405280929190818152602001828054600181600116156101000203166002900480156122685780601f1061223d57610100808354040283529160200191612268565b820191906000526020600020905b81548152906001019060200180831161224b57829003601f168201915b505050505090806002018054600181600116156101000203166002900480601f0160208091040260200160405190810160405280929190818152602001828054600181600116156101000203166002900480156123065780601f106122db57610100808354040283529160200191612306565b820191906000526020600020905b8154815290600101906020018083116122e957829003601f168201915b50505050509080600301549080600401549080600501549080600601549080600701549080600801549080600901549080600a0160009054906101000a900460ff1690508b565b6000600360008481526020019081526020016000205490506000811415612424578160026000858152602001908152602001600020600080815260200190815260200160002060040154036002600085815260200190815260200160002060006001840181526020019081526020016000206009018190555060016002600085815260200190815260200160002060008081526020019081526020016000206005015403600260008581526020019081526020016000206000600184018152602001908152602001600020600801819055506124d6565b8160026000858152602001908152602001600020600083815260200190815260200160002060090154036002600085815260200190815260200160002060006001840181526020019081526020016000206009018190555060016002600085815260200190815260200160002060008381526020019081526020016000206008015403600260008581526020019081526020016000206000600184018152602001908152602001600020600801819055505b505050565b6000816040516020018082805190602001908083835b6020831061251457805182526020820191506020810190506020830392506124f1565b6001836020036101000a03801982511681845116808217855250505050505090500191505060405160208183030381529060405280519060200120836040516020018082805190602001908083835b602083106125865780518252602082019150602081019050602083039250612563565b6001836020036101000a0380198251168184511680821785525050505050509050019150506040516020818303038152906040528051906020012014905092915050565b6000806000905060008090505b60015481101561270f57836040516020018082805190602001908083835b6020831061261857805182526020820191506020810190506020830392506125f5565b6001836020036101000a0380198251168184511680821785525050505050509050019150506040516020818303038152906040528051906020012060026000838152602001908152602001600020600080815260200190815260200160002060020160405160200180828054600181600116156101000203166002900480156126d85780601f106126b65761010080835404028352918201916126d8565b820191906000526020600020905b8154815290600101906020018083116126c4575b50509150506040516020818303038152906040528051906020012014156127025781806001019250505b80806001019150506125d7565b5080915050919050565b600060036000848152602001908152602001600020549050816002600085815260200190815260200160002060006001840181526020019081526020016000206006018190555060008114156127c7576064600260008581526020019081526020016000206000808152602001908152602001600020600601540160026000858152602001908152602001600020600060018401815260200190815260200160002060070181905550612821565b60646002600085815260200190815260200160002060008381526020019081526020016000206007015401600260008581526020019081526020016000206000600184018152602001908152602001600020600701819055505b505050565b600360008281526020019081526020016000206000815480929190600101919050555050565b6000600260008381526020019081526020016000206000808152602001908152602001600020600401549050809050919050565b600060026000848152602001908152602001600020600083815260200190815260200160002060080154905080905092915050565b60606002600083815260200190815260200160002060008081526020019081526020016000206001018054600181600116156101000203166002900480601f0160208091040260200160405190810160405280929190818152602001828054600181600116156101000203166002900480156129725780601f1061294757610100808354040283529160200191612972565b820191906000526020600020905b81548152906001019060200180831161295557829003601f168201915b50505050509050809050919050565b828054600181600116156101000203166002900490600052602060002090601f016020900481019282601f106129c257805160ff19168380011785556129f0565b828001600101855582156129f0579182015b828111156129ef5782518255916020019190600101906129d4565b5b5090506129fd9190612a01565b5090565b612a2391905b80821115612a1f576000816000905550600101612a07565b5090565b9056fea265627a7a72315820267b4f59fc372dd31170533c02632440f61ca65e0005f963f95e0d6f1479818064736f6c63430005100032",
  "source": "pragma solidity >=0.4.21 <0.7.0;\r\n\r\ncontract Contract {\r\n\r\n  string public name;\r\n  uint public contractCount = 0;\r\n\r\n  struct Contract_user {\r\n    uint id;\r\n    string lender;\r\n    string borrower;\r\n    uint rate;\r\n    uint totalAmount;\r\n    uint duration;\r\n    int currentDate;\r\n    int theoricalDate;\r\n    uint remainingDuration;\r\n    uint remainingAmount;\r\n    bool status;\r\n  }\r\n\r\n  mapping(uint => mapping(uint => Contract_user)) public usersContracts;\r\n  mapping(uint => uint) public nb_transaction;\r\n\r\n  constructor() public{\r\n    name = \"Contrat Entre Particuliers\";\r\n  }\r\n\r\n\r\n  function increaseContract() public{\r\n    contractCount++;\r\n  }\r\n\r\n  function createContract1(uint _rate,uint _duration,uint _totalAmount) public{\r\n    usersContracts[contractCount][0].rate = _rate;\r\n    usersContracts[contractCount][0].duration = _duration;\r\n    usersContracts[contractCount][0].totalAmount = _totalAmount;\r\n  }\r\n\r\n  function createContract2(string memory _borrower,string memory _lender) public{\r\n    usersContracts[contractCount][0].borrower = _borrower;\r\n    usersContracts[contractCount][0].lender = _lender;\r\n    nb_transaction[contractCount] = 0;\r\n  }\r\n\r\n  function createContract3(int _currentDate,uint _id) public{\r\n    usersContracts[contractCount][0].currentDate = _currentDate;\r\n    usersContracts[contractCount][0].id = _id;\r\n  }\r\n\r\n  function increaseTrans(uint _id) public{\r\n    nb_transaction[_id]++;\r\n  }\r\n\r\n  function transaction1(uint _id,uint _sum) public{\r\n        uint transactionId = nb_transaction[_id];\r\n        if (transactionId==0){\r\n          usersContracts[_id][transactionId+1].remainingAmount = usersContracts[_id][0].totalAmount - _sum;\r\n          usersContracts[_id][transactionId+1].remainingDuration = usersContracts[_id][0].duration - 1;\r\n        }\r\n        else{\r\n        usersContracts[_id][transactionId+1].remainingAmount = usersContracts[_id][transactionId].remainingAmount - _sum;\r\n        usersContracts[_id][transactionId+1].remainingDuration = usersContracts[_id][transactionId].remainingDuration - 1;\r\n        }\r\n  }\r\n\r\n  function transaction2(uint _id,int _currentDate) public{\r\n        uint transactionId = nb_transaction[_id];\r\n        usersContracts[_id][transactionId+1].currentDate = _currentDate;\r\n        if (transactionId ==0){\r\n          usersContracts[_id][transactionId+1].theoricalDate = usersContracts[_id][0].currentDate + 100;\r\n        }\r\n        else{\r\n        usersContracts[_id][transactionId+1].theoricalDate = usersContracts[_id][transactionId].theoricalDate + 100;\r\n        }\r\n  }\r\n\r\n\r\n  function getCount() public view returns (uint _count){\r\n    _count = contractCount;\r\n    return _count;\r\n  }\r\n\r\n  function getNb_transaction(uint contratNumber) public view returns (uint _nb_transaction){\r\n    _nb_transaction = nb_transaction[contratNumber];\r\n    return _nb_transaction;\r\n  }\r\n\r\n  function getRate(uint contratNumber) public view returns (uint _rate){\r\n    _rate = usersContracts[contratNumber][0].rate;\r\n    return _rate;\r\n  }\r\n\r\n  function getId(uint contratNumber) public view returns (uint _id){\r\n    _id = usersContracts[contratNumber][0].id;\r\n    return _id;\r\n  }\r\n\r\n\r\n  function getNumero(uint _id) public view returns (uint _numero_contrat){\r\n    for (uint i=0; i<contractCount; i++){\r\n      if (usersContracts[i][0].id == _id){\r\n        _numero_contrat = i;\r\n      }\r\n    }\r\n    return _numero_contrat;\r\n  }\r\n\r\n  function getEcheance_totale(uint numero_contrat) public view returns (uint _duration){\r\n    _duration = usersContracts[numero_contrat][0].duration;\r\n    return _duration;\r\n  }\r\n\r\n  function getDuration(uint contratNumber) public view returns (uint _duration){\r\n    _duration = usersContracts[contratNumber][0].duration;\r\n    return _duration;\r\n\r\n  }\r\n\r\n  function getTotalAmount(uint contratNumber) public view returns (uint _totalAmount){\r\n    _totalAmount = usersContracts[contratNumber][0].totalAmount;\r\n    return _totalAmount;\r\n  }\r\n\r\n  function getBorrower(uint contratNumber) public view returns (string memory _borrower){\r\n    _borrower = usersContracts[contratNumber][0].borrower;\r\n    return _borrower;\r\n  }\r\n\r\n  function getLender(uint contratNumber) public view returns (string memory _lender){\r\n    _lender = usersContracts[contratNumber][0].lender;\r\n    return _lender;\r\n  }\r\n\r\n  function getCurrentDate(uint contratNumber, uint transactionId) public view returns (int _currentDate){\r\n    _currentDate = usersContracts[contratNumber][transactionId].currentDate;\r\n    return _currentDate;\r\n  }\r\n\r\n  function getTheoricalDate(uint contratNumber, uint transactionId) public view returns (int _theoricalDate){\r\n    _theoricalDate = usersContracts[contratNumber][transactionId].theoricalDate;\r\n    return _theoricalDate;\r\n  }\r\n\r\n  function getRemainingDuration(uint contratNumber, uint transactionId) public view returns (uint _remainingDuration){\r\n    _remainingDuration = usersContracts[contratNumber][transactionId].remainingDuration;\r\n    return _remainingDuration;\r\n  }\r\n\r\n  function getRemainingAmount(uint contratNumber, uint transactionId) public view returns (uint _remainingAmount){\r\n    _remainingAmount = usersContracts[contratNumber][transactionId].remainingAmount;\r\n    return _remainingAmount;\r\n  }\r\n\r\n  function getTransactionAmount(uint contratNumber, uint transactionId) public view returns (uint _transactionAmount){\r\n    if (transactionId == 1){\r\n      _transactionAmount = usersContracts[contratNumber][transactionId-1].totalAmount - usersContracts[contratNumber][transactionId].remainingAmount;\r\n    }\r\n    else{\r\n      _transactionAmount = usersContracts[contratNumber][transactionId-1].remainingAmount - usersContracts[contratNumber][transactionId].remainingAmount;\r\n    }\r\n\r\n    return _transactionAmount;\r\n  }\r\n\r\n  function existContract (string memory _lender,string memory _borrower) public view returns (bool) {\r\n    bool exist = false;\r\n    for (uint p = 0; p<contractCount; p++){\r\n      if ((keccak256(abi.encodePacked((usersContracts[p][0].lender))) == keccak256(abi.encodePacked((_lender))))&&(keccak256(abi.encodePacked((usersContracts[p][0].borrower))) == keccak256(abi.encodePacked((_borrower))))){\r\n        exist = true;\r\n        break;\r\n      }\r\n    }\r\n    return exist;\r\n  }\r\n\r\n  function nbLoans(string memory user) public view returns (uint){\r\n      uint nb_prets = 0;\r\n      for (uint p = 0; p<contractCount; p++){\r\n        if (keccak256(abi.encodePacked((usersContracts[p][0].lender))) == keccak256(abi.encodePacked((user))))\r\n          nb_prets++;\r\n      }\r\n      return nb_prets;\r\n  }\r\n\r\n\r\n  function nbBorrows(string memory user) public view returns (uint){\r\n      uint nb_emprunts = 0;\r\n      for (uint p = 0; p<contractCount; p++){\r\n        if (keccak256(abi.encodePacked((usersContracts[p][0].borrower))) == keccak256(abi.encodePacked((user))))\r\n          nb_emprunts++;\r\n      }\r\n      return nb_emprunts;\r\n  }\r\n\r\n\r\n  function dateDiff (int date1, int date2) public view returns (int) {\r\n    int year1 = date1/10000;\r\n    int month1 = (date1 - (year1 * 10000)) / 100;\r\n    int day1 = date1 - (year1 * 10000) - (month1 * 100);\r\n    int year2 = date2/10000;\r\n    int month2 = (date2 - (year2 * 10000)) / 100;\r\n    int day2 = date2 - (year2 * 10000) - (month2 * 100);\r\n    int yearDiff = year2 - year1;\r\n    int monthDiff = month2 - month1;\r\n    int dayDiff = day2 - day1;\r\n    if (dayDiff <0){\r\n      monthDiff--;\r\n      dayDiff = dayDiff + 30;\r\n      }\r\n    if (monthDiff <0){\r\n      yearDiff--;\r\n      monthDiff = monthDiff + 12;\r\n    }\r\n    int res = yearDiff*10000  + monthDiff*100 + dayDiff;\r\n    return res;\r\n  }\r\n\r\n  function reputation(string memory user) public view returns(int){\r\n    int reput = 0;\r\n    for (uint i = 0; i<contractCount; i++){\r\n      if (keccak256(abi.encodePacked((usersContracts[i][0].lender))) == keccak256(abi.encodePacked((user)))){\r\n        uint montant = usersContracts[i][0].totalAmount;\r\n        if (montant > 20000){\r\n          if (montant > 50000){\r\n            reput = reput = 6;\r\n          }\r\n          else{\r\n          reput = reput + 3;\r\n          }\r\n        }\r\n        else{\r\n          reput = reput + 1;\r\n        }\r\n      }\r\n      if (keccak256(abi.encodePacked((usersContracts[i][0].borrower))) == keccak256(abi.encodePacked((user)))){\r\n        reput ++;\r\n        uint transactions = nb_transaction[i];\r\n        for (uint j=1; j<transactions+1; j++){\r\n          int date_r = usersContracts[i][j].currentDate;\r\n          int date_t = usersContracts[i][j].theoricalDate;\r\n          int diff = dateDiff (date_t,date_r);\r\n          if (diff>0){\r\n            if (diff>=100){\r\n              reput = reput - diff/10;\r\n            }\r\n            else{\r\n              reput = reput - diff/3;\r\n            }\r\n          }\r\n        }\r\n      }\r\n    }\r\n    return reput;\r\n  }\r\n  function compareStrings (string memory a, string memory b) public view returns (bool) {\r\n    return (keccak256(abi.encodePacked((a))) == keccak256(abi.encodePacked((b))));\r\n  }\r\n\r\n  function testContractUser (string memory user, uint contractNumber) public view returns (int _value){\r\n    if (compareStrings(usersContracts[contractNumber][0].lender, user)){\r\n      _value = 1;\r\n      return _value; //contrat en tant que lender\r\n    }\r\n    else if (compareStrings(usersContracts[contractNumber][0].borrower, user)){\r\n      _value = 2;\r\n      return _value; //contrat en tant qu'emprunter\r\n    }\r\n    else{\r\n      _value = 0;\r\n      return _value; //contrat pas au user\r\n    }\r\n  }\r\n}\r\n",
  "sourcePath": "/home/maxim/Documents/Git_project/Bankeirble/blockchain/react_app_tes/src/blockchain/contracts/Contract.sol",
  "compiler": {
    "name": "solc",
    "version": "0.5.16+commit.9c3226ce.Emscripten.clang"
  },
  "schemaVersion": "3.0.23",
  "updatedAt": "2020-04-11T16:42:54.548Z",
  "networkType": "ethereum",
  "devdoc": {
    "methods": {}
  },
  "userdoc": {
    "methods": {}
  }
}